{
  "_format": "hh-sol-artifact-1",
  "contractName": "CarbonVault",
  "sourceName": "contracts/CarbonVault.sol",
  "abi": [
    {
      "inputs": [
        {
          "internalType": "address",
          "name": "_carbonOracle",
          "type": "address"
        }
      ],
      "stateMutability": "nonpayable",
      "type": "constructor"
    },
    {
      "inputs": [
        {
          "internalType": "address",
          "name": "spender",
          "type": "address"
        },
        {
          "internalType": "uint256",
          "name": "allowance",
          "type": "uint256"
        },
        {
          "internalType": "uint256",
          "name": "needed",
          "type": "uint256"
        }
      ],
      "name": "ERC20InsufficientAllowance",
      "type": "error"
    },
    {
      "inputs": [
        {
          "internalType": "address",
          "name": "sender",
          "type": "address"
        },
        {
          "internalType": "uint256",
          "name": "balance",
          "type": "uint256"
        },
        {
          "internalType": "uint256",
          "name": "needed",
          "type": "uint256"
        }
      ],
      "name": "ERC20InsufficientBalance",
      "type": "error"
    },
    {
      "inputs": [
        {
          "internalType": "address",
          "name": "approver",
          "type": "address"
        }
      ],
      "name": "ERC20InvalidApprover",
      "type": "error"
    },
    {
      "inputs": [
        {
          "internalType": "address",
          "name": "receiver",
          "type": "address"
        }
      ],
      "name": "ERC20InvalidReceiver",
      "type": "error"
    },
    {
      "inputs": [
        {
          "internalType": "address",
          "name": "sender",
          "type": "address"
        }
      ],
      "name": "ERC20InvalidSender",
      "type": "error"
    },
    {
      "inputs": [
        {
          "internalType": "address",
          "name": "spender",
          "type": "address"
        }
      ],
      "name": "ERC20InvalidSpender",
      "type": "error"
    },
    {
      "inputs": [],
      "name": "EnforcedPause",
      "type": "error"
    },
    {
      "inputs": [],
      "name": "ExpectedPause",
      "type": "error"
    },
    {
      "inputs": [
        {
          "internalType": "address",
          "name": "owner",
          "type": "address"
        }
      ],
      "name": "OwnableInvalidOwner",
      "type": "error"
    },
    {
      "inputs": [
        {
          "internalType": "address",
          "name": "account",
          "type": "address"
        }
      ],
      "name": "OwnableUnauthorizedAccount",
      "type": "error"
    },
    {
      "inputs": [],
      "name": "ReentrancyGuardReentrantCall",
      "type": "error"
    },
    {
      "anonymous": false,
      "inputs": [
        {
          "indexed": true,
          "internalType": "address",
          "name": "owner",
          "type": "address"
        },
        {
          "indexed": true,
          "internalType": "address",
          "name": "spender",
          "type": "address"
        },
        {
          "indexed": false,
          "internalType": "uint256",
          "name": "value",
          "type": "uint256"
        }
      ],
      "name": "Approval",
      "type": "event"
    },
    {
      "anonymous": false,
      "inputs": [
        {
          "indexed": true,
          "internalType": "bytes32",
          "name": "creditId",
          "type": "bytes32"
        },
        {
          "indexed": true,
          "internalType": "address",
          "name": "issuer",
          "type": "address"
        },
        {
          "indexed": false,
          "internalType": "uint256",
          "name": "amount",
          "type": "uint256"
        }
      ],
      "name": "CarbonCreditIssued",
      "type": "event"
    },
    {
      "anonymous": false,
      "inputs": [
        {
          "indexed": true,
          "internalType": "bytes32",
          "name": "creditId",
          "type": "bytes32"
        },
        {
          "indexed": true,
          "internalType": "address",
          "name": "retiree",
          "type": "address"
        }
      ],
      "name": "CarbonCreditRetired",
      "type": "event"
    },
    {
      "anonymous": false,
      "inputs": [
        {
          "indexed": true,
          "internalType": "address",
          "name": "issuer",
          "type": "address"
        }
      ],
      "name": "IssuerAuthorized",
      "type": "event"
    },
    {
      "anonymous": false,
      "inputs": [
        {
          "indexed": true,
          "internalType": "address",
          "name": "issuer",
          "type": "address"
        }
      ],
      "name": "IssuerRevoked",
      "type": "event"
    },
    {
      "anonymous": false,
      "inputs": [
        {
          "indexed": true,
          "internalType": "address",
          "name": "previousOwner",
          "type": "address"
        },
        {
          "indexed": true,
          "internalType": "address",
          "name": "newOwner",
          "type": "address"
        }
      ],
      "name": "OwnershipTransferred",
      "type": "event"
    },
    {
      "anonymous": false,
      "inputs": [
        {
          "indexed": false,
          "internalType": "address",
          "name": "account",
          "type": "address"
        }
      ],
      "name": "Paused",
      "type": "event"
    },
    {
      "anonymous": false,
      "inputs": [
        {
          "indexed": true,
          "internalType": "address",
          "name": "from",
          "type": "address"
        },
        {
          "indexed": true,
          "internalType": "address",
          "name": "to",
          "type": "address"
        },
        {
          "indexed": false,
          "internalType": "uint256",
          "name": "value",
          "type": "uint256"
        }
      ],
      "name": "Transfer",
      "type": "event"
    },
    {
      "anonymous": false,
      "inputs": [
        {
          "indexed": false,
          "internalType": "address",
          "name": "account",
          "type": "address"
        }
      ],
      "name": "Unpaused",
      "type": "event"
    },
    {
      "inputs": [],
      "name": "MAX_SUPPLY",
      "outputs": [
        {
          "internalType": "uint256",
          "name": "",
          "type": "uint256"
        }
      ],
      "stateMutability": "view",
      "type": "function"
    },
    {
      "inputs": [],
      "name": "MIN_VINTAGE",
      "outputs": [
        {
          "internalType": "uint256",
          "name": "",
          "type": "uint256"
        }
      ],
      "stateMutability": "view",
      "type": "function"
    },
    {
      "inputs": [
        {
          "internalType": "address",
          "name": "owner",
          "type": "address"
        },
        {
          "internalType": "address",
          "name": "spender",
          "type": "address"
        }
      ],
      "name": "allowance",
      "outputs": [
        {
          "internalType": "uint256",
          "name": "",
          "type": "uint256"
        }
      ],
      "stateMutability": "view",
      "type": "function"
    },
    {
      "inputs": [
        {
          "internalType": "address",
          "name": "spender",
          "type": "address"
        },
        {
          "internalType": "uint256",
          "name": "value",
          "type": "uint256"
        }
      ],
      "name": "approve",
      "outputs": [
        {
          "internalType": "bool",
          "name": "",
          "type": "bool"
        }
      ],
      "stateMutability": "nonpayable",
      "type": "function"
    },
    {
      "inputs": [
        {
          "internalType": "address",
          "name": "_issuer",
          "type": "address"
        }
      ],
      "name": "authorizeIssuer",
      "outputs": [],
      "stateMutability": "nonpayable",
      "type": "function"
    },
    {
      "inputs": [
        {
          "internalType": "address",
          "name": "",
          "type": "address"
        }
      ],
      "name": "authorizedIssuers",
      "outputs": [
        {
          "internalType": "bool",
          "name": "",
          "type": "bool"
        }
      ],
      "stateMutability": "view",
      "type": "function"
    },
    {
      "inputs": [
        {
          "internalType": "address",
          "name": "account",
          "type": "address"
        }
      ],
      "name": "balanceOf",
      "outputs": [
        {
          "internalType": "uint256",
          "name": "",
          "type": "uint256"
        }
      ],
      "stateMutability": "view",
      "type": "function"
    },
    {
      "inputs": [
        {
          "internalType": "uint256",
          "name": "value",
          "type": "uint256"
        }
      ],
      "name": "burn",
      "outputs": [],
      "stateMutability": "nonpayable",
      "type": "function"
    },
    {
      "inputs": [
        {
          "internalType": "address",
          "name": "account",
          "type": "address"
        },
        {
          "internalType": "uint256",
          "name": "value",
          "type": "uint256"
        }
      ],
      "name": "burnFrom",
      "outputs": [],
      "stateMutability": "nonpayable",
      "type": "function"
    },
    {
      "inputs": [
        {
          "internalType": "bytes32",
          "name": "",
          "type": "bytes32"
        }
      ],
      "name": "carbonCredits",
      "outputs": [
        {
          "internalType": "bytes32",
          "name": "creditId",
          "type": "bytes32"
        },
        {
          "internalType": "address",
          "name": "issuer",
          "type": "address"
        },
        {
          "internalType": "uint256",
          "name": "amount",
          "type": "uint256"
        },
        {
          "internalType": "uint256",
          "name": "vintage",
          "type": "uint256"
        },
        {
          "internalType": "string",
          "name": "projectType",
          "type": "string"
        },
        {
          "internalType": "bool",
          "name": "verified",
          "type": "bool"
        },
        {
          "internalType": "bool",
          "name": "retired",
          "type": "bool"
        }
      ],
      "stateMutability": "view",
      "type": "function"
    },
    {
      "inputs": [],
      "name": "carbonOracle",
      "outputs": [
        {
          "internalType": "contract ICarbonOracle",
          "name": "",
          "type": "address"
        }
      ],
      "stateMutability": "view",
      "type": "function"
    },
    {
      "inputs": [],
      "name": "decimals",
      "outputs": [
        {
          "internalType": "uint8",
          "name": "",
          "type": "uint8"
        }
      ],
      "stateMutability": "view",
      "type": "function"
    },
    {
      "inputs": [
        {
          "internalType": "bytes32",
          "name": "_creditId",
          "type": "bytes32"
        }
      ],
      "name": "getCarbonCredit",
      "outputs": [
        {
          "components": [
            {
              "internalType": "bytes32",
              "name": "creditId",
              "type": "bytes32"
            },
            {
              "internalType": "address",
              "name": "issuer",
              "type": "address"
            },
            {
              "internalType": "uint256",
              "name": "amount",
              "type": "uint256"
            },
            {
              "internalType": "uint256",
              "name": "vintage",
              "type": "uint256"
            },
            {
              "internalType": "string",
              "name": "projectType",
              "type": "string"
            },
            {
              "internalType": "bool",
              "name": "verified",
              "type": "bool"
            },
            {
              "internalType": "bool",
              "name": "retired",
              "type": "bool"
            }
          ],
          "internalType": "struct CarbonVault.CarbonCredit",
          "name": "",
          "type": "tuple"
        }
      ],
      "stateMutability": "view",
      "type": "function"
    },
    {
      "inputs": [
        {
          "internalType": "address",
          "name": "_user",
          "type": "address"
        }
      ],
      "name": "getUserCredits",
      "outputs": [
        {
          "internalType": "bytes32[]",
          "name": "",
          "type": "bytes32[]"
        }
      ],
      "stateMutability": "view",
      "type": "function"
    },
    {
      "inputs": [
        {
          "internalType": "bytes32",
          "name": "_creditId",
          "type": "bytes32"
        },
        {
          "internalType": "address",
          "name": "_to",
          "type": "address"
        },
        {
          "internalType": "uint256",
          "name": "_amount",
          "type": "uint256"
        },
        {
          "internalType": "uint256",
          "name": "_vintage",
          "type": "uint256"
        },
        {
          "internalType": "string",
          "name": "_projectType",
          "type": "string"
        }
      ],
      "name": "issueCarbonCredit",
      "outputs": [],
      "stateMutability": "nonpayable",
      "type": "function"
    },
    {
      "inputs": [],
      "name": "name",
      "outputs": [
        {
          "internalType": "string",
          "name": "",
          "type": "string"
        }
      ],
      "stateMutability": "view",
      "type": "function"
    },
    {
      "inputs": [],
      "name": "owner",
      "outputs": [
        {
          "internalType": "address",
          "name": "",
          "type": "address"
        }
      ],
      "stateMutability": "view",
      "type": "function"
    },
    {
      "inputs": [],
      "name": "pause",
      "outputs": [],
      "stateMutability": "nonpayable",
      "type": "function"
    },
    {
      "inputs": [],
      "name": "paused",
      "outputs": [
        {
          "internalType": "bool",
          "name": "",
          "type": "bool"
        }
      ],
      "stateMutability": "view",
      "type": "function"
    },
    {
      "inputs": [],
      "name": "renounceOwnership",
      "outputs": [],
      "stateMutability": "nonpayable",
      "type": "function"
    },
    {
      "inputs": [
        {
          "internalType": "bytes32",
          "name": "_creditId",
          "type": "bytes32"
        }
      ],
      "name": "retireCarbonCredit",
      "outputs": [],
      "stateMutability": "nonpayable",
      "type": "function"
    },
    {
      "inputs": [
        {
          "internalType": "address",
          "name": "_issuer",
          "type": "address"
        }
      ],
      "name": "revokeIssuer",
      "outputs": [],
      "stateMutability": "nonpayable",
      "type": "function"
    },
    {
      "inputs": [
        {
          "internalType": "address",
          "name": "_newOracle",
          "type": "address"
        }
      ],
      "name": "setCarbonOracle",
      "outputs": [],
      "stateMutability": "nonpayable",
      "type": "function"
    },
    {
      "inputs": [],
      "name": "symbol",
      "outputs": [
        {
          "internalType": "string",
          "name": "",
          "type": "string"
        }
      ],
      "stateMutability": "view",
      "type": "function"
    },
    {
      "inputs": [],
      "name": "totalSupply",
      "outputs": [
        {
          "internalType": "uint256",
          "name": "",
          "type": "uint256"
        }
      ],
      "stateMutability": "view",
      "type": "function"
    },
    {
      "inputs": [
        {
          "internalType": "bytes32",
          "name": "_creditId",
          "type": "bytes32"
        },
        {
          "internalType": "address",
          "name": "_to",
          "type": "address"
        },
        {
          "internalType": "uint256",
          "name": "_amount",
          "type": "uint256"
        }
      ],
      "name": "tradeCarbonCredit",
      "outputs": [],
      "stateMutability": "nonpayable",
      "type": "function"
    },
    {
      "inputs": [
        {
          "internalType": "address",
          "name": "to",
          "type": "address"
        },
        {
          "internalType": "uint256",
          "name": "value",
          "type": "uint256"
        }
      ],
      "name": "transfer",
      "outputs": [
        {
          "internalType": "bool",
          "name": "",
          "type": "bool"
        }
      ],
      "stateMutability": "nonpayable",
      "type": "function"
    },
    {
      "inputs": [
        {
          "internalType": "address",
          "name": "from",
          "type": "address"
        },
        {
          "internalType": "address",
          "name": "to",
          "type": "address"
        },
        {
          "internalType": "uint256",
          "name": "value",
          "type": "uint256"
        }
      ],
      "name": "transferFrom",
      "outputs": [
        {
          "internalType": "bool",
          "name": "",
          "type": "bool"
        }
      ],
      "stateMutability": "nonpayable",
      "type": "function"
    },
    {
      "inputs": [
        {
          "internalType": "address",
          "name": "newOwner",
          "type": "address"
        }
      ],
      "name": "transferOwnership",
      "outputs": [],
      "stateMutability": "nonpayable",
      "type": "function"
    },
    {
      "inputs": [],
      "name": "unpause",
      "outputs": [],
      "stateMutability": "nonpayable",
      "type": "function"
    },
    {
      "inputs": [
        {
          "internalType": "address",
          "name": "",
          "type": "address"
        },
        {
          "internalType": "uint256",
          "name": "",
          "type": "uint256"
        }
      ],
      "name": "userCredits",
      "outputs": [
        {
          "internalType": "bytes32",
          "name": "",
          "type": "bytes32"
        }
      ],
      "stateMutability": "view",
      "type": "function"
    }
  ],
  "bytecode": "0x60806040523480156200001157600080fd5b50604051620043b5380380620043b5833981810160405281019062000037919062000380565b336040518060400160405280601381526020017f436172626f6e2043726564697420546f6b656e000000000000000000000000008152506040518060400160405280600681526020017f434152424f4e00000000000000000000000000000000000000000000000000008152508160039081620000b591906200062c565b508060049081620000c791906200062c565b505050600073ffffffffffffffffffffffffffffffffffffffff168173ffffffffffffffffffffffffffffffffffffffff16036200013f5760006040517f1e4fbdf700000000000000000000000000000000000000000000000000000000815260040162000136919062000724565b60405180910390fd5b62000150816200024d60201b60201c565b5060016006819055506200017567c4c2e7712a024abe60c01b6200031360201b60201c565b620001916770ef7592c9e5317c60c01b6200031360201b60201c565b80600760016101000a81548173ffffffffffffffffffffffffffffffffffffffff021916908373ffffffffffffffffffffffffffffffffffffffff160217905550620001ee67948aa9489c7a956d60c01b6200031360201b60201c565b6001600a60003373ffffffffffffffffffffffffffffffffffffffff1673ffffffffffffffffffffffffffffffffffffffff16815260200190815260200160002060006101000a81548160ff0219169083151502179055505062000741565b6000600560009054906101000a900473ffffffffffffffffffffffffffffffffffffffff16905081600560006101000a81548173ffffffffffffffffffffffffffffffffffffffff021916908373ffffffffffffffffffffffffffffffffffffffff1602179055508173ffffffffffffffffffffffffffffffffffffffff168173ffffffffffffffffffffffffffffffffffffffff167f8be0079c531659141344cd1fd0a4f28419497f9722a3daafe3b4186f6b6457e060405160405180910390a35050565b50565b600080fd5b600073ffffffffffffffffffffffffffffffffffffffff82169050919050565b600062000348826200031b565b9050919050565b6200035a816200033b565b81146200036657600080fd5b50565b6000815190506200037a816200034f565b92915050565b60006020828403121562000399576200039862000316565b5b6000620003a98482850162000369565b91505092915050565b600081519050919050565b7f4e487b7100000000000000000000000000000000000000000000000000000000600052604160045260246000fd5b7f4e487b7100000000000000000000000000000000000000000000000000000000600052602260045260246000fd5b600060028204905060018216806200043457607f821691505b6020821081036200044a5762000449620003ec565b5b50919050565b60008190508160005260206000209050919050565b60006020601f8301049050919050565b600082821b905092915050565b600060088302620004b47fffffffffffffffffffffffffffffffffffffffffffffffffffffffffffffffff8262000475565b620004c0868362000475565b95508019841693508086168417925050509392505050565b6000819050919050565b6000819050919050565b60006200050d620005076200050184620004d8565b620004e2565b620004d8565b9050919050565b6000819050919050565b6200052983620004ec565b62000541620005388262000514565b84845462000482565b825550505050565b600090565b6200055862000549565b620005658184846200051e565b505050565b5b818110156200058d57620005816000826200054e565b6001810190506200056b565b5050565b601f821115620005dc57620005a68162000450565b620005b18462000465565b81016020851015620005c1578190505b620005d9620005d08562000465565b8301826200056a565b50505b505050565b600082821c905092915050565b60006200060160001984600802620005e1565b1980831691505092915050565b60006200061c8383620005ee565b9150826002028217905092915050565b6200063782620003b2565b67ffffffffffffffff811115620006535762000652620003bd565b5b6200065f82546200041b565b6200066c82828562000591565b600060209050601f831160018114620006a457600084156200068f578287015190505b6200069b85826200060e565b8655506200070b565b601f198416620006b48662000450565b60005b82811015620006de57848901518255600182019150602085019450602081019050620006b7565b86831015620006fe5784890151620006fa601f891682620005ee565b8355505b6001600288020188555050505b505050505050565b6200071e816200033b565b82525050565b60006020820190506200073b600083018462000713565b92915050565b613c6480620007516000396000f3fe608060405234801561001057600080fd5b50600436106101e45760003560e01c806370a082311161010f57806395d89b41116100a2578063d59a9e3711610071578063d59a9e371461055f578063dd62ed3e1461057b578063f2fde38b146105ab578063f731fa0f146105c7576101e4565b806395d89b41146104d9578063a68fe7d6146104f7578063a9059cbb14610513578063ba4b3bbd14610543576101e4565b80638456cb59116100de5780638456cb591461047557806384af13301461047f5780638da5cb5b1461049d57806390f32695146104bb576101e4565b806370a08231146103ef578063715018a61461041f57806379cc67901461042957806381b26dda14610445576101e4565b806323b872dd116101875780633f4ba83a116101565780633f4ba83a1461038f57806342966c6814610399578063436693d5146103b55780635c975abb146103d1576101e4565b806323b872dd146103075780632d5772cb14610337578063313ce5671461035357806332cb6b0c14610371576101e4565b80630f098966116101c35780630f0989661461025357806317a483a31461028957806318160ddd146102b957806321857e16146102d7576101e4565b8062629679146101e957806306fdde0314610205578063095ea7b314610223575b600080fd5b61020360048036038101906101fe9190612a70565b6105f7565b005b61020d610715565b60405161021a9190612b2d565b60405180910390f35b61023d60048036038101906102389190612b85565b6107a7565b60405161024a9190612be0565b60405180910390f35b61026d60048036038101906102689190612c31565b6107ca565b6040516102809796959493929190612c8b565b60405180910390f35b6102a3600480360381019061029e9190612b85565b6108ce565b6040516102b09190612d01565b60405180910390f35b6102c16108ff565b6040516102ce9190612d1c565b60405180910390f35b6102f160048036038101906102ec9190612c31565b610909565b6040516102fe9190612e59565b60405180910390f35b610321600480360381019061031c9190612e7b565b610aae565b60405161032e9190612be0565b60405180910390f35b610351600480360381019061034c9190612ece565b610add565b005b61035b610dd6565b6040516103689190612f3d565b60405180910390f35b610379610ddf565b6040516103869190612d1c565b60405180910390f35b610397610dee565b005b6103b360048036038101906103ae9190612f58565b610e64565b005b6103cf60048036038101906103ca9190612a70565b610e78565b005b6103d9610f96565b6040516103e69190612be0565b60405180910390f35b61040960048036038101906104049190612a70565b610fad565b6040516104169190612d1c565b60405180910390f35b610427610ff5565b005b610443600480360381019061043e9190612b85565b611009565b005b61045f600480360381019061045a9190612a70565b611029565b60405161046c9190613034565b60405180910390f35b61047d6110fc565b005b610487611172565b60405161049491906130b5565b60405180910390f35b6104a5611198565b6040516104b291906130d0565b60405180910390f35b6104c36111c2565b6040516104d09190612d1c565b60405180910390f35b6104e16111c8565b6040516104ee9190612b2d565b60405180910390f35b610511600480360381019061050c9190612c31565b61125a565b005b61052d60048036038101906105289190612b85565b611596565b60405161053a9190612be0565b60405180910390f35b61055d60048036038101906105589190612a70565b6115b9565b005b61057960048036038101906105749190613220565b611714565b005b610595600480360381019061059091906132b7565b611eed565b6040516105a29190612d1c565b60405180910390f35b6105c560048036038101906105c09190612a70565b611f74565b005b6105e160048036038101906105dc9190612a70565b611ffa565b6040516105ee9190612be0565b60405180910390f35b61060b672e12837f2863525960c01b61201a565b61061361201d565b61062767bace0f5626277e8a60c01b61201a565b61063b67264a4f13d37a6d3d60c01b61201a565b61064f67f2afd3f33012c41e60c01b61201a565b6000600a60008373ffffffffffffffffffffffffffffffffffffffff1673ffffffffffffffffffffffffffffffffffffffff16815260200190815260200160002060006101000a81548160ff0219169083151502179055506106bb6776e42706df969b6860c01b61201a565b6106cf67d7be9a652dd7fdc960c01b61201a565b8073ffffffffffffffffffffffffffffffffffffffff167f95a4c2ae425bb769549aa1a911911ff57c17ae811ae8c8962d0b9746fcb1539760405160405180910390a250565b60606003805461072490613326565b80601f016020809104026020016040519081016040528092919081815260200182805461075090613326565b801561079d5780601f106107725761010080835404028352916020019161079d565b820191906000526020600020905b81548152906001019060200180831161078057829003601f168201915b5050505050905090565b6000806107b26120a4565b90506107bf8185856120ac565b600191505092915050565b60086020528060005260406000206000915090508060000154908060010160009054906101000a900473ffffffffffffffffffffffffffffffffffffffff169080600201549080600301549080600401805461082590613326565b80601f016020809104026020016040519081016040528092919081815260200182805461085190613326565b801561089e5780601f106108735761010080835404028352916020019161089e565b820191906000526020600020905b81548152906001019060200180831161088157829003601f168201915b5050505050908060050160009054906101000a900460ff16908060050160019054906101000a900460ff16905087565b600960205281600052604060002081815481106108ea57600080fd5b90600052602060002001600091509150505481565b6000600254905090565b6109116129a4565b61092567804f2e773e54a21860c01b61201a565b610939677619c65c6eba7e0e60c01b61201a565b61094d672f1f7a03820a965960c01b61201a565b600860008381526020019081526020016000206040518060e0016040529081600082015481526020016001820160009054906101000a900473ffffffffffffffffffffffffffffffffffffffff1673ffffffffffffffffffffffffffffffffffffffff1673ffffffffffffffffffffffffffffffffffffffff16815260200160028201548152602001600382015481526020016004820180546109ef90613326565b80601f0160208091040260200160405190810160405280929190818152602001828054610a1b90613326565b8015610a685780601f10610a3d57610100808354040283529160200191610a68565b820191906000526020600020905b815481529060010190602001808311610a4b57829003601f168201915b505050505081526020016005820160009054906101000a900460ff161515151581526020016005820160019054906101000a900460ff1615151515815250509050919050565b600080610ab96120a4565b9050610ac68582856120be565b610ad1858585612153565b60019150509392505050565b610af167f4cde717eb64321760c01b61201a565b610b0567f80092e04c69263a60c01b61201a565b610b1967d8661126c788d1b460c01b61201a565b6000600860008581526020019081526020016000209050610b4467234492255a3e314560c01b61201a565b610b5867e18e54d3419f87bc60c01b61201a565b610b6c67c4d6916462b2336c60c01b61201a565b6000801b816000015403610bb5576040517f08c379a0000000000000000000000000000000000000000000000000000000008152600401610bac906133a3565b60405180910390fd5b610bc9675127c25f0dbcacb660c01b61201a565b610bdd671f4a2489e4b2bb6a60c01b61201a565b610bf1674f2734ee08e1247160c01b61201a565b610c05674cd6e5832fc9c5d460c01b61201a565b8060050160019054906101000a900460ff1615610c57576040517f08c379a0000000000000000000000000000000000000000000000000000000008152600401610c4e9061340f565b60405180910390fd5b610c6b67fde1c1a50accfc8860c01b61201a565b610c7f67888cda474a0d815160c01b61201a565b610c9367b901571bdfec892160c01b61201a565b610ca767f7b5bf02fc1e5c6c60c01b61201a565b8060020154821115610cee576040517f08c379a0000000000000000000000000000000000000000000000000000000008152600401610ce59061347b565b60405180910390fd5b610d0267046cc3b3009f123160c01b61201a565b610d16671f7092935fb6240260c01b61201a565b610d2a675730e7530d7b75c460c01b61201a565b610d3e670712ca742a66064e60c01b61201a565b81610d4833610fad565b1015610d89576040517f08c379a0000000000000000000000000000000000000000000000000000000008152600401610d80906134e7565b60405180910390fd5b610d9d67e9557aa00b7cc0c960c01b61201a565b610db167dbfbd05dbe44fa3b60c01b61201a565b610dc567e1fcfad28df80ba860c01b61201a565b610dd0338484612153565b50505050565b60006012905090565b6a084595161401484a00000081565b610e026753431290ee68bb2060c01b61201a565b610e0a61201d565b610e1e67d4136aa24f5c565860c01b61201a565b610e3267fc17067205756f6360c01b61201a565b610e46675466425736841fe260c01b61201a565b610e5a670cb9b43ab0daf60f60c01b61201a565b610e62612247565b565b610e75610e6f6120a4565b826122aa565b50565b610e8c679f826b87de12201e60c01b61201a565b610e9461201d565b610ea867ffdd4b3160aec1c660c01b61201a565b610ebc672a06c7f20ef1068a60c01b61201a565b610ed067f53e38e2f735e15160c01b61201a565b6001600a60008373ffffffffffffffffffffffffffffffffffffffff1673ffffffffffffffffffffffffffffffffffffffff16815260200190815260200160002060006101000a81548160ff021916908315150217905550610f3c67b814192ab05a960560c01b61201a565b610f5067f2a3e9267a7070b460c01b61201a565b8073ffffffffffffffffffffffffffffffffffffffff167f8b4006ca14f23d4e7aa8d120d1ab7c3761d650eefac1a5d6732dbea94b54ea2460405160405180910390a250565b6000600760009054906101000a900460ff16905090565b60008060008373ffffffffffffffffffffffffffffffffffffffff1673ffffffffffffffffffffffffffffffffffffffff168152602001908152602001600020549050919050565b610ffd61201d565b611007600061232c565b565b61101b826110156120a4565b836120be565b61102582826122aa565b5050565b606061103f67753c6892ba1ac14e60c01b61201a565b611053672e56f75bb602c37f60c01b61201a565b61106767307a7b7795f72b3a60c01b61201a565b600960008373ffffffffffffffffffffffffffffffffffffffff1673ffffffffffffffffffffffffffffffffffffffff1681526020019081526020016000208054806020026020016040519081016040528092919081815260200182805480156110f057602002820191906000526020600020905b8154815260200190600101908083116110dc575b50505050509050919050565b611110671a722fe2cff6f91260c01b61201a565b61111861201d565b61112c67d5023a89c0acbb1960c01b61201a565b61114067e96542262718742860c01b61201a565b611154679f4933598ebbf9f960c01b61201a565b611168672daf297d2498435860c01b61201a565b6111706123f2565b565b600760019054906101000a900473ffffffffffffffffffffffffffffffffffffffff1681565b6000600560009054906101000a900473ffffffffffffffffffffffffffffffffffffffff16905090565b6107e481565b6060600480546111d790613326565b80601f016020809104026020016040519081016040528092919081815260200182805461120390613326565b80156112505780601f1061122557610100808354040283529160200191611250565b820191906000526020600020905b81548152906001019060200180831161123357829003601f168201915b5050505050905090565b61126e67bc9a2fea19cf989c60c01b61201a565b611276612455565b61128a677bb2d65ea0e3b17960c01b61201a565b61129e679476a95ca99ba41660c01b61201a565b6112b26744eefcbf3aed7dc260c01b61201a565b6112c6671e649576cd7e247160c01b61201a565b60006008600083815260200190815260200160002090506112f167ea0c71b5676dec4f60c01b61201a565b61130567665f1463c24f25fc60c01b61201a565b611319676248fffac255bba160c01b61201a565b6000801b816000015403611362576040517f08c379a0000000000000000000000000000000000000000000000000000000008152600401611359906133a3565b60405180910390fd5b61137667f719daf4196ecb9c60c01b61201a565b61138a67c7a42ec356afc12860c01b61201a565b61139e67221911fe46a4d15c60c01b61201a565b6113b267626634dc36066a4760c01b61201a565b8060050160019054906101000a900460ff1615611404576040517f08c379a00000000000000000000000000000000000000000000000000000000081526004016113fb90613553565b60405180910390fd5b61141867a9d91e155464ae1260c01b61201a565b61142c671d2f84ef56913e2260c01b61201a565b6114406762ddfe691d123d4760c01b61201a565b61145467cb41a71ce039460a60c01b61201a565b806002015461146233610fad565b10156114a3576040517f08c379a000000000000000000000000000000000000000000000000000000000815260040161149a906134e7565b60405180910390fd5b6114b76711028097fc02042260c01b61201a565b6114cb67546c834591263ea860c01b61201a565b60018160050160016101000a81548160ff0219169083151502179055506114fc671ced223f3d0b4eec60c01b61201a565b61151067233453f5da3c986060c01b61201a565b61151e3382600201546122aa565b61153267b67858a1ed038d7860c01b61201a565b611546674e31537c9abef4b560c01b61201a565b3373ffffffffffffffffffffffffffffffffffffffff16827f2a700a09a1dc95afb6f6632f0d60d282daa4c227b9c01e96413da15c33b672ab60405160405180910390a35061159361249b565b50565b6000806115a16120a4565b90506115ae818585612153565b600191505092915050565b6115cd67022386d3d74ddef060c01b61201a565b6115d561201d565b6115e9671cb215e347d1cbe460c01b61201a565b6115fd67a38f87b75653f33860c01b61201a565b6116116762cc0a617d8c2e4d60c01b61201a565b611625677ee3e7b379eeac8260c01b61201a565b611639676dd928fab7d0a41a60c01b61201a565b600073ffffffffffffffffffffffffffffffffffffffff168173ffffffffffffffffffffffffffffffffffffffff16036116a8576040517f08c379a000000000000000000000000000000000000000000000000000000000815260040161169f906135bf565b60405180910390fd5b6116bc679f3cb7a564930b9f60c01b61201a565b6116d0677f026c1279f8438d60c01b61201a565b80600760016101000a81548173ffffffffffffffffffffffffffffffffffffffff021916908373ffffffffffffffffffffffffffffffffffffffff16021790555050565b611728676de231a86589d64a60c01b61201a565b61173c67fa3a62bea035b6f460c01b61201a565b6117506701ba7b758dc250c860c01b61201a565b611764673eb2ad3b00c0fb8b60c01b61201a565b61177867d31eb3741d52d40560c01b61201a565b600a60003373ffffffffffffffffffffffffffffffffffffffff1673ffffffffffffffffffffffffffffffffffffffff16815260200190815260200160002060009054906101000a900460ff16611804576040517f08c379a00000000000000000000000000000000000000000000000000000000081526004016117fb9061362b565b60405180910390fd5b61181867bf8fe443d66f9e0660c01b61201a565b61182c679313163cfe0c78e960c01b61201a565b611840674bc5b2add9d96c8f60c01b61201a565b611854674a2033565393e08260c01b61201a565b61185c6124a5565b6118706798961602add3ac1160c01b61201a565b61188467fb5f5d6e5aeff64560c01b61201a565b61189867688b3d524b4441f060c01b61201a565b6118ac67f53d4633ed72c34860c01b61201a565b6118c067b4e850d31f27e65d60c01b61201a565b6000801b60086000878152602001908152602001600020600001541461191b576040517f08c379a000000000000000000000000000000000000000000000000000000000815260040161191290613697565b60405180910390fd5b61192f676eee522479a8aba160c01b61201a565b61194367c2ec294aab9e30fe60c01b61201a565b61195767a91c23b227a5fc3660c01b61201a565b61196b6734e307107c0432b660c01b61201a565b6107e48210156119b0576040517f08c379a00000000000000000000000000000000000000000000000000000000081526004016119a790613703565b60405180910390fd5b6119c4674282341b0aada79960c01b61201a565b6119d8673b7da34f1c26ae2760c01b61201a565b6119ec67b6512b6e7effd44f60c01b61201a565b611a006784ce2090fcd6361660c01b61201a565b6107b26301e1338042611a139190613781565b611a1d91906137b2565b821115611a5f576040517f08c379a0000000000000000000000000000000000000000000000000000000008152600401611a5690613832565b60405180910390fd5b611a736788face20df5cebc360c01b61201a565b611a8767eb4394ad6fdb3b9960c01b61201a565b611a9b67b291ef748109778960c01b61201a565b611aaf675f6ddf05ea3959d360c01b61201a565b6a084595161401484a00000083611ac46108ff565b611ace91906137b2565b1115611b0f576040517f08c379a0000000000000000000000000000000000000000000000000000000008152600401611b069061389e565b60405180910390fd5b611b23670dfd48285554a20360c01b61201a565b611b3767df5cac1205fa2b8f60c01b61201a565b611b4b67c7cc9a13e47ee4d560c01b61201a565b6000600760019054906101000a900473ffffffffffffffffffffffffffffffffffffffff1673ffffffffffffffffffffffffffffffffffffffff1662e3d1d3876040518263ffffffff1660e01b8152600401611ba79190612d01565b602060405180830381865afa158015611bc4573d6000803e3d6000fd5b505050506040513d601f19601f82011682018060405250810190611be891906138ea565b9050611bfe67b87bea884216317360c01b61201a565b611c1267be51f8dbabd61dae60c01b61201a565b611c26677a6aed99aee2e9b660c01b61201a565b80611c66576040517f08c379a0000000000000000000000000000000000000000000000000000000008152600401611c5d90613963565b60405180910390fd5b611c7a67d7fa2bd2b562f4b760c01b61201a565b611c8e671ee1ec2b9cfbe5eb60c01b61201a565b6040518060e001604052808781526020013373ffffffffffffffffffffffffffffffffffffffff16815260200185815260200184815260200183815260200160011515815260200160001515815250600860008881526020019081526020016000206000820151816000015560208201518160010160006101000a81548173ffffffffffffffffffffffffffffffffffffffff021916908373ffffffffffffffffffffffffffffffffffffffff16021790555060408201518160020155606082015181600301556080820151816004019081611d6a9190613b25565b5060a08201518160050160006101000a81548160ff02191690831515021790555060c08201518160050160016101000a81548160ff021916908315150217905550905050611dc267461539b5cd2f670260c01b61201a565b611dd6673ea22d1879dac34460c01b61201a565b600960008673ffffffffffffffffffffffffffffffffffffffff1673ffffffffffffffffffffffffffffffffffffffff168152602001908152602001600020869080600181540180825580915050600190039060005260206000200160009091909190915055611e50670c2d1b001c1d5e9160c01b61201a565b611e6467e976d5b11db70a6f60c01b61201a565b611e6e85856124e6565b611e82678ffd08e4f12392f760c01b61201a565b611e96675f6ca18f40a1f74b60c01b61201a565b3373ffffffffffffffffffffffffffffffffffffffff16867fd11dcb3d5709ae655bfa07dbd427474419feea0af0013e21a194f97be43a65af86604051611edd9190612d1c565b60405180910390a3505050505050565b6000600160008473ffffffffffffffffffffffffffffffffffffffff1673ffffffffffffffffffffffffffffffffffffffff16815260200190815260200160002060008373ffffffffffffffffffffffffffffffffffffffff1673ffffffffffffffffffffffffffffffffffffffff16815260200190815260200160002054905092915050565b611f7c61201d565b600073ffffffffffffffffffffffffffffffffffffffff168173ffffffffffffffffffffffffffffffffffffffff1603611fee5760006040517f1e4fbdf7000000000000000000000000000000000000000000000000000000008152600401611fe591906130d0565b60405180910390fd5b611ff78161232c565b50565b600a6020528060005260406000206000915054906101000a900460ff1681565b50565b6120256120a4565b73ffffffffffffffffffffffffffffffffffffffff16612043611198565b73ffffffffffffffffffffffffffffffffffffffff16146120a2576120666120a4565b6040517f118cdaa700000000000000000000000000000000000000000000000000000000815260040161209991906130d0565b60405180910390fd5b565b600033905090565b6120b98383836001612568565b505050565b60006120ca8484611eed565b90507fffffffffffffffffffffffffffffffffffffffffffffffffffffffffffffffff81101561214d578181101561213d578281836040517ffb8f41b200000000000000000000000000000000000000000000000000000000815260040161213493929190613bf7565b60405180910390fd5b61214c84848484036000612568565b5b50505050565b600073ffffffffffffffffffffffffffffffffffffffff168373ffffffffffffffffffffffffffffffffffffffff16036121c55760006040517f96c6fd1e0000000000000000000000000000000000000000000000000000000081526004016121bc91906130d0565b60405180910390fd5b600073ffffffffffffffffffffffffffffffffffffffff168273ffffffffffffffffffffffffffffffffffffffff16036122375760006040517fec442f0500000000000000000000000000000000000000000000000000000000815260040161222e91906130d0565b60405180910390fd5b61224283838361273f565b505050565b61224f612964565b6000600760006101000a81548160ff0219169083151502179055507f5db9ee0a495bf2e6ff9c91a7834c1ba4fdd244a5e8aa4e537bd38aeae4b073aa6122936120a4565b6040516122a091906130d0565b60405180910390a1565b600073ffffffffffffffffffffffffffffffffffffffff168273ffffffffffffffffffffffffffffffffffffffff160361231c5760006040517f96c6fd1e00000000000000000000000000000000000000000000000000000000815260040161231391906130d0565b60405180910390fd5b6123288260008361273f565b5050565b6000600560009054906101000a900473ffffffffffffffffffffffffffffffffffffffff16905081600560006101000a81548173ffffffffffffffffffffffffffffffffffffffff021916908373ffffffffffffffffffffffffffffffffffffffff1602179055508173ffffffffffffffffffffffffffffffffffffffff168173ffffffffffffffffffffffffffffffffffffffff167f8be0079c531659141344cd1fd0a4f28419497f9722a3daafe3b4186f6b6457e060405160405180910390a35050565b6123fa6124a5565b6001600760006101000a81548160ff0219169083151502179055507f62e78cea01bee320cd4e420270b5ea74000d11b0c9f74754ebdbfc544b05a25861243e6120a4565b60405161244b91906130d0565b60405180910390a1565b600260065403612491576040517f3ee5aeb500000000000000000000000000000000000000000000000000000000815260040160405180910390fd5b6002600681905550565b6001600681905550565b6124ad610f96565b156124e4576040517fd93c066500000000000000000000000000000000000000000000000000000000815260040160405180910390fd5b565b600073ffffffffffffffffffffffffffffffffffffffff168273ffffffffffffffffffffffffffffffffffffffff16036125585760006040517fec442f0500000000000000000000000000000000000000000000000000000000815260040161254f91906130d0565b60405180910390fd5b6125646000838361273f565b5050565b600073ffffffffffffffffffffffffffffffffffffffff168473ffffffffffffffffffffffffffffffffffffffff16036125da5760006040517fe602df050000000000000000000000000000000000000000000000000000000081526004016125d191906130d0565b60405180910390fd5b600073ffffffffffffffffffffffffffffffffffffffff168373ffffffffffffffffffffffffffffffffffffffff160361264c5760006040517f94280d6200000000000000000000000000000000000000000000000000000000815260040161264391906130d0565b60405180910390fd5b81600160008673ffffffffffffffffffffffffffffffffffffffff1673ffffffffffffffffffffffffffffffffffffffff16815260200190815260200160002060008573ffffffffffffffffffffffffffffffffffffffff1673ffffffffffffffffffffffffffffffffffffffff168152602001908152602001600020819055508015612739578273ffffffffffffffffffffffffffffffffffffffff168473ffffffffffffffffffffffffffffffffffffffff167f8c5be1e5ebec7d5bd14f71427d1e84f3dd0314c0f7b2291e5b200ac8c7c3b925846040516127309190612d1c565b60405180910390a35b50505050565b600073ffffffffffffffffffffffffffffffffffffffff168373ffffffffffffffffffffffffffffffffffffffff160361279157806002600082825461278591906137b2565b92505081905550612864565b60008060008573ffffffffffffffffffffffffffffffffffffffff1673ffffffffffffffffffffffffffffffffffffffff1681526020019081526020016000205490508181101561281d578381836040517fe450d38c00000000000000000000000000000000000000000000000000000000815260040161281493929190613bf7565b60405180910390fd5b8181036000808673ffffffffffffffffffffffffffffffffffffffff1673ffffffffffffffffffffffffffffffffffffffff16815260200190815260200160002081905550505b600073ffffffffffffffffffffffffffffffffffffffff168273ffffffffffffffffffffffffffffffffffffffff16036128ad57806002600082825403925050819055506128fa565b806000808473ffffffffffffffffffffffffffffffffffffffff1673ffffffffffffffffffffffffffffffffffffffff168152602001908152602001600020600082825401925050819055505b8173ffffffffffffffffffffffffffffffffffffffff168373ffffffffffffffffffffffffffffffffffffffff167fddf252ad1be2c89b69c2b068fc378daa952ba7f163c4a11628f55a4df523b3ef836040516129579190612d1c565b60405180910390a3505050565b61296c610f96565b6129a2576040517f8dfc202b00000000000000000000000000000000000000000000000000000000815260040160405180910390fd5b565b6040518060e0016040528060008019168152602001600073ffffffffffffffffffffffffffffffffffffffff1681526020016000815260200160008152602001606081526020016000151581526020016000151581525090565b6000604051905090565b600080fd5b600080fd5b600073ffffffffffffffffffffffffffffffffffffffff82169050919050565b6000612a3d82612a12565b9050919050565b612a4d81612a32565b8114612a5857600080fd5b50565b600081359050612a6a81612a44565b92915050565b600060208284031215612a8657612a85612a08565b5b6000612a9484828501612a5b565b91505092915050565b600081519050919050565b600082825260208201905092915050565b60005b83811015612ad7578082015181840152602081019050612abc565b60008484015250505050565b6000601f19601f8301169050919050565b6000612aff82612a9d565b612b098185612aa8565b9350612b19818560208601612ab9565b612b2281612ae3565b840191505092915050565b60006020820190508181036000830152612b478184612af4565b905092915050565b6000819050919050565b612b6281612b4f565b8114612b6d57600080fd5b50565b600081359050612b7f81612b59565b92915050565b60008060408385031215612b9c57612b9b612a08565b5b6000612baa85828601612a5b565b9250506020612bbb85828601612b70565b9150509250929050565b60008115159050919050565b612bda81612bc5565b82525050565b6000602082019050612bf56000830184612bd1565b92915050565b6000819050919050565b612c0e81612bfb565b8114612c1957600080fd5b50565b600081359050612c2b81612c05565b92915050565b600060208284031215612c4757612c46612a08565b5b6000612c5584828501612c1c565b91505092915050565b612c6781612bfb565b82525050565b612c7681612a32565b82525050565b612c8581612b4f565b82525050565b600060e082019050612ca0600083018a612c5e565b612cad6020830189612c6d565b612cba6040830188612c7c565b612cc76060830187612c7c565b8181036080830152612cd98186612af4565b9050612ce860a0830185612bd1565b612cf560c0830184612bd1565b98975050505050505050565b6000602082019050612d166000830184612c5e565b92915050565b6000602082019050612d316000830184612c7c565b92915050565b612d4081612bfb565b82525050565b612d4f81612a32565b82525050565b612d5e81612b4f565b82525050565b600082825260208201905092915050565b6000612d8082612a9d565b612d8a8185612d64565b9350612d9a818560208601612ab9565b612da381612ae3565b840191505092915050565b612db781612bc5565b82525050565b600060e083016000830151612dd56000860182612d37565b506020830151612de86020860182612d46565b506040830151612dfb6040860182612d55565b506060830151612e0e6060860182612d55565b5060808301518482036080860152612e268282612d75565b91505060a0830151612e3b60a0860182612dae565b5060c0830151612e4e60c0860182612dae565b508091505092915050565b60006020820190508181036000830152612e738184612dbd565b905092915050565b600080600060608486031215612e9457612e93612a08565b5b6000612ea286828701612a5b565b9350506020612eb386828701612a5b565b9250506040612ec486828701612b70565b9150509250925092565b600080600060608486031215612ee757612ee6612a08565b5b6000612ef586828701612c1c565b9350506020612f0686828701612a5b565b9250506040612f1786828701612b70565b9150509250925092565b600060ff82169050919050565b612f3781612f21565b82525050565b6000602082019050612f526000830184612f2e565b92915050565b600060208284031215612f6e57612f6d612a08565b5b6000612f7c84828501612b70565b91505092915050565b600081519050919050565b600082825260208201905092915050565b6000819050602082019050919050565b6000612fbd8383612d37565b60208301905092915050565b6000602082019050919050565b6000612fe182612f85565b612feb8185612f90565b9350612ff683612fa1565b8060005b8381101561302757815161300e8882612fb1565b975061301983612fc9565b925050600181019050612ffa565b5085935050505092915050565b6000602082019050818103600083015261304e8184612fd6565b905092915050565b6000819050919050565b600061307b61307661307184612a12565b613056565b612a12565b9050919050565b600061308d82613060565b9050919050565b600061309f82613082565b9050919050565b6130af81613094565b82525050565b60006020820190506130ca60008301846130a6565b92915050565b60006020820190506130e56000830184612c6d565b92915050565b600080fd5b600080fd5b7f4e487b7100000000000000000000000000000000000000000000000000000000600052604160045260246000fd5b61312d82612ae3565b810181811067ffffffffffffffff8211171561314c5761314b6130f5565b5b80604052505050565b600061315f6129fe565b905061316b8282613124565b919050565b600067ffffffffffffffff82111561318b5761318a6130f5565b5b61319482612ae3565b9050602081019050919050565b82818337600083830152505050565b60006131c36131be84613170565b613155565b9050828152602081018484840111156131df576131de6130f0565b5b6131ea8482856131a1565b509392505050565b600082601f830112613207576132066130eb565b5b81356132178482602086016131b0565b91505092915050565b600080600080600060a0868803121561323c5761323b612a08565b5b600061324a88828901612c1c565b955050602061325b88828901612a5b565b945050604061326c88828901612b70565b935050606061327d88828901612b70565b925050608086013567ffffffffffffffff81111561329e5761329d612a0d565b5b6132aa888289016131f2565b9150509295509295909350565b600080604083850312156132ce576132cd612a08565b5b60006132dc85828601612a5b565b92505060206132ed85828601612a5b565b9150509250929050565b7f4e487b7100000000000000000000000000000000000000000000000000000000600052602260045260246000fd5b6000600282049050600182168061333e57607f821691505b602082108103613351576133506132f7565b5b50919050565b7f43726564697420646f6573206e6f742065786973740000000000000000000000600082015250565b600061338d601583612aa8565b915061339882613357565b602082019050919050565b600060208201905081810360008301526133bc81613380565b9050919050565b7f4372656469742069732072657469726564000000000000000000000000000000600082015250565b60006133f9601183612aa8565b9150613404826133c3565b602082019050919050565b60006020820190508181036000830152613428816133ec565b9050919050565b7f416d6f756e742065786365656473206372656469740000000000000000000000600082015250565b6000613465601583612aa8565b91506134708261342f565b602082019050919050565b6000602082019050818103600083015261349481613458565b9050919050565b7f496e73756666696369656e742062616c616e6365000000000000000000000000600082015250565b60006134d1601483612aa8565b91506134dc8261349b565b602082019050919050565b60006020820190508181036000830152613500816134c4565b9050919050565b7f43726564697420616c7265616479207265746972656400000000000000000000600082015250565b600061353d601683612aa8565b915061354882613507565b602082019050919050565b6000602082019050818103600083015261356c81613530565b9050919050565b7f496e76616c6964206f7261636c65206164647265737300000000000000000000600082015250565b60006135a9601683612aa8565b91506135b482613573565b602082019050919050565b600060208201905081810360008301526135d88161359c565b9050919050565b7f4e6f7420617574686f72697a6564206973737565720000000000000000000000600082015250565b6000613615601583612aa8565b9150613620826135df565b602082019050919050565b6000602082019050818103600083015261364481613608565b9050919050565b7f43726564697420616c7265616479206578697374730000000000000000000000600082015250565b6000613681601583612aa8565b915061368c8261364b565b602082019050919050565b600060208201905081810360008301526136b081613674565b9050919050565b7f56696e7461676520746f6f206f6c640000000000000000000000000000000000600082015250565b60006136ed600f83612aa8565b91506136f8826136b7565b602082019050919050565b6000602082019050818103600083015261371c816136e0565b9050919050565b7f4e487b7100000000000000000000000000000000000000000000000000000000600052601260045260246000fd5b7f4e487b7100000000000000000000000000000000000000000000000000000000600052601160045260246000fd5b600061378c82612b4f565b915061379783612b4f565b9250826137a7576137a6613723565b5b828204905092915050565b60006137bd82612b4f565b91506137c883612b4f565b92508282019050808211156137e0576137df613752565b5b92915050565b7f4675747572652076696e74616765206e6f7420616c6c6f776564000000000000600082015250565b600061381c601a83612aa8565b9150613827826137e6565b602082019050919050565b6000602082019050818103600083015261384b8161380f565b9050919050565b7f4d617820737570706c7920657863656564656400000000000000000000000000600082015250565b6000613888601383612aa8565b915061389382613852565b602082019050919050565b600060208201905081810360008301526138b78161387b565b9050919050565b6138c781612bc5565b81146138d257600080fd5b50565b6000815190506138e4816138be565b92915050565b600060208284031215613900576138ff612a08565b5b600061390e848285016138d5565b91505092915050565b7f4f7261636c6520766572696669636174696f6e206661696c6564000000000000600082015250565b600061394d601a83612aa8565b915061395882613917565b602082019050919050565b6000602082019050818103600083015261397c81613940565b9050919050565b60008190508160005260206000209050919050565b60006020601f8301049050919050565b600082821b905092915050565b6000600883026139e57fffffffffffffffffffffffffffffffffffffffffffffffffffffffffffffffff826139a8565b6139ef86836139a8565b95508019841693508086168417925050509392505050565b6000613a22613a1d613a1884612b4f565b613056565b612b4f565b9050919050565b6000819050919050565b613a3c83613a07565b613a50613a4882613a29565b8484546139b5565b825550505050565b600090565b613a65613a58565b613a70818484613a33565b505050565b5b81811015613a9457613a89600082613a5d565b600181019050613a76565b5050565b601f821115613ad957613aaa81613983565b613ab384613998565b81016020851015613ac2578190505b613ad6613ace85613998565b830182613a75565b50505b505050565b600082821c905092915050565b6000613afc60001984600802613ade565b1980831691505092915050565b6000613b158383613aeb565b9150826002028217905092915050565b613b2e82612a9d565b67ffffffffffffffff811115613b4757613b466130f5565b5b613b518254613326565b613b5c828285613a98565b600060209050601f831160018114613b8f5760008415613b7d578287015190505b613b878582613b09565b865550613bef565b601f198416613b9d86613983565b60005b82811015613bc557848901518255600182019150602085019450602081019050613ba0565b86831015613be25784890151613bde601f891682613aeb565b8355505b6001600288020188555050505b505050505050565b6000606082019050613c0c6000830186612c6d565b613c196020830185612c7c565b613c266040830184612c7c565b94935050505056fea2646970667358221220f9d6466427087a10433b5482dff70d020855aef12f63c23bb1209e194228a2f464736f6c63430008180033",
  "linkReferences": {},
  "deployedLinkReferences": {}
}