{
  "_format": "hh-sol-artifact-1",
  "contractName": "NFTStaking",
  "sourceName": "contracts/NFTStaking.sol",
  "abi": [
    {
      "inputs": [
        {
          "internalType": "address",
          "name": "_nftContract",
          "type": "address"
        }
      ],
      "stateMutability": "nonpayable",
      "type": "constructor"
    },
    {
      "inputs": [],
      "name": "ReentrancyGuardReentrantCall",
      "type": "error"
    },
    {
      "inputs": [],
      "name": "claimRewards",
      "outputs": [],
      "stateMutability": "nonpayable",
      "type": "function"
    },
    {
      "inputs": [],
      "name": "nftContract",
      "outputs": [
        {
          "internalType": "contract IERC721Enumerable",
          "name": "",
          "type": "address"
        }
      ],
      "stateMutability": "view",
      "type": "function"
    },
    {
      "inputs": [],
      "name": "rewardRate",
      "outputs": [
        {
          "internalType": "uint256",
          "name": "",
          "type": "uint256"
        }
      ],
      "stateMutability": "view",
      "type": "function"
    },
    {
      "inputs": [
        {
          "internalType": "address",
          "name": "",
          "type": "address"
        }
      ],
      "name": "rewards",
      "outputs": [
        {
          "internalType": "uint256",
          "name": "",
          "type": "uint256"
        }
      ],
      "stateMutability": "view",
      "type": "function"
    },
    {
      "inputs": [
        {
          "internalType": "uint256",
          "name": "tokenId",
          "type": "uint256"
        }
      ],
      "name": "stake",
      "outputs": [],
      "stateMutability": "nonpayable",
      "type": "function"
    },
    {
      "inputs": [
        {
          "internalType": "address",
          "name": "",
          "type": "address"
        },
        {
          "internalType": "uint256",
          "name": "",
          "type": "uint256"
        }
      ],
      "name": "stakes",
      "outputs": [
        {
          "internalType": "uint256",
          "name": "tokenId",
          "type": "uint256"
        },
        {
          "internalType": "uint256",
          "name": "startTime",
          "type": "uint256"
        }
      ],
      "stateMutability": "view",
      "type": "function"
    },
    {
      "inputs": [
        {
          "internalType": "uint256",
          "name": "",
          "type": "uint256"
        }
      ],
      "name": "tokenOwner",
      "outputs": [
        {
          "internalType": "address",
          "name": "",
          "type": "address"
        }
      ],
      "stateMutability": "view",
      "type": "function"
    },
    {
      "inputs": [
        {
          "internalType": "uint256",
          "name": "tokenId",
          "type": "uint256"
        }
      ],
      "name": "unstake",
      "outputs": [],
      "stateMutability": "nonpayable",
      "type": "function"
    },
    {
      "stateMutability": "payable",
      "type": "receive"
    }
  ],
  "bytecode": "0x60a0604052670de0b6b3a76400006001553480156200001d57600080fd5b506040516200158d3803806200158d83398181016040528101906200004391906200012b565b600160008190555062000067677cae8c4068d2256f60c01b620000be60201b60201c565b62000083672a69ceb7e8de7d0960c01b620000be60201b60201c565b8073ffffffffffffffffffffffffffffffffffffffff1660808173ffffffffffffffffffffffffffffffffffffffff1681525050506200015d565b50565b600080fd5b600073ffffffffffffffffffffffffffffffffffffffff82169050919050565b6000620000f382620000c6565b9050919050565b6200010581620000e6565b81146200011157600080fd5b50565b6000815190506200012581620000fa565b92915050565b600060208284031215620001445762000143620000c1565b5b6000620001548482850162000114565b91505092915050565b608051611406620001876000396000818161071d01528181610af40152610caf01526114066000f3fe60806040526004361061007f5760003560e01c8063584b62a11161004e578063584b62a1146101455780637b0a47ee14610183578063a694fc3a146101ae578063d56d229d146101d757610086565b80630700037d1461008b5780631caaa487146100c85780632e17de7814610105578063372500ab1461012e57610086565b3661008657005b600080fd5b34801561009757600080fd5b506100b260048036038101906100ad9190610fb2565b610202565b6040516100bf9190610ff8565b60405180910390f35b3480156100d457600080fd5b506100ef60048036038101906100ea919061103f565b61021a565b6040516100fc919061107b565b60405180910390f35b34801561011157600080fd5b5061012c6004803603810190610127919061103f565b61024d565b005b34801561013a57600080fd5b506101436107b7565b005b34801561015157600080fd5b5061016c60048036038101906101679190611096565b610a3f565b60405161017a9291906110d6565b60405180910390f35b34801561018f57600080fd5b50610198610a80565b6040516101a59190610ff8565b60405180910390f35b3480156101ba57600080fd5b506101d560048036038101906101d0919061103f565b610a86565b005b3480156101e357600080fd5b506101ec610cad565b6040516101f9919061115e565b60405180910390f35b60046020528060005260406000206000915090505481565b60036020528060005260406000206000915054906101000a900473ffffffffffffffffffffffffffffffffffffffff1681565b61026167beeb4648a87a68a160c01b610cd1565b610269610cd4565b61027d67587c14dca1518c3f60c01b610cd1565b610291679b4fc5f045a79b8260c01b610cd1565b6102a567c673c570b2bf140d60c01b610cd1565b6102b967e032e3eaaa64593c60c01b610cd1565b6102cd67058a2dfc5d73060760c01b610cd1565b3373ffffffffffffffffffffffffffffffffffffffff166003600083815260200190815260200160002060009054906101000a900473ffffffffffffffffffffffffffffffffffffffff1673ffffffffffffffffffffffffffffffffffffffff161461036e576040517f08c379a0000000000000000000000000000000000000000000000000000000008152600401610365906111d6565b60405180910390fd5b61038267a45d22b6afd5ace760c01b610cd1565b61039667a7e6717548c2329d60c01b610cd1565b6103aa67afae8e50644fe50160c01b610cd1565b60006103c067073dc0ba222c4d1260c01b610cd1565b6103d467c536db3498fc38af60c01b610cd1565b6000600260003373ffffffffffffffffffffffffffffffffffffffff1673ffffffffffffffffffffffffffffffffffffffff168152602001908152602001600020905061042b67b2efef41e49592ab60c01b610cd1565b61043f672126ce0ec18c935b60c01b610cd1565b60005b81805490508110156105065761046267fac01e9d653c7dd860c01b610cd1565b610476675395e44f19939de460c01b610cd1565b8382828154811061048a576104896111f6565b5b906000526020600020906002020160000154036104e5576104b567ed8837f495eea87660c01b610cd1565b6104c967b5b4ba32742cacb960c01b610cd1565b8092506104e06721338b960dee135860c01b610cd1565b610506565b6104f96717a7e191b00bec1360c01b610cd1565b8080600101915050610442565b5061051b6701731008871c032c60c01b610cd1565b600154818381548110610531576105306111f6565b5b9060005260206000209060020201600101544261054e9190611254565b6105589190611288565b600460003373ffffffffffffffffffffffffffffffffffffffff1673ffffffffffffffffffffffffffffffffffffffff16815260200190815260200160002060008282546105a691906112ca565b925050819055506105c1675680764e6e93bf0460c01b610cd1565b80600182805490506105d39190611254565b815481106105e4576105e36111f6565b5b9060005260206000209060020201818381548110610605576106046111f6565b5b9060005260206000209060020201600082015481600001556001820154816001015590505061063e67c701098c3243149060c01b610cd1565b61065267947f08aaa6398fcf60c01b610cd1565b80805480610663576106626112fe565b5b60019003818190600052602060002090600202016000808201600090556001820160009055505090556106a067db7e485c4d7fc3e360c01b610cd1565b60006003600085815260200190815260200160002060006101000a81548173ffffffffffffffffffffffffffffffffffffffff021916908373ffffffffffffffffffffffffffffffffffffffff16021790555061070767e91f755d4cb8ceee60c01b610cd1565b61071b674ad817266d7875a960c01b610cd1565b7f000000000000000000000000000000000000000000000000000000000000000073ffffffffffffffffffffffffffffffffffffffff166323b872dd3033866040518463ffffffff1660e01b81526004016107789392919061132d565b600060405180830381600087803b15801561079257600080fd5b505af11580156107a6573d6000803e3d6000fd5b5050505050506107b4610d1a565b50565b6107cb67570b179efa7a12bf60c01b610cd1565b6107d3610cd4565b6107e7678dea762befe4d28a60c01b610cd1565b6107fb672c3d6e99dc017a7960c01b610cd1565b61080f674e641a809829c05a60c01b610cd1565b6108236739ce7ef12f961fa460c01b610cd1565b6000600460003373ffffffffffffffffffffffffffffffffffffffff1673ffffffffffffffffffffffffffffffffffffffff1681526020019081526020016000205461086e33610d24565b61087891906112ca565b905061088e672002938b3381ea3060c01b610cd1565b6108a2673752df42527634c860c01b610cd1565b6108b667d9bff5c28e3016b060c01b610cd1565b600081116108f9576040517f08c379a00000000000000000000000000000000000000000000000000000000081526004016108f0906113b0565b60405180910390fd5b61090d678629420266a958a160c01b610cd1565b61092167375ff0a1d7d87d7960c01b610cd1565b600260003373ffffffffffffffffffffffffffffffffffffffff1673ffffffffffffffffffffffffffffffffffffffff168152602001908152602001600020600061096c9190610f04565b6109806741989b3868ead22360c01b610cd1565b6000600460003373ffffffffffffffffffffffffffffffffffffffff1673ffffffffffffffffffffffffffffffffffffffff168152602001908152602001600020819055506109d967ac6ce312af35c72160c01b610cd1565b6109ed677aec1e887861da6860c01b610cd1565b3373ffffffffffffffffffffffffffffffffffffffff166108fc829081150290604051600060405180830381858888f19350505050158015610a33573d6000803e3d6000fd5b5050610a3d610d1a565b565b60026020528160005260406000208181548110610a5b57600080fd5b9060005260206000209060020201600091509150508060000154908060010154905082565b60015481565b610a9a6727ad3c5ff04d198760c01b610cd1565b610aa2610cd4565b610ab667c9947b1564ace9de60c01b610cd1565b610aca67fcac0603c182a76760c01b610cd1565b610ade672404d8b1b47e09fd60c01b610cd1565b610af267da7c6fd3d8cf30bd60c01b610cd1565b7f000000000000000000000000000000000000000000000000000000000000000073ffffffffffffffffffffffffffffffffffffffff166323b872dd3330846040518463ffffffff1660e01b8152600401610b4f9392919061132d565b600060405180830381600087803b158015610b6957600080fd5b505af1158015610b7d573d6000803e3d6000fd5b50505050610b95670ca1409b88d8847760c01b610cd1565b610ba96775c58a5076596c6e60c01b610cd1565b600260003373ffffffffffffffffffffffffffffffffffffffff1673ffffffffffffffffffffffffffffffffffffffff168152602001908152602001600020604051806040016040528083815260200142815250908060018154018082558091505060019003906000526020600020906002020160009091909190915060008201518160000155602082015181600101555050610c50671c8fe1c10936d8d860c01b610cd1565b336003600083815260200190815260200160002060006101000a81548173ffffffffffffffffffffffffffffffffffffffff021916908373ffffffffffffffffffffffffffffffffffffffff160217905550610caa610d1a565b50565b7f000000000000000000000000000000000000000000000000000000000000000081565b50565b600260005403610d10576040517f3ee5aeb500000000000000000000000000000000000000000000000000000000815260040160405180910390fd5b6002600081905550565b6001600081905550565b6000610d3a67d8d4a087bb4b04ea60c01b610cd1565b610d4e67b7f772217871414c60c01b610cd1565b610d6267ac11513ec48e724b60c01b610cd1565b6000600260008473ffffffffffffffffffffffffffffffffffffffff1673ffffffffffffffffffffffffffffffffffffffff168152602001908152602001600020805480602002602001604051908101604052809291908181526020016000905b82821015610e0957838290600052602060002090600202016040518060400160405290816000820154815260200160018201548152505081526020019060010190610dc3565b505050509050610e2367f09563e2a531920360c01b610cd1565b610e3767b1ede42be8af7e4860c01b610cd1565b6000610e4d676dbd1d4149b4d46360c01b610cd1565b610e6066a61e527795b88560c01b610cd1565b60005b8251811015610ed157610e806767ae90f10092e65260c01b610cd1565b600154838281518110610e9657610e956111f6565b5b60200260200101516020015142610ead9190611254565b610eb79190611288565b82610ec291906112ca565b91508080600101915050610e63565b50610ee667bfb2144513cbbe0360c01b610cd1565b610efa67d64a1ddfcb29cc6460c01b610cd1565b8092505050919050565b5080546000825560020290600052602060002090810190610f259190610f28565b50565b5b80821115610f4b57600080820160009055600182016000905550600201610f29565b5090565b600080fd5b600073ffffffffffffffffffffffffffffffffffffffff82169050919050565b6000610f7f82610f54565b9050919050565b610f8f81610f74565b8114610f9a57600080fd5b50565b600081359050610fac81610f86565b92915050565b600060208284031215610fc857610fc7610f4f565b5b6000610fd684828501610f9d565b91505092915050565b6000819050919050565b610ff281610fdf565b82525050565b600060208201905061100d6000830184610fe9565b92915050565b61101c81610fdf565b811461102757600080fd5b50565b60008135905061103981611013565b92915050565b60006020828403121561105557611054610f4f565b5b60006110638482850161102a565b91505092915050565b61107581610f74565b82525050565b6000602082019050611090600083018461106c565b92915050565b600080604083850312156110ad576110ac610f4f565b5b60006110bb85828601610f9d565b92505060206110cc8582860161102a565b9150509250929050565b60006040820190506110eb6000830185610fe9565b6110f86020830184610fe9565b9392505050565b6000819050919050565b600061112461111f61111a84610f54565b6110ff565b610f54565b9050919050565b600061113682611109565b9050919050565b60006111488261112b565b9050919050565b6111588161113d565b82525050565b6000602082019050611173600083018461114f565b92915050565b600082825260208201905092915050565b7f4e6f7420746f6b656e206f776e65720000000000000000000000000000000000600082015250565b60006111c0600f83611179565b91506111cb8261118a565b602082019050919050565b600060208201905081810360008301526111ef816111b3565b9050919050565b7f4e487b7100000000000000000000000000000000000000000000000000000000600052603260045260246000fd5b7f4e487b7100000000000000000000000000000000000000000000000000000000600052601160045260246000fd5b600061125f82610fdf565b915061126a83610fdf565b925082820390508181111561128257611281611225565b5b92915050565b600061129382610fdf565b915061129e83610fdf565b92508282026112ac81610fdf565b915082820484148315176112c3576112c2611225565b5b5092915050565b60006112d582610fdf565b91506112e083610fdf565b92508282019050808211156112f8576112f7611225565b5b92915050565b7f4e487b7100000000000000000000000000000000000000000000000000000000600052603160045260246000fd5b6000606082019050611342600083018661106c565b61134f602083018561106c565b61135c6040830184610fe9565b949350505050565b7f4e6f207265776172647320617661696c61626c65000000000000000000000000600082015250565b600061139a601483611179565b91506113a582611364565b602082019050919050565b600060208201905081810360008301526113c98161138d565b905091905056fea2646970667358221220151cc4b71abec371670a274b55fe928fa8c7a1eb452462bb1abdaeca82e5909964736f6c63430008180033",
  "linkReferences": {},
  "deployedLinkReferences": {}
}