{
  "_format": "hh-sol-artifact-1",
  "contractName": "WaterVault",
  "sourceName": "contracts/WaterVault.sol",
  "abi": [
    {
      "inputs": [
        {
          "internalType": "address",
          "name": "_feeRecipient",
          "type": "address"
        },
        {
          "internalType": "address",
          "name": "_waterOracle",
          "type": "address"
        }
      ],
      "stateMutability": "nonpayable",
      "type": "constructor"
    },
    {
      "inputs": [],
      "name": "EnforcedPause",
      "type": "error"
    },
    {
      "inputs": [],
      "name": "ExpectedPause",
      "type": "error"
    },
    {
      "inputs": [
        {
          "internalType": "address",
          "name": "owner",
          "type": "address"
        }
      ],
      "name": "OwnableInvalidOwner",
      "type": "error"
    },
    {
      "inputs": [
        {
          "internalType": "address",
          "name": "account",
          "type": "address"
        }
      ],
      "name": "OwnableUnauthorizedAccount",
      "type": "error"
    },
    {
      "inputs": [],
      "name": "ReentrancyGuardReentrantCall",
      "type": "error"
    },
    {
      "anonymous": false,
      "inputs": [
        {
          "indexed": true,
          "internalType": "uint256",
          "name": "projectId",
          "type": "uint256"
        },
        {
          "indexed": true,
          "internalType": "uint256",
          "name": "creditId",
          "type": "uint256"
        },
        {
          "indexed": false,
          "internalType": "uint256",
          "name": "amount",
          "type": "uint256"
        },
        {
          "indexed": true,
          "internalType": "address",
          "name": "recipient",
          "type": "address"
        }
      ],
      "name": "CreditsIssued",
      "type": "event"
    },
    {
      "anonymous": false,
      "inputs": [
        {
          "indexed": true,
          "internalType": "uint256",
          "name": "creditId",
          "type": "uint256"
        },
        {
          "indexed": true,
          "internalType": "address",
          "name": "retiree",
          "type": "address"
        },
        {
          "indexed": false,
          "internalType": "uint256",
          "name": "amount",
          "type": "uint256"
        }
      ],
      "name": "CreditsRetired",
      "type": "event"
    },
    {
      "anonymous": false,
      "inputs": [
        {
          "indexed": true,
          "internalType": "uint256",
          "name": "creditId",
          "type": "uint256"
        },
        {
          "indexed": true,
          "internalType": "address",
          "name": "from",
          "type": "address"
        },
        {
          "indexed": true,
          "internalType": "address",
          "name": "to",
          "type": "address"
        }
      ],
      "name": "CreditsTransferred",
      "type": "event"
    },
    {
      "anonymous": false,
      "inputs": [
        {
          "indexed": true,
          "internalType": "address",
          "name": "newOracle",
          "type": "address"
        },
        {
          "indexed": false,
          "internalType": "uint256",
          "name": "timestamp",
          "type": "uint256"
        }
      ],
      "name": "OracleUpdated",
      "type": "event"
    },
    {
      "anonymous": false,
      "inputs": [
        {
          "indexed": true,
          "internalType": "address",
          "name": "previousOwner",
          "type": "address"
        },
        {
          "indexed": true,
          "internalType": "address",
          "name": "newOwner",
          "type": "address"
        }
      ],
      "name": "OwnershipTransferred",
      "type": "event"
    },
    {
      "anonymous": false,
      "inputs": [
        {
          "indexed": false,
          "internalType": "address",
          "name": "account",
          "type": "address"
        }
      ],
      "name": "Paused",
      "type": "event"
    },
    {
      "anonymous": false,
      "inputs": [
        {
          "indexed": true,
          "internalType": "uint256",
          "name": "projectId",
          "type": "uint256"
        },
        {
          "indexed": true,
          "internalType": "address",
          "name": "owner",
          "type": "address"
        },
        {
          "indexed": false,
          "internalType": "string",
          "name": "projectName",
          "type": "string"
        },
        {
          "indexed": false,
          "internalType": "uint256",
          "name": "waterSaved",
          "type": "uint256"
        }
      ],
      "name": "ProjectRegistered",
      "type": "event"
    },
    {
      "anonymous": false,
      "inputs": [
        {
          "indexed": true,
          "internalType": "uint256",
          "name": "projectId",
          "type": "uint256"
        },
        {
          "indexed": false,
          "internalType": "bool",
          "name": "isActive",
          "type": "bool"
        }
      ],
      "name": "ProjectStatusChanged",
      "type": "event"
    },
    {
      "anonymous": false,
      "inputs": [
        {
          "indexed": true,
          "internalType": "uint256",
          "name": "projectId",
          "type": "uint256"
        },
        {
          "indexed": false,
          "internalType": "uint256",
          "name": "waterSaved",
          "type": "uint256"
        },
        {
          "indexed": false,
          "internalType": "bytes32",
          "name": "certificationHash",
          "type": "bytes32"
        }
      ],
      "name": "ProjectVerified",
      "type": "event"
    },
    {
      "anonymous": false,
      "inputs": [
        {
          "indexed": false,
          "internalType": "address",
          "name": "account",
          "type": "address"
        }
      ],
      "name": "Unpaused",
      "type": "event"
    },
    {
      "inputs": [
        {
          "internalType": "uint256",
          "name": "",
          "type": "uint256"
        }
      ],
      "name": "credits",
      "outputs": [
        {
          "internalType": "uint256",
          "name": "projectId",
          "type": "uint256"
        },
        {
          "internalType": "uint256",
          "name": "amount",
          "type": "uint256"
        },
        {
          "internalType": "uint256",
          "name": "mintDate",
          "type": "uint256"
        },
        {
          "internalType": "address",
          "name": "owner",
          "type": "address"
        },
        {
          "internalType": "bool",
          "name": "isRetired",
          "type": "bool"
        }
      ],
      "stateMutability": "view",
      "type": "function"
    },
    {
      "inputs": [
        {
          "internalType": "uint256",
          "name": "projectId",
          "type": "uint256"
        }
      ],
      "name": "deactivateProject",
      "outputs": [],
      "stateMutability": "nonpayable",
      "type": "function"
    },
    {
      "inputs": [],
      "name": "feeRecipient",
      "outputs": [
        {
          "internalType": "address",
          "name": "",
          "type": "address"
        }
      ],
      "stateMutability": "view",
      "type": "function"
    },
    {
      "inputs": [],
      "name": "getActiveProjectsCount",
      "outputs": [
        {
          "internalType": "uint256",
          "name": "",
          "type": "uint256"
        }
      ],
      "stateMutability": "view",
      "type": "function"
    },
    {
      "inputs": [
        {
          "internalType": "uint256",
          "name": "creditId",
          "type": "uint256"
        }
      ],
      "name": "getCredit",
      "outputs": [
        {
          "components": [
            {
              "internalType": "uint256",
              "name": "projectId",
              "type": "uint256"
            },
            {
              "internalType": "uint256",
              "name": "amount",
              "type": "uint256"
            },
            {
              "internalType": "uint256",
              "name": "mintDate",
              "type": "uint256"
            },
            {
              "internalType": "address",
              "name": "owner",
              "type": "address"
            },
            {
              "internalType": "bool",
              "name": "isRetired",
              "type": "bool"
            }
          ],
          "internalType": "struct WaterVault.WaterCredit",
          "name": "",
          "type": "tuple"
        }
      ],
      "stateMutability": "view",
      "type": "function"
    },
    {
      "inputs": [
        {
          "internalType": "uint256",
          "name": "projectId",
          "type": "uint256"
        }
      ],
      "name": "getProject",
      "outputs": [
        {
          "components": [
            {
              "internalType": "uint256",
              "name": "id",
              "type": "uint256"
            },
            {
              "internalType": "address",
              "name": "projectOwner",
              "type": "address"
            },
            {
              "internalType": "string",
              "name": "projectName",
              "type": "string"
            },
            {
              "internalType": "string",
              "name": "location",
              "type": "string"
            },
            {
              "internalType": "uint256",
              "name": "waterSaved",
              "type": "uint256"
            },
            {
              "internalType": "uint256",
              "name": "creditRate",
              "type": "uint256"
            },
            {
              "internalType": "uint256",
              "name": "totalCredits",
              "type": "uint256"
            },
            {
              "internalType": "uint256",
              "name": "availableCredits",
              "type": "uint256"
            },
            {
              "internalType": "bool",
              "name": "isActive",
              "type": "bool"
            },
            {
              "internalType": "uint256",
              "name": "verificationDate",
              "type": "uint256"
            },
            {
              "internalType": "bytes32",
              "name": "certificationHash",
              "type": "bytes32"
            }
          ],
          "internalType": "struct WaterVault.WaterProject",
          "name": "",
          "type": "tuple"
        }
      ],
      "stateMutability": "view",
      "type": "function"
    },
    {
      "inputs": [
        {
          "internalType": "address",
          "name": "user",
          "type": "address"
        }
      ],
      "name": "getUserCredits",
      "outputs": [
        {
          "internalType": "uint256[]",
          "name": "",
          "type": "uint256[]"
        }
      ],
      "stateMutability": "view",
      "type": "function"
    },
    {
      "inputs": [
        {
          "internalType": "address",
          "name": "user",
          "type": "address"
        }
      ],
      "name": "getUserProjects",
      "outputs": [
        {
          "internalType": "uint256[]",
          "name": "",
          "type": "uint256[]"
        }
      ],
      "stateMutability": "view",
      "type": "function"
    },
    {
      "inputs": [
        {
          "internalType": "uint256",
          "name": "projectId",
          "type": "uint256"
        },
        {
          "internalType": "uint256",
          "name": "amount",
          "type": "uint256"
        },
        {
          "internalType": "address",
          "name": "recipient",
          "type": "address"
        }
      ],
      "name": "issueCredits",
      "outputs": [
        {
          "internalType": "uint256",
          "name": "",
          "type": "uint256"
        }
      ],
      "stateMutability": "nonpayable",
      "type": "function"
    },
    {
      "inputs": [],
      "name": "lastOracleUpdate",
      "outputs": [
        {
          "internalType": "uint256",
          "name": "",
          "type": "uint256"
        }
      ],
      "stateMutability": "view",
      "type": "function"
    },
    {
      "inputs": [],
      "name": "nextCreditId",
      "outputs": [
        {
          "internalType": "uint256",
          "name": "",
          "type": "uint256"
        }
      ],
      "stateMutability": "view",
      "type": "function"
    },
    {
      "inputs": [],
      "name": "nextProjectId",
      "outputs": [
        {
          "internalType": "uint256",
          "name": "",
          "type": "uint256"
        }
      ],
      "stateMutability": "view",
      "type": "function"
    },
    {
      "inputs": [],
      "name": "oracleUpdateFrequency",
      "outputs": [
        {
          "internalType": "uint256",
          "name": "",
          "type": "uint256"
        }
      ],
      "stateMutability": "view",
      "type": "function"
    },
    {
      "inputs": [],
      "name": "owner",
      "outputs": [
        {
          "internalType": "address",
          "name": "",
          "type": "address"
        }
      ],
      "stateMutability": "view",
      "type": "function"
    },
    {
      "inputs": [],
      "name": "pause",
      "outputs": [],
      "stateMutability": "nonpayable",
      "type": "function"
    },
    {
      "inputs": [],
      "name": "paused",
      "outputs": [
        {
          "internalType": "bool",
          "name": "",
          "type": "bool"
        }
      ],
      "stateMutability": "view",
      "type": "function"
    },
    {
      "inputs": [],
      "name": "platformFeeRate",
      "outputs": [
        {
          "internalType": "uint256",
          "name": "",
          "type": "uint256"
        }
      ],
      "stateMutability": "view",
      "type": "function"
    },
    {
      "inputs": [
        {
          "internalType": "uint256",
          "name": "",
          "type": "uint256"
        }
      ],
      "name": "projects",
      "outputs": [
        {
          "internalType": "uint256",
          "name": "id",
          "type": "uint256"
        },
        {
          "internalType": "address",
          "name": "projectOwner",
          "type": "address"
        },
        {
          "internalType": "string",
          "name": "projectName",
          "type": "string"
        },
        {
          "internalType": "string",
          "name": "location",
          "type": "string"
        },
        {
          "internalType": "uint256",
          "name": "waterSaved",
          "type": "uint256"
        },
        {
          "internalType": "uint256",
          "name": "creditRate",
          "type": "uint256"
        },
        {
          "internalType": "uint256",
          "name": "totalCredits",
          "type": "uint256"
        },
        {
          "internalType": "uint256",
          "name": "availableCredits",
          "type": "uint256"
        },
        {
          "internalType": "bool",
          "name": "isActive",
          "type": "bool"
        },
        {
          "internalType": "uint256",
          "name": "verificationDate",
          "type": "uint256"
        },
        {
          "internalType": "bytes32",
          "name": "certificationHash",
          "type": "bytes32"
        }
      ],
      "stateMutability": "view",
      "type": "function"
    },
    {
      "inputs": [
        {
          "internalType": "string",
          "name": "projectName",
          "type": "string"
        },
        {
          "internalType": "string",
          "name": "location",
          "type": "string"
        },
        {
          "internalType": "uint256",
          "name": "waterSaved",
          "type": "uint256"
        },
        {
          "internalType": "uint256",
          "name": "creditRate",
          "type": "uint256"
        }
      ],
      "name": "registerProject",
      "outputs": [
        {
          "internalType": "uint256",
          "name": "",
          "type": "uint256"
        }
      ],
      "stateMutability": "nonpayable",
      "type": "function"
    },
    {
      "inputs": [],
      "name": "renounceOwnership",
      "outputs": [],
      "stateMutability": "nonpayable",
      "type": "function"
    },
    {
      "inputs": [
        {
          "internalType": "uint256",
          "name": "creditId",
          "type": "uint256"
        }
      ],
      "name": "retireCredits",
      "outputs": [],
      "stateMutability": "nonpayable",
      "type": "function"
    },
    {
      "inputs": [],
      "name": "totalCreditsIssued",
      "outputs": [
        {
          "internalType": "uint256",
          "name": "",
          "type": "uint256"
        }
      ],
      "stateMutability": "view",
      "type": "function"
    },
    {
      "inputs": [],
      "name": "totalWaterSaved",
      "outputs": [
        {
          "internalType": "uint256",
          "name": "",
          "type": "uint256"
        }
      ],
      "stateMutability": "view",
      "type": "function"
    },
    {
      "inputs": [
        {
          "internalType": "uint256",
          "name": "creditId",
          "type": "uint256"
        },
        {
          "internalType": "address",
          "name": "to",
          "type": "address"
        }
      ],
      "name": "transferCredits",
      "outputs": [],
      "stateMutability": "nonpayable",
      "type": "function"
    },
    {
      "inputs": [
        {
          "internalType": "address",
          "name": "newOwner",
          "type": "address"
        }
      ],
      "name": "transferOwnership",
      "outputs": [],
      "stateMutability": "nonpayable",
      "type": "function"
    },
    {
      "inputs": [],
      "name": "unpause",
      "outputs": [],
      "stateMutability": "nonpayable",
      "type": "function"
    },
    {
      "inputs": [
        {
          "internalType": "uint256",
          "name": "newFeeRate",
          "type": "uint256"
        }
      ],
      "name": "updateFeeRate",
      "outputs": [],
      "stateMutability": "nonpayable",
      "type": "function"
    },
    {
      "inputs": [
        {
          "internalType": "address",
          "name": "newOracle",
          "type": "address"
        }
      ],
      "name": "updateOracle",
      "outputs": [],
      "stateMutability": "nonpayable",
      "type": "function"
    },
    {
      "inputs": [
        {
          "internalType": "bytes32",
          "name": "",
          "type": "bytes32"
        }
      ],
      "name": "usedCertifications",
      "outputs": [
        {
          "internalType": "bool",
          "name": "",
          "type": "bool"
        }
      ],
      "stateMutability": "view",
      "type": "function"
    },
    {
      "inputs": [
        {
          "internalType": "address",
          "name": "",
          "type": "address"
        },
        {
          "internalType": "uint256",
          "name": "",
          "type": "uint256"
        }
      ],
      "name": "userCredits",
      "outputs": [
        {
          "internalType": "uint256",
          "name": "",
          "type": "uint256"
        }
      ],
      "stateMutability": "view",
      "type": "function"
    },
    {
      "inputs": [
        {
          "internalType": "address",
          "name": "",
          "type": "address"
        },
        {
          "internalType": "uint256",
          "name": "",
          "type": "uint256"
        }
      ],
      "name": "userProjects",
      "outputs": [
        {
          "internalType": "uint256",
          "name": "",
          "type": "uint256"
        }
      ],
      "stateMutability": "view",
      "type": "function"
    },
    {
      "inputs": [
        {
          "internalType": "uint256",
          "name": "projectId",
          "type": "uint256"
        },
        {
          "internalType": "bytes32",
          "name": "certificationHash",
          "type": "bytes32"
        }
      ],
      "name": "verifyProject",
      "outputs": [],
      "stateMutability": "nonpayable",
      "type": "function"
    },
    {
      "inputs": [],
      "name": "waterOracle",
      "outputs": [
        {
          "internalType": "address",
          "name": "",
          "type": "address"
        }
      ],
      "stateMutability": "view",
      "type": "function"
    }
  ],
  "bytecode": "0x6080604052600160025560016003556201518060075560fa6009553480156200002757600080fd5b5060405162005b6f38038062005b6f83398181016040528101906200004d9190620003f0565b336001600081905550600073ffffffffffffffffffffffffffffffffffffffff168173ffffffffffffffffffffffffffffffffffffffff1603620000cb5760006040517f1e4fbdf7000000000000000000000000000000000000000000000000000000008152600401620000c2919062000448565b60405180910390fd5b620000dc81620002c060201b60201c565b50620000f967e5ac14e706f8f49d60c01b6200038360201b60201c565b620001156714ced7105d880de860c01b6200038360201b60201c565b62000131671674a74ca06e534160c01b6200038360201b60201c565b6200014d672efa7d34c4e021c060c01b6200038360201b60201c565b600073ffffffffffffffffffffffffffffffffffffffff168273ffffffffffffffffffffffffffffffffffffffff1603620001bf576040517f08c379a0000000000000000000000000000000000000000000000000000000008152600401620001b690620004ec565b60405180910390fd5b620001db6742f11c54b71d94a860c01b6200038360201b60201c565b620001f767244d0d3968cc2b7360c01b6200038360201b60201c565b81600a60006101000a81548173ffffffffffffffffffffffffffffffffffffffff021916908373ffffffffffffffffffffffffffffffffffffffff16021790555062000254678c48607d4029e7c360c01b6200038360201b60201c565b80600660006101000a81548173ffffffffffffffffffffffffffffffffffffffff021916908373ffffffffffffffffffffffffffffffffffffffff160217905550620002b16747e67027df5ad8d260c01b6200038360201b60201c565b4260088190555050506200050e565b600060018054906101000a900473ffffffffffffffffffffffffffffffffffffffff169050816001806101000a81548173ffffffffffffffffffffffffffffffffffffffff021916908373ffffffffffffffffffffffffffffffffffffffff1602179055508173ffffffffffffffffffffffffffffffffffffffff168173ffffffffffffffffffffffffffffffffffffffff167f8be0079c531659141344cd1fd0a4f28419497f9722a3daafe3b4186f6b6457e060405160405180910390a35050565b50565b600080fd5b600073ffffffffffffffffffffffffffffffffffffffff82169050919050565b6000620003b8826200038b565b9050919050565b620003ca81620003ab565b8114620003d657600080fd5b50565b600081519050620003ea81620003bf565b92915050565b600080604083850312156200040a576200040962000386565b5b60006200041a85828601620003d9565b92505060206200042d85828601620003d9565b9150509250929050565b6200044281620003ab565b82525050565b60006020820190506200045f600083018462000437565b92915050565b600082825260208201905092915050565b7f57617465725661756c743a20496e76616c69642066656520726563697069656e60008201527f7400000000000000000000000000000000000000000000000000000000000000602082015250565b6000620004d460218362000465565b9150620004e18262000476565b604082019050919050565b600060208201905081810360008301526200050781620004c5565b9050919050565b615651806200051e6000396000f3fe608060405234801561001057600080fd5b50600436106101fb5760003560e01c806381b26dda1161011a578063de13af42116100ad578063e935b7b11161007c578063e935b7b1146105c2578063eeca08f0146105e0578063f0f3f2c8146105fe578063f2fde38b1461062e578063fc00b7981461064a576101fb565b8063de13af4214610514578063e32e723c14610532578063e64bcdfa14610562578063e6d7767d14610592576101fb565b8063b609d0e6116100e9578063b609d0e61461048c578063b7f79537146104aa578063d93b2dd0146104c8578063da304e4d146104e4576101fb565b806381b26dda146104165780638456cb59146104465780638da5cb5b14610450578063a65fb5531461046e576101fb565b80633f4ba83a116101925780635c975abb116101615780635c975abb146103a257806367294848146103c0578063715018a6146103f05780637b84fda5146103fa576101fb565b80633f4ba83a14610340578063436e69581461034a578063469048401461036657806352f735c714610384576101fb565b80632008d7a0116101ce5780632008d7a0146102ba5780632039e339146102d85780632fa9c007146102f4578063384b24f414610324576101fb565b8063036a1c2214610200578063107046bd1461023457806317a483a31461026e5780631cb44dfc1461029e575b600080fd5b61021a60048036038101906102159190613d6d565b610668565b60405161022b959493929190613e05565b60405180910390f35b61024e60048036038101906102499190613d6d565b6106cb565b6040516102659b9a99989796959493929190613f01565b60405180910390f35b61028860048036038101906102839190613fe6565b610862565b6040516102959190614026565b60405180910390f35b6102b860048036038101906102b39190614041565b610893565b005b6102c2610a7f565b6040516102cf9190614026565b60405180910390f35b6102f260048036038101906102ed9190613d6d565b610a85565b005b61030e60048036038101906103099190613fe6565b610ece565b60405161031b9190614026565b60405180910390f35b61033e6004803603810190610339919061409a565b610eff565b005b61034861150b565b005b610364600480360381019061035f9190613d6d565b611581565b005b61036e6118d5565b60405161037b91906140da565b60405180910390f35b61038c6118fb565b6040516103999190614026565b60405180910390f35b6103aa611a52565b6040516103b791906140f5565b60405180910390f35b6103da60048036038101906103d59190614110565b611a69565b6040516103e791906140f5565b60405180910390f35b6103f8611a89565b005b610414600480360381019061040f9190613d6d565b611a9d565b005b610430600480360381019061042b9190614041565b611b94565b60405161043d91906141fb565b60405180910390f35b61044e611c67565b005b610458611cdd565b60405161046591906140da565b60405180910390f35b610476611d05565b6040516104839190614026565b60405180910390f35b610494611d0b565b6040516104a19190614026565b60405180910390f35b6104b2611d11565b6040516104bf9190614026565b60405180910390f35b6104e260048036038101906104dd919061421d565b611d17565b005b6104fe60048036038101906104f99190613d6d565b6122db565b60405161050b91906142e3565b60405180910390f35b61051c612473565b60405161052991906140da565b60405180910390f35b61054c60048036038101906105479190614041565b612499565b60405161055991906141fb565b60405180910390f35b61057c60048036038101906105779190614363565b61256c565b6040516105899190614026565b60405180910390f35b6105ac60048036038101906105a7919061440a565b612c02565b6040516105b99190614026565b60405180910390f35b6105ca6133f6565b6040516105d79190614026565b60405180910390f35b6105e86133fc565b6040516105f59190614026565b60405180910390f35b61061860048036038101906106139190613d6d565b613402565b60405161062591906145ac565b60405180910390f35b61064860048036038101906106439190614041565b6136e7565b005b61065261376d565b60405161065f9190614026565b60405180910390f35b600c6020528060005260406000206000915090508060000154908060010154908060020154908060030160009054906101000a900473ffffffffffffffffffffffffffffffffffffffff16908060030160149054906101000a900460ff16905085565b600b6020528060005260406000206000915090508060000154908060010160009054906101000a900473ffffffffffffffffffffffffffffffffffffffff169080600201805461071a906145fd565b80601f0160208091040260200160405190810160405280929190818152602001828054610746906145fd565b80156107935780601f1061076857610100808354040283529160200191610793565b820191906000526020600020905b81548152906001019060200180831161077657829003601f168201915b5050505050908060030180546107a8906145fd565b80601f01602080910402602001604051908101604052809291908181526020018280546107d4906145fd565b80156108215780601f106107f657610100808354040283529160200191610821565b820191906000526020600020905b81548152906001019060200180831161080457829003601f168201915b5050505050908060040154908060050154908060060154908060070154908060080160009054906101000a900460ff169080600901549080600a015490508b565b600e602052816000526040600020818154811061087e57600080fd5b90600052602060002001600091509150505481565b6108a7676017551e7eb7155a60c01b613773565b6108af613776565b6108c3671969da884c5ea68b60c01b613773565b6108d767aaff469e2e54e45860c01b613773565b6108eb67739ed7d1f0f9780d60c01b613773565b6108ff67744a820314c2f4c860c01b613773565b610913679f988b4ef1caf25560c01b613773565b600073ffffffffffffffffffffffffffffffffffffffff168173ffffffffffffffffffffffffffffffffffffffff1603610982576040517f08c379a0000000000000000000000000000000000000000000000000000000008152600401610979906146a0565b60405180910390fd5b610996678f3a12a70f3de9f560c01b613773565b6109aa67058a5ed1e83e8cf660c01b613773565b80600660006101000a81548173ffffffffffffffffffffffffffffffffffffffff021916908373ffffffffffffffffffffffffffffffffffffffff1602179055506109ff6783cf1384821db14e60c01b613773565b42600881905550610a1a6729fcb4e3446de2e160c01b613773565b610a2e677c8cb0d3ff5b78ff60c01b613773565b8073ffffffffffffffffffffffffffffffffffffffff167f41dd56c92c84169d8e89dc293d2649a911f47b357d3012bc88662395e01979d042604051610a749190614026565b60405180910390a250565b60055481565b610a9967d0feb72c6da3b2a760c01b613773565b80610aae674c0983d6762deca760c01b613773565b610ac267fb341c7b66de8b7e60c01b613773565b610ad66756f54d78dda3b2f760c01b613773565b610aea67e75a72d811f4726560c01b613773565b600081118015610afb575060035481105b610b3a576040517f08c379a0000000000000000000000000000000000000000000000000000000008152600401610b319061470c565b60405180910390fd5b610b4e6773a135074d3a9b4c60c01b613773565b610b6267dc364618d12428e360c01b613773565b610b766757e6e1406be62f5f60c01b613773565b610b8a67ca96cfb7c79351e060c01b613773565b600c600082815260200190815260200160002060030160149054906101000a900460ff1615610bee576040517f08c379a0000000000000000000000000000000000000000000000000000000008152600401610be59061479e565b60405180910390fd5b610c0267f05b1a415460d7c960c01b613773565b610c16675795c9af810eaafc60c01b613773565b610c2a67bcd4f7dddd71a4f760c01b613773565b610c3e67d5fc21c0db9a9d5960c01b613773565b610c466137fd565b610c5a67a98bc85bccc154a260c01b613773565b610c6e67126bc54d68ba0fd460c01b613773565b610c76613843565b610c8a67bf855f927f3c5ff660c01b613773565b610c9e67ad9b26acc62b1db760c01b613773565b610cb2673b345544c86d781760c01b613773565b610cc6676e9d3c91e476d39f60c01b613773565b6000600c60008481526020019081526020016000209050610cf167477ab0b1b08ed2bb60c01b613773565b610d05671d85c9af12228f2660c01b613773565b610d1967c3f1ce2a7e91636060c01b613773565b8060030160009054906101000a900473ffffffffffffffffffffffffffffffffffffffff1673ffffffffffffffffffffffffffffffffffffffff163373ffffffffffffffffffffffffffffffffffffffff1614610dab576040517f08c379a0000000000000000000000000000000000000000000000000000000008152600401610da290614830565b60405180910390fd5b610dbf67ef0983237a6cf70460c01b613773565b610dd367ef6e805e3cd3550f60c01b613773565b60018160030160146101000a81548160ff021916908315150217905550610e0467afcf15abd55cca9d60c01b613773565b610e1867c57efdd24905b1b860c01b613773565b610e468160030160009054906101000a900473ffffffffffffffffffffffffffffffffffffffff1684613884565b610e5a6755b911de41b5936660c01b613773565b610e6e6772a812afa24701b560c01b613773565b3373ffffffffffffffffffffffffffffffffffffffff16837f31995d78296d80ec997704a03d4e6295c44e8755e8117523fb44bf086c306dcb8360010154604051610eb99190614026565b60405180910390a350610eca613a8c565b5050565b600d6020528160005260406000208181548110610eea57600080fd5b90600052602060002001600091509150505481565b610f1367d7b5c167714c520760c01b613773565b610f27674399c630e757683760c01b613773565b610f3b677600e8cb36c9151160c01b613773565b610f4f67bfccd2f12d7d220f60c01b613773565b610f63675e31a8f736ed163660c01b613773565b600660009054906101000a900473ffffffffffffffffffffffffffffffffffffffff1673ffffffffffffffffffffffffffffffffffffffff163373ffffffffffffffffffffffffffffffffffffffff1614610ff3576040517f08c379a0000000000000000000000000000000000000000000000000000000008152600401610fea9061489c565b60405180910390fd5b61100767f4e01fc910eaffc660c01b613773565b61101b67acdb291cae761a3560c01b613773565b61102f673a6dcbc095c06f8160c01b613773565b61104367dbf86789fc888e8960c01b613773565b61104b6137fd565b61105f672771238f3542162b60c01b613773565b6110736787ce0b62a3f9189c60c01b613773565b611087674117581ebd42bd9760c01b613773565b61109b679a880aa65ce3852a60c01b613773565b6110af6755830af832d8cb4460c01b613773565b6000821180156110c0575060025482105b6110ff576040517f08c379a00000000000000000000000000000000000000000000000000000000081526004016110f690614908565b60405180910390fd5b6111136784f87b8efc5c85c160c01b613773565b61112767b1fa4a8c190e617d60c01b613773565b61113b679d4471216887a28360c01b613773565b61114f67e08bbc67da8a024c60c01b613773565b6000801b8103611194576040517f08c379a000000000000000000000000000000000000000000000000000000000815260040161118b9061499a565b60405180910390fd5b6111a8678156d77cdf7e0bb860c01b613773565b6111bc6765c6a271c11ef86a60c01b613773565b6111d0676832e08e0b32513c60c01b613773565b6111e4676ec22d73a17eacb660c01b613773565b600f600082815260200190815260200160002060009054906101000a900460ff1615611245576040517f08c379a000000000000000000000000000000000000000000000000000000000815260040161123c90614a2c565b60405180910390fd5b61125967540c84f7d596b62760c01b613773565b61126d67aaf652f54de6bab660c01b613773565b61128167cac5c936dc9886e260c01b613773565b6000600b600084815260200190815260200160002090506112ac679ad2a576da5f2f7f60c01b613773565b6112c06702e67f2de061fe3660c01b613773565b6112d4675cc5c03a4b0a54a360c01b613773565b8060080160009054906101000a900460ff1615611326576040517f08c379a000000000000000000000000000000000000000000000000000000000815260040161131d90614abe565b60405180910390fd5b61133a67903508ba3f2c6d4960c01b613773565b61134e679e400a7a196da87460c01b613773565b60018160080160006101000a81548160ff02191690831515021790555061137f676bb17caccf28289c60c01b613773565b42816009018190555061139c67703814fcab831d8b60c01b613773565b8181600a01819055506113b9671d89fda4ee0028c960c01b613773565b806006015481600701819055506113da673d21a05c214efa1b60c01b613773565b6001600f600084815260200190815260200160002060006101000a81548160ff02191690831515021790555061141a67ff96d4def2518d8160c01b613773565b8060040154600460008282546114309190614b0d565b9250508190555061144b6744af13b5b906fa9760c01b613773565b61145f6774e8440ac6d3748860c01b613773565b827fa97f2e4696f28631893937bba396fb4afa63ff34350673fb9de9cf133f9dd1e6826004015484604051611495929190614b41565b60405180910390a26114b1670d128331a989b16b60c01b613773565b6114c567c2f87377703bcda860c01b613773565b827f73c9860341fcf3a75820bf92ceafc9c352f5590f6693cd99123378b454372b7d60016040516114f691906140f5565b60405180910390a250611507613a8c565b5050565b61151f67d5d752beb0f2777460c01b613773565b611527613776565b61153b67dc0e4956f97267fa60c01b613773565b61154f67fb3d6236b9789f2860c01b613773565b611563675ad49ad34312b13d60c01b613773565b6115776701222c5c201230c760c01b613773565b61157f613a96565b565b6115956786d6c864332d5f9e60c01b613773565b6115a9676930558892235c0160c01b613773565b6115bd67b616b74fbb52e68560c01b613773565b6115d1674fc8b91ed70c697360c01b613773565b6000811180156115e2575060025481105b611621576040517f08c379a000000000000000000000000000000000000000000000000000000000815260040161161890614908565b60405180910390fd5b6116356794f798bb640ea68e60c01b613773565b611649670e5c24782bdfcd3c60c01b613773565b61165d673c3e9909293b808160c01b613773565b61167167e047b0fbacf041e660c01b613773565b611679611cdd565b73ffffffffffffffffffffffffffffffffffffffff163373ffffffffffffffffffffffffffffffffffffffff161480156116c357506116c2676abb4ad9ef895c3760c01b613af9565b5b806117535750600660009054906101000a900473ffffffffffffffffffffffffffffffffffffffff1673ffffffffffffffffffffffffffffffffffffffff163373ffffffffffffffffffffffffffffffffffffffff161480156117365750611735674fa6893e0317c26260c01b613af9565b5b8015611752575061175167536e3b8b072a44c160c01b613af9565b5b5b806117db5750600b600082815260200190815260200160002060010160009054906101000a900473ffffffffffffffffffffffffffffffffffffffff1673ffffffffffffffffffffffffffffffffffffffff163373ffffffffffffffffffffffffffffffffffffffff161480156117da57506117d967fe0539cb1f35a62460c01b613af9565b5b5b61181a576040517f08c379a000000000000000000000000000000000000000000000000000000000815260040161181190614bb6565b60405180910390fd5b61182e67c109fc707aa6c4b260c01b613773565b61184267aca79c1a5c5a6ae660c01b613773565b6000600b600083815260200190815260200160002060080160006101000a81548160ff02191690831515021790555061188567e53eb72a519f0e1d60c01b613773565b611899674d3de0ca0bd7859960c01b613773565b807f73c9860341fcf3a75820bf92ceafc9c352f5590f6693cd99123378b454372b7d60006040516118ca91906140f5565b60405180910390a250565b600a60009054906101000a900473ffffffffffffffffffffffffffffffffffffffff1681565b600061191167885a68b0743b800760c01b613773565b611925670d2ca1af73fbb67960c01b613773565b61193967c1145d0bbcd3b14160c01b613773565b600061194f67a06663364204b6fa60c01b613773565b61196367030fd77b5c85c87360c01b613773565b6000600190505b600254811015611a225761198867bf18198b5f092acb60c01b613773565b61199c67ec0bdadbae1eb1e560c01b613773565b600b600082815260200190815260200160002060080160009054906101000a900460ff1615611a00576119d967f49468e16e15069260c01b613773565b6119ed67a33d5778bcf32a3860c01b613773565b81806119f890614bd6565b925050611a15565b611a14679c80449cbe74da6e60c01b613773565b5b808060010191505061196a565b50611a3767391a53371d21ac1560c01b613773565b611a4b67e94f54d0c6ca4c5e60c01b613773565b8091505090565b6000600160009054906101000a900460ff16905090565b600f6020528060005260406000206000915054906101000a900460ff1681565b611a91613776565b611a9b6000613b04565b565b611ab1674ce4169f34bb731760c01b613773565b611ab9613776565b611acd67660265b34de9c07160c01b613773565b611ae167ed48ed3d5337994560c01b613773565b611af5678bae70dba6db18d960c01b613773565b611b09677cb004b967dad16a60c01b613773565b611b1d6785f5c201cbdca96960c01b613773565b6103e8811115611b62576040517f08c379a0000000000000000000000000000000000000000000000000000000008152600401611b5990614c6a565b60405180910390fd5b611b7667a1bc4a90797b707860c01b613773565b611b8a67fb35acc67d57249a60c01b613773565b8060098190555050565b6060611baa676a8ae61961f315d360c01b613773565b611bbe670b6167621015710d60c01b613773565b611bd267ae2dcd0f1031513560c01b613773565b600e60008373ffffffffffffffffffffffffffffffffffffffff1673ffffffffffffffffffffffffffffffffffffffff168152602001908152602001600020805480602002602001604051908101604052809291908181526020018280548015611c5b57602002820191906000526020600020905b815481526020019060010190808311611c47575b50505050509050919050565b611c7b67d53ddeccdf6a73fd60c01b613773565b611c83613776565b611c9767963a2c5fce292f1b60c01b613773565b611cab67eece5613f4c4011560c01b613773565b611cbf67561a2708d15be9f560c01b613773565b611cd3671cb48d951745b63a60c01b613773565b611cdb613bc7565b565b600060018054906101000a900473ffffffffffffffffffffffffffffffffffffffff16905090565b60045481565b60085481565b60075481565b611d2b673ebfb67c2605dcb760c01b613773565b81611d40674c0983d6762deca760c01b613773565b611d5467fb341c7b66de8b7e60c01b613773565b611d686756f54d78dda3b2f760c01b613773565b611d7c67e75a72d811f4726560c01b613773565b600081118015611d8d575060035481105b611dcc576040517f08c379a0000000000000000000000000000000000000000000000000000000008152600401611dc39061470c565b60405180910390fd5b611de06773a135074d3a9b4c60c01b613773565b611df467dc364618d12428e360c01b613773565b611e086757e6e1406be62f5f60c01b613773565b611e1c67ca96cfb7c79351e060c01b613773565b600c600082815260200190815260200160002060030160149054906101000a900460ff1615611e80576040517f08c379a0000000000000000000000000000000000000000000000000000000008152600401611e779061479e565b60405180910390fd5b611e9467f05b1a415460d7c960c01b613773565b611ea8675795c9af810eaafc60c01b613773565b611ebc67fe4b014204e2179e60c01b613773565b611ecf667b70d9ecb0e59460c01b613773565b611ed76137fd565b611eeb67991dc257e0c8400960c01b613773565b611eff67a1d78184b4da800360c01b613773565b611f07613843565b611f1b67ac3b2a93ad886bbd60c01b613773565b611f2f6751afd838ec39363160c01b613773565b611f4367e9057df664543d4560c01b613773565b611f576750102b99baa3580b60c01b613773565b611f6b67f3798ae13f09733260c01b613773565b600073ffffffffffffffffffffffffffffffffffffffff168273ffffffffffffffffffffffffffffffffffffffff1603611fda576040517f08c379a0000000000000000000000000000000000000000000000000000000008152600401611fd190614cd6565b60405180910390fd5b611fee67d66df8162cc82d1660c01b613773565b612002675a8eacb96fa3517c60c01b613773565b6120166749356543ff80e58d60c01b613773565b6000600c600085815260200190815260200160002090506120416763dd9ec5820757b160c01b613773565b61205567e3659c6da8255b7460c01b613773565b61206967524d1bd34aa011da60c01b613773565b8060030160009054906101000a900473ffffffffffffffffffffffffffffffffffffffff1673ffffffffffffffffffffffffffffffffffffffff163373ffffffffffffffffffffffffffffffffffffffff16146120fb576040517f08c379a00000000000000000000000000000000000000000000000000000000081526004016120f290614d68565b60405180910390fd5b61210f67ad170de0b0f115ba60c01b613773565b61212367d72af4f6cdc72bd060c01b613773565b61213767511288956af8f5da60c01b613773565b6121658160030160009054906101000a900473ffffffffffffffffffffffffffffffffffffffff1685613884565b612179679c644a498c440ba460c01b613773565b828160030160006101000a81548173ffffffffffffffffffffffffffffffffffffffff021916908373ffffffffffffffffffffffffffffffffffffffff1602179055506121d067baa3a32f0893ecc060c01b613773565b6121e467a5b026d13810f20160c01b613773565b600e60008473ffffffffffffffffffffffffffffffffffffffff1673ffffffffffffffffffffffffffffffffffffffff16815260200190815260200160002084908060018154018082558091505060019003906000526020600020016000909190919091505561225e672ba6c233133c954a60c01b613773565b61227267c2b41af716487c8260c01b613773565b8273ffffffffffffffffffffffffffffffffffffffff163373ffffffffffffffffffffffffffffffffffffffff16857fecfeeb9e8ed5a51c0481b66b72349801b9325bd48cdd89d33a33d67a3eb9b31060405160405180910390a4506122d6613a8c565b505050565b6122e3613c71565b6122f7671b8ac2f9353858f560c01b613773565b61230b677bd89caa11a476b360c01b613773565b61231f674b41e08ecc7ac5d660c01b613773565b61233367c955a3974d33d15f60c01b613773565b600082118015612344575060035482105b612383576040517f08c379a000000000000000000000000000000000000000000000000000000000815260040161237a9061470c565b60405180910390fd5b61239767c839ebf138f0f94d60c01b613773565b6123ab6749a99ccc23d2c3f960c01b613773565b6123bf67d47bcc77527328db60c01b613773565b600c60008381526020019081526020016000206040518060a00160405290816000820154815260200160018201548152602001600282015481526020016003820160009054906101000a900473ffffffffffffffffffffffffffffffffffffffff1673ffffffffffffffffffffffffffffffffffffffff1673ffffffffffffffffffffffffffffffffffffffff1681526020016003820160149054906101000a900460ff1615151515815250509050919050565b600660009054906101000a900473ffffffffffffffffffffffffffffffffffffffff1681565b60606124af6701f8e3edc02b15eb60c01b613773565b6124c367f7770584cc8a8d6760c01b613773565b6124d767f81b0f6c152f6a2860c01b613773565b600d60008373ffffffffffffffffffffffffffffffffffffffff1673ffffffffffffffffffffffffffffffffffffffff16815260200190815260200160002080548060200260200160405190810160405280929190818152602001828054801561256057602002820191906000526020600020905b81548152602001906001019080831161254c575b50505050509050919050565b600061258267c52680cbb849bc3f60c01b613773565b61258a6137fd565b61259e67cec339de4a4bef9d60c01b613773565b6125b267fbc2d9491e5dea1260c01b613773565b6125ba613843565b6125ce67fbefd6bc17e788be60c01b613773565b6125e267a52595ea144714a460c01b613773565b6125f66774c50db6c07e679d60c01b613773565b61260a671a69faa0df08ad2a60c01b613773565b61261e67dbb695fb1ade26b160c01b613773565b60008787905011612664576040517f08c379a000000000000000000000000000000000000000000000000000000000815260040161265b90614dfa565b60405180910390fd5b612678671c42f923c5a49b0060c01b613773565b61268c670f086a442ca0566160c01b613773565b6126a067b89421d07141694560c01b613773565b6126b4675cd917701c619fbe60c01b613773565b600085859050116126fa576040517f08c379a00000000000000000000000000000000000000000000000000000000081526004016126f190614e66565b60405180910390fd5b61270e67a76d31bf2772bb1b60c01b613773565b61272267936bd6e4dcca1de060c01b613773565b612736678cd0765317fe8feb60c01b613773565b61274a677b957d952d033ea060c01b613773565b6000831161278d576040517f08c379a000000000000000000000000000000000000000000000000000000000815260040161278490614ef8565b60405180910390fd5b6127a1676a8fae334131887560c01b613773565b6127b5679475b622d1ac47a660c01b613773565b6127c9676a82ba41da1382f260c01b613773565b6127dd6792264355bbfa01d060c01b613773565b60008211612820576040517f08c379a000000000000000000000000000000000000000000000000000000000815260040161281790614f8a565b60405180910390fd5b612834670e2c70c22c0c41a860c01b613773565b61284867b8677052f82000a760c01b613773565b61285c670750e79e564f94c560c01b613773565b60006002600081548092919061287190614bd6565b91905055905061288b6712537371b494194860c01b613773565b61289f6783b09813c7fd243160c01b613773565b6000670de0b6b3a764000084866128b69190614faa565b6128c0919061501b565b90506128d66722d026e9d06bfcf460c01b613773565b6040518061016001604052808381526020013373ffffffffffffffffffffffffffffffffffffffff1681526020018a8a8080601f016020809104026020016040519081016040528093929190818152602001838380828437600081840152601f19601f82011690508083019250505050505050815260200188888080601f016020809104026020016040519081016040528093929190818152602001838380828437600081840152601f19601f82011690508083019250505050505050815260200186815260200185815260200182815260200160008152602001600015158152602001600081526020016000801b815250600b60008481526020019081526020016000206000820151816000015560208201518160010160006101000a81548173ffffffffffffffffffffffffffffffffffffffff021916908373ffffffffffffffffffffffffffffffffffffffff1602179055506040820151816002019081612a419190615227565b506060820151816003019081612a579190615227565b506080820151816004015560a0820151816005015560c0820151816006015560e082015181600701556101008201518160080160006101000a81548160ff021916908315150217905550610120820151816009015561014082015181600a0155905050612ace6728b49ea012ff442960c01b613773565b612ae267ff4ebc178b0de49e60c01b613773565b600d60003373ffffffffffffffffffffffffffffffffffffffff1673ffffffffffffffffffffffffffffffffffffffff168152602001908152602001600020829080600181540180825580915050600190039060005260206000200160009091909190915055612b5c67b788a897a3965f1560c01b613773565b612b70671babbd30718833d260c01b613773565b3373ffffffffffffffffffffffffffffffffffffffff16827f88d5a06eeeeefac9232ac3078802eb4038765e211f0985f4fdfcad50cf5b359a8b8b89604051612bbb93929190615335565b60405180910390a3612bd7671b4bd67d7fffe7ea60c01b613773565b612beb67689423387ea696d660c01b613773565b8192505050612bf8613a8c565b9695505050505050565b6000612c18672242fa0a788b4dc860c01b613773565b83612c2d677e6494909e2c7fdf60c01b613773565b612c4167ea7d804b430c6c5160c01b613773565b612c556782b66983f041dbe260c01b613773565b612c69679ded70abf17446b060c01b613773565b600081118015612c7a575060025481105b612cb9576040517f08c379a0000000000000000000000000000000000000000000000000000000008152600401612cb090614908565b60405180910390fd5b612ccd677c6fe1d532ff2dd260c01b613773565b612ce16772445377727b54c460c01b613773565b612cf567a8c11bfe42064ab860c01b613773565b612d0967ec5a603b2dc5d8ea60c01b613773565b600b600082815260200190815260200160002060080160009054906101000a900460ff16612d6c576040517f08c379a0000000000000000000000000000000000000000000000000000000008152600401612d63906153b3565b60405180910390fd5b612d8067f6c9e9254e09102960c01b613773565b612d9467645f630d0a6da49760c01b613773565b612da867798f0957921a76b560c01b613773565b612dbc6798dbf98bb583b90860c01b613773565b612dc46137fd565b612dd867d6bba8cc0ed7a78960c01b613773565b612deb662c17bbe86383e760c01b613773565b612df3613843565b612e076771c20907c37bffc060c01b613773565b612e1b678e222f37a0ea81bc60c01b613773565b612e2f67ceed7c000a044f2860c01b613773565b612e436727181946171b582960c01b613773565b612e576712d8dee13ec633b860c01b613773565b600073ffffffffffffffffffffffffffffffffffffffff168373ffffffffffffffffffffffffffffffffffffffff1603612ec6576040517f08c379a0000000000000000000000000000000000000000000000000000000008152600401612ebd90614cd6565b60405180910390fd5b612eda679dddb4eeaa7a30f360c01b613773565b612eee67812a3dff623d219e60c01b613773565b612f02675c122181749eff6d60c01b613773565b612f166758b033cce5d3497360c01b613773565b60008411612f59576040517f08c379a0000000000000000000000000000000000000000000000000000000008152600401612f5090615445565b60405180910390fd5b612f6d6737b9740aea6c2a7160c01b613773565b612f8167dab5560bdab57ea760c01b613773565b612f9567ca6db43d88af2e2460c01b613773565b6000600b60008781526020019081526020016000209050612fc06759247eaf8263648a60c01b613773565b612fd46711435d47d64c618560c01b613773565b612fe86781f553c487010c8060c01b613773565b8060010160009054906101000a900473ffffffffffffffffffffffffffffffffffffffff1673ffffffffffffffffffffffffffffffffffffffff163373ffffffffffffffffffffffffffffffffffffffff161461307a576040517f08c379a0000000000000000000000000000000000000000000000000000000008152600401613071906154d7565b60405180910390fd5b61308e6703050e2470413eb460c01b613773565b6130a267b38012c6688baa7360c01b613773565b6130b66795bd3f08fe6bcd6460c01b613773565b6130ca67e70880fc62822dd560c01b613773565b8481600701541015613111576040517f08c379a000000000000000000000000000000000000000000000000000000000815260040161310890615569565b60405180910390fd5b6131256756f5d0a210e8db6960c01b613773565b61313967229f50db3cf8c88a60c01b613773565b61314d67a17cabd5b40acf6560c01b613773565b60006003600081548092919061316290614bd6565b91905055905061317c67e7337a20c75d824e60c01b613773565b6040518060a001604052808881526020018781526020014281526020018673ffffffffffffffffffffffffffffffffffffffff16815260200160001515815250600c600083815260200190815260200160002060008201518160000155602082015181600101556040820151816002015560608201518160030160006101000a81548173ffffffffffffffffffffffffffffffffffffffff021916908373ffffffffffffffffffffffffffffffffffffffff16021790555060808201518160030160146101000a81548160ff02191690831515021790555090505061326b67595f721a021e1cda60c01b613773565b8582600701600082825461327f9190615589565b9250508190555061329a677dd32836e9ad6fcf60c01b613773565b85600560008282546132ac9190614b0d565b925050819055506132c767fb8ce953478ff5ea60c01b613773565b6132db67ce898e05b5ebfdac60c01b613773565b600e60008673ffffffffffffffffffffffffffffffffffffffff1673ffffffffffffffffffffffffffffffffffffffff1681526020019081526020016000208190806001815401808255809150506001900390600052602060002001600090919091909150556133556703e6d14dc9d63b7760c01b613773565b613369679cae3b32032f719260c01b613773565b8473ffffffffffffffffffffffffffffffffffffffff1681887faec5290c7283e01b0da87aa22647002df98fcff7da11e4d6f2737260355a683e896040516133b19190614026565b60405180910390a46133cd67992de3e5fb3dbd8360c01b613773565b6133e167ace2ca13c7064c1b60c01b613773565b80935050506133ee613a8c565b509392505050565b60025481565b60095481565b61340a613cb8565b61341e675e898b602623f49d60c01b613773565b6134326703a21ad2a166e64a60c01b613773565b613446676e8d12c9710ec7c360c01b613773565b61345a673cb94c3db3e7a2e560c01b613773565b60008211801561346b575060025482105b6134aa576040517f08c379a00000000000000000000000000000000000000000000000000000000081526004016134a190614908565b60405180910390fd5b6134be67e5c95db33cf510b760c01b613773565b6134d2679b7c6b3bc1f68e7260c01b613773565b6134e667209e26bcdec2d61e60c01b613773565b600b600083815260200190815260200160002060405180610160016040529081600082015481526020016001820160009054906101000a900473ffffffffffffffffffffffffffffffffffffffff1673ffffffffffffffffffffffffffffffffffffffff1673ffffffffffffffffffffffffffffffffffffffff168152602001600282018054613575906145fd565b80601f01602080910402602001604051908101604052809291908181526020018280546135a1906145fd565b80156135ee5780601f106135c3576101008083540402835291602001916135ee565b820191906000526020600020905b8154815290600101906020018083116135d157829003601f168201915b50505050508152602001600382018054613607906145fd565b80601f0160208091040260200160405190810160405280929190818152602001828054613633906145fd565b80156136805780601f1061365557610100808354040283529160200191613680565b820191906000526020600020905b81548152906001019060200180831161366357829003601f168201915b50505050508152602001600482015481526020016005820154815260200160068201548152602001600782015481526020016008820160009054906101000a900460ff1615151515815260200160098201548152602001600a820154815250509050919050565b6136ef613776565b600073ffffffffffffffffffffffffffffffffffffffff168173ffffffffffffffffffffffffffffffffffffffff16036137615760006040517f1e4fbdf700000000000000000000000000000000000000000000000000000000815260040161375891906140da565b60405180910390fd5b61376a81613b04565b50565b60035481565b50565b61377e613c29565b73ffffffffffffffffffffffffffffffffffffffff1661379c611cdd565b73ffffffffffffffffffffffffffffffffffffffff16146137fb576137bf613c29565b6040517f118cdaa70000000000000000000000000000000000000000000000000000000081526004016137f291906140da565b60405180910390fd5b565b600260005403613839576040517f3ee5aeb500000000000000000000000000000000000000000000000000000000815260040160405180910390fd5b6002600081905550565b61384b611a52565b15613882576040517fd93c066500000000000000000000000000000000000000000000000000000000815260040160405180910390fd5b565b61389867532f92877e54209460c01b613773565b6138ac676dc1f460294d6b0060c01b613773565b6138c0679f1c025b7024a4d660c01b613773565b6000600e60008473ffffffffffffffffffffffffffffffffffffffff1673ffffffffffffffffffffffffffffffffffffffff1681526020019081526020016000209050613917670a34e731ea4c8ef460c01b613773565b61392b6713fde068c79ef35a60c01b613773565b60005b8180549050811015613a865761394e67b9b32ba080605d2760c01b613773565b61396267a114d6b4f2f2342d60c01b613773565b82828281548110613976576139756155bd565b5b906000526020600020015403613a655761399a67774ba35c3c2f68d760c01b613773565b6139ae6786770df17675f3b260c01b613773565b81600183805490506139c09190615589565b815481106139d1576139d06155bd565b5b90600052602060002001548282815481106139ef576139ee6155bd565b5b9060005260206000200181905550613a11672924470fee7d3a4260c01b613773565b613a2567b332d9b74b2a148460c01b613773565b81805480613a3657613a356155ec565b5b60019003818190600052602060002001600090559055613a60674c165dfc21220b2460c01b613773565b613a86565b613a7967a46f7715e09a353d60c01b613773565b808060010191505061392e565b50505050565b6001600081905550565b613a9e613c31565b6000600160006101000a81548160ff0219169083151502179055507f5db9ee0a495bf2e6ff9c91a7834c1ba4fdd244a5e8aa4e537bd38aeae4b073aa613ae2613c29565b604051613aef91906140da565b60405180910390a1565b600060019050919050565b600060018054906101000a900473ffffffffffffffffffffffffffffffffffffffff169050816001806101000a81548173ffffffffffffffffffffffffffffffffffffffff021916908373ffffffffffffffffffffffffffffffffffffffff1602179055508173ffffffffffffffffffffffffffffffffffffffff168173ffffffffffffffffffffffffffffffffffffffff167f8be0079c531659141344cd1fd0a4f28419497f9722a3daafe3b4186f6b6457e060405160405180910390a35050565b613bcf613843565b60018060006101000a81548160ff0219169083151502179055507f62e78cea01bee320cd4e420270b5ea74000d11b0c9f74754ebdbfc544b05a258613c12613c29565b604051613c1f91906140da565b60405180910390a1565b600033905090565b613c39611a52565b613c6f576040517f8dfc202b00000000000000000000000000000000000000000000000000000000815260040160405180910390fd5b565b6040518060a00160405280600081526020016000815260200160008152602001600073ffffffffffffffffffffffffffffffffffffffff1681526020016000151581525090565b60405180610160016040528060008152602001600073ffffffffffffffffffffffffffffffffffffffff16815260200160608152602001606081526020016000815260200160008152602001600081526020016000815260200160001515815260200160008152602001600080191681525090565b600080fd5b600080fd5b6000819050919050565b613d4a81613d37565b8114613d5557600080fd5b50565b600081359050613d6781613d41565b92915050565b600060208284031215613d8357613d82613d2d565b5b6000613d9184828501613d58565b91505092915050565b613da381613d37565b82525050565b600073ffffffffffffffffffffffffffffffffffffffff82169050919050565b6000613dd482613da9565b9050919050565b613de481613dc9565b82525050565b60008115159050919050565b613dff81613dea565b82525050565b600060a082019050613e1a6000830188613d9a565b613e276020830187613d9a565b613e346040830186613d9a565b613e416060830185613ddb565b613e4e6080830184613df6565b9695505050505050565b600081519050919050565b600082825260208201905092915050565b60005b83811015613e92578082015181840152602081019050613e77565b60008484015250505050565b6000601f19601f8301169050919050565b6000613eba82613e58565b613ec48185613e63565b9350613ed4818560208601613e74565b613edd81613e9e565b840191505092915050565b6000819050919050565b613efb81613ee8565b82525050565b600061016082019050613f17600083018e613d9a565b613f24602083018d613ddb565b8181036040830152613f36818c613eaf565b90508181036060830152613f4a818b613eaf565b9050613f59608083018a613d9a565b613f6660a0830189613d9a565b613f7360c0830188613d9a565b613f8060e0830187613d9a565b613f8e610100830186613df6565b613f9c610120830185613d9a565b613faa610140830184613ef2565b9c9b505050505050505050505050565b613fc381613dc9565b8114613fce57600080fd5b50565b600081359050613fe081613fba565b92915050565b60008060408385031215613ffd57613ffc613d2d565b5b600061400b85828601613fd1565b925050602061401c85828601613d58565b9150509250929050565b600060208201905061403b6000830184613d9a565b92915050565b60006020828403121561405757614056613d2d565b5b600061406584828501613fd1565b91505092915050565b61407781613ee8565b811461408257600080fd5b50565b6000813590506140948161406e565b92915050565b600080604083850312156140b1576140b0613d2d565b5b60006140bf85828601613d58565b92505060206140d085828601614085565b9150509250929050565b60006020820190506140ef6000830184613ddb565b92915050565b600060208201905061410a6000830184613df6565b92915050565b60006020828403121561412657614125613d2d565b5b600061413484828501614085565b91505092915050565b600081519050919050565b600082825260208201905092915050565b6000819050602082019050919050565b61417281613d37565b82525050565b60006141848383614169565b60208301905092915050565b6000602082019050919050565b60006141a88261413d565b6141b28185614148565b93506141bd83614159565b8060005b838110156141ee5781516141d58882614178565b97506141e083614190565b9250506001810190506141c1565b5085935050505092915050565b60006020820190508181036000830152614215818461419d565b905092915050565b6000806040838503121561423457614233613d2d565b5b600061424285828601613d58565b925050602061425385828601613fd1565b9150509250929050565b61426681613dc9565b82525050565b61427581613dea565b82525050565b60a0820160008201516142916000850182614169565b5060208201516142a46020850182614169565b5060408201516142b76040850182614169565b5060608201516142ca606085018261425d565b5060808201516142dd608085018261426c565b50505050565b600060a0820190506142f8600083018461427b565b92915050565b600080fd5b600080fd5b600080fd5b60008083601f840112614323576143226142fe565b5b8235905067ffffffffffffffff8111156143405761433f614303565b5b60208301915083600182028301111561435c5761435b614308565b5b9250929050565b600080600080600080608087890312156143805761437f613d2d565b5b600087013567ffffffffffffffff81111561439e5761439d613d32565b5b6143aa89828a0161430d565b9650965050602087013567ffffffffffffffff8111156143cd576143cc613d32565b5b6143d989828a0161430d565b945094505060406143ec89828a01613d58565b92505060606143fd89828a01613d58565b9150509295509295509295565b60008060006060848603121561442357614422613d2d565b5b600061443186828701613d58565b935050602061444286828701613d58565b925050604061445386828701613fd1565b9150509250925092565b600082825260208201905092915050565b600061447982613e58565b614483818561445d565b9350614493818560208601613e74565b61449c81613e9e565b840191505092915050565b6144b081613ee8565b82525050565b6000610160830160008301516144cf6000860182614169565b5060208301516144e2602086018261425d565b50604083015184820360408601526144fa828261446e565b91505060608301518482036060860152614514828261446e565b91505060808301516145296080860182614169565b5060a083015161453c60a0860182614169565b5060c083015161454f60c0860182614169565b5060e083015161456260e0860182614169565b5061010083015161457761010086018261426c565b5061012083015161458c610120860182614169565b506101408301516145a16101408601826144a7565b508091505092915050565b600060208201905081810360008301526145c681846144b6565b905092915050565b7f4e487b7100000000000000000000000000000000000000000000000000000000600052602260045260246000fd5b6000600282049050600182168061461557607f821691505b602082108103614628576146276145ce565b5b50919050565b7f57617465725661756c743a20496e76616c6964206f7261636c6520616464726560008201527f7373000000000000000000000000000000000000000000000000000000000000602082015250565b600061468a602283613e63565b91506146958261462e565b604082019050919050565b600060208201905081810360008301526146b98161467d565b9050919050565b7f57617465725661756c743a20496e76616c696420637265646974204944000000600082015250565b60006146f6601d83613e63565b9150614701826146c0565b602082019050919050565b60006020820190508181036000830152614725816146e9565b9050919050565b7f57617465725661756c743a2043726564697420616c726561647920726574697260008201527f6564000000000000000000000000000000000000000000000000000000000000602082015250565b6000614788602283613e63565b91506147938261472c565b604082019050919050565b600060208201905081810360008301526147b78161477b565b9050919050565b7f57617465725661756c743a204f6e6c79206f776e65722063616e20726574697260008201527f6500000000000000000000000000000000000000000000000000000000000000602082015250565b600061481a602183613e63565b9150614825826147be565b604082019050919050565b600060208201905081810360008301526148498161480d565b9050919050565b7f57617465725661756c743a204f6e6c79206f7261636c652063616e2063616c6c600082015250565b6000614886602083613e63565b915061489182614850565b602082019050919050565b600060208201905081810360008301526148b581614879565b9050919050565b7f57617465725661756c743a20496e76616c69642070726f6a6563742049440000600082015250565b60006148f2601e83613e63565b91506148fd826148bc565b602082019050919050565b60006020820190508181036000830152614921816148e5565b9050919050565b7f57617465725661756c743a20496e76616c69642063657274696669636174696f60008201527f6e20686173680000000000000000000000000000000000000000000000000000602082015250565b6000614984602683613e63565b915061498f82614928565b604082019050919050565b600060208201905081810360008301526149b381614977565b9050919050565b7f57617465725661756c743a2043657274696669636174696f6e20616c7265616460008201527f7920757365640000000000000000000000000000000000000000000000000000602082015250565b6000614a16602683613e63565b9150614a21826149ba565b604082019050919050565b60006020820190508181036000830152614a4581614a09565b9050919050565b7f57617465725661756c743a2050726f6a65637420616c7265616479207665726960008201527f6669656400000000000000000000000000000000000000000000000000000000602082015250565b6000614aa8602483613e63565b9150614ab382614a4c565b604082019050919050565b60006020820190508181036000830152614ad781614a9b565b9050919050565b7f4e487b7100000000000000000000000000000000000000000000000000000000600052601160045260246000fd5b6000614b1882613d37565b9150614b2383613d37565b9250828201905080821115614b3b57614b3a614ade565b5b92915050565b6000604082019050614b566000830185613d9a565b614b636020830184613ef2565b9392505050565b7f57617465725661756c743a20556e617574686f72697a65640000000000000000600082015250565b6000614ba0601883613e63565b9150614bab82614b6a565b602082019050919050565b60006020820190508181036000830152614bcf81614b93565b9050919050565b6000614be182613d37565b91507fffffffffffffffffffffffffffffffffffffffffffffffffffffffffffffffff8203614c1357614c12614ade565b5b600182019050919050565b7f57617465725661756c743a20466565207261746520746f6f2068696768000000600082015250565b6000614c54601d83613e63565b9150614c5f82614c1e565b602082019050919050565b60006020820190508181036000830152614c8381614c47565b9050919050565b7f57617465725661756c743a20496e76616c696420726563697069656e74000000600082015250565b6000614cc0601d83613e63565b9150614ccb82614c8a565b602082019050919050565b60006020820190508181036000830152614cef81614cb3565b9050919050565b7f57617465725661756c743a204f6e6c79206f776e65722063616e207472616e7360008201527f6665720000000000000000000000000000000000000000000000000000000000602082015250565b6000614d52602383613e63565b9150614d5d82614cf6565b604082019050919050565b60006020820190508181036000830152614d8181614d45565b9050919050565b7f57617465725661756c743a2050726f6a656374206e616d65207265717569726560008201527f6400000000000000000000000000000000000000000000000000000000000000602082015250565b6000614de4602183613e63565b9150614def82614d88565b604082019050919050565b60006020820190508181036000830152614e1381614dd7565b9050919050565b7f57617465725661756c743a204c6f636174696f6e207265717569726564000000600082015250565b6000614e50601d83613e63565b9150614e5b82614e1a565b602082019050919050565b60006020820190508181036000830152614e7f81614e43565b9050919050565b7f57617465725661756c743a205761746572207361766564206d7573742062652060008201527f706f736974697665000000000000000000000000000000000000000000000000602082015250565b6000614ee2602883613e63565b9150614eed82614e86565b604082019050919050565b60006020820190508181036000830152614f1181614ed5565b9050919050565b7f57617465725661756c743a204372656469742072617465206d7573742062652060008201527f706f736974697665000000000000000000000000000000000000000000000000602082015250565b6000614f74602883613e63565b9150614f7f82614f18565b604082019050919050565b60006020820190508181036000830152614fa381614f67565b9050919050565b6000614fb582613d37565b9150614fc083613d37565b9250828202614fce81613d37565b91508282048414831517614fe557614fe4614ade565b5b5092915050565b7f4e487b7100000000000000000000000000000000000000000000000000000000600052601260045260246000fd5b600061502682613d37565b915061503183613d37565b92508261504157615040614fec565b5b828204905092915050565b7f4e487b7100000000000000000000000000000000000000000000000000000000600052604160045260246000fd5b60008190508160005260206000209050919050565b60006020601f8301049050919050565b600082821b905092915050565b6000600883026150dd7fffffffffffffffffffffffffffffffffffffffffffffffffffffffffffffffff826150a0565b6150e786836150a0565b95508019841693508086168417925050509392505050565b6000819050919050565b600061512461511f61511a84613d37565b6150ff565b613d37565b9050919050565b6000819050919050565b61513e83615109565b61515261514a8261512b565b8484546150ad565b825550505050565b600090565b61516761515a565b615172818484615135565b505050565b5b818110156151965761518b60008261515f565b600181019050615178565b5050565b601f8211156151db576151ac8161507b565b6151b584615090565b810160208510156151c4578190505b6151d86151d085615090565b830182615177565b50505b505050565b600082821c905092915050565b60006151fe600019846008026151e0565b1980831691505092915050565b600061521783836151ed565b9150826002028217905092915050565b61523082613e58565b67ffffffffffffffff8111156152495761524861504c565b5b61525382546145fd565b61525e82828561519a565b600060209050601f831160018114615291576000841561527f578287015190505b615289858261520b565b8655506152f1565b601f19841661529f8661507b565b60005b828110156152c7578489015182556001820191506020850194506020810190506152a2565b868310156152e457848901516152e0601f8916826151ed565b8355505b6001600288020188555050505b505050505050565b82818337600083830152505050565b60006153148385613e63565b93506153218385846152f9565b61532a83613e9e565b840190509392505050565b60006040820190508181036000830152615350818587615308565b905061535f6020830184613d9a565b949350505050565b7f57617465725661756c743a2050726f6a656374206e6f74206163746976650000600082015250565b600061539d601e83613e63565b91506153a882615367565b602082019050919050565b600060208201905081810360008301526153cc81615390565b9050919050565b7f57617465725661756c743a20416d6f756e74206d75737420626520706f73697460008201527f6976650000000000000000000000000000000000000000000000000000000000602082015250565b600061542f602383613e63565b915061543a826153d3565b604082019050919050565b6000602082019050818103600083015261545e81615422565b9050919050565b7f57617465725661756c743a204f6e6c792070726f6a656374206f776e6572206360008201527f616e206973737565000000000000000000000000000000000000000000000000602082015250565b60006154c1602883613e63565b91506154cc82615465565b604082019050919050565b600060208201905081810360008301526154f0816154b4565b9050919050565b7f57617465725661756c743a20496e73756666696369656e7420617661696c616260008201527f6c65206372656469747300000000000000000000000000000000000000000000602082015250565b6000615553602a83613e63565b915061555e826154f7565b604082019050919050565b6000602082019050818103600083015261558281615546565b9050919050565b600061559482613d37565b915061559f83613d37565b92508282039050818111156155b7576155b6614ade565b5b92915050565b7f4e487b7100000000000000000000000000000000000000000000000000000000600052603260045260246000fd5b7f4e487b7100000000000000000000000000000000000000000000000000000000600052603160045260246000fdfea264697066735822122012aa53f8c2816f5a69f510e736de1977d62a59705fa08f7b26ab23e27f37a87c64736f6c63430008180033",
  "linkReferences": {},
  "deployedLinkReferences": {}
}