{
  "_format": "hh-sol-artifact-1",
  "contractName": "ESGStablecoin",
  "sourceName": "contracts/ESGStablecoin.sol",
  "abi": [
    {
      "inputs": [
        {
          "internalType": "string",
          "name": "name",
          "type": "string"
        },
        {
          "internalType": "string",
          "name": "symbol",
          "type": "string"
        },
        {
          "internalType": "address",
          "name": "_treasury",
          "type": "address"
        },
        {
          "internalType": "address",
          "name": "_emergencyOracle",
          "type": "address"
        }
      ],
      "stateMutability": "nonpayable",
      "type": "constructor"
    },
    {
      "inputs": [
        {
          "internalType": "address",
          "name": "spender",
          "type": "address"
        },
        {
          "internalType": "uint256",
          "name": "allowance",
          "type": "uint256"
        },
        {
          "internalType": "uint256",
          "name": "needed",
          "type": "uint256"
        }
      ],
      "name": "ERC20InsufficientAllowance",
      "type": "error"
    },
    {
      "inputs": [
        {
          "internalType": "address",
          "name": "sender",
          "type": "address"
        },
        {
          "internalType": "uint256",
          "name": "balance",
          "type": "uint256"
        },
        {
          "internalType": "uint256",
          "name": "needed",
          "type": "uint256"
        }
      ],
      "name": "ERC20InsufficientBalance",
      "type": "error"
    },
    {
      "inputs": [
        {
          "internalType": "address",
          "name": "approver",
          "type": "address"
        }
      ],
      "name": "ERC20InvalidApprover",
      "type": "error"
    },
    {
      "inputs": [
        {
          "internalType": "address",
          "name": "receiver",
          "type": "address"
        }
      ],
      "name": "ERC20InvalidReceiver",
      "type": "error"
    },
    {
      "inputs": [
        {
          "internalType": "address",
          "name": "sender",
          "type": "address"
        }
      ],
      "name": "ERC20InvalidSender",
      "type": "error"
    },
    {
      "inputs": [
        {
          "internalType": "address",
          "name": "spender",
          "type": "address"
        }
      ],
      "name": "ERC20InvalidSpender",
      "type": "error"
    },
    {
      "inputs": [],
      "name": "EnforcedPause",
      "type": "error"
    },
    {
      "inputs": [],
      "name": "ExpectedPause",
      "type": "error"
    },
    {
      "inputs": [
        {
          "internalType": "address",
          "name": "owner",
          "type": "address"
        }
      ],
      "name": "OwnableInvalidOwner",
      "type": "error"
    },
    {
      "inputs": [
        {
          "internalType": "address",
          "name": "account",
          "type": "address"
        }
      ],
      "name": "OwnableUnauthorizedAccount",
      "type": "error"
    },
    {
      "inputs": [],
      "name": "ReentrancyGuardReentrantCall",
      "type": "error"
    },
    {
      "anonymous": false,
      "inputs": [
        {
          "indexed": true,
          "internalType": "address",
          "name": "owner",
          "type": "address"
        },
        {
          "indexed": true,
          "internalType": "address",
          "name": "spender",
          "type": "address"
        },
        {
          "indexed": false,
          "internalType": "uint256",
          "name": "value",
          "type": "uint256"
        }
      ],
      "name": "Approval",
      "type": "event"
    },
    {
      "anonymous": false,
      "inputs": [
        {
          "indexed": true,
          "internalType": "address",
          "name": "asset",
          "type": "address"
        },
        {
          "indexed": false,
          "internalType": "enum ESGStablecoin.CollateralType",
          "name": "collateralType",
          "type": "uint8"
        },
        {
          "indexed": false,
          "internalType": "uint256",
          "name": "collateralRatio",
          "type": "uint256"
        }
      ],
      "name": "CollateralAdded",
      "type": "event"
    },
    {
      "anonymous": false,
      "inputs": [
        {
          "indexed": true,
          "internalType": "address",
          "name": "user",
          "type": "address"
        },
        {
          "indexed": true,
          "internalType": "address",
          "name": "collateralAsset",
          "type": "address"
        },
        {
          "indexed": false,
          "internalType": "uint256",
          "name": "amount",
          "type": "uint256"
        }
      ],
      "name": "CollateralDeposited",
      "type": "event"
    },
    {
      "anonymous": false,
      "inputs": [
        {
          "indexed": true,
          "internalType": "address",
          "name": "asset",
          "type": "address"
        },
        {
          "indexed": false,
          "internalType": "uint256",
          "name": "newCollateralRatio",
          "type": "uint256"
        },
        {
          "indexed": false,
          "internalType": "uint256",
          "name": "newLiquidationThreshold",
          "type": "uint256"
        }
      ],
      "name": "CollateralUpdated",
      "type": "event"
    },
    {
      "anonymous": false,
      "inputs": [
        {
          "indexed": true,
          "internalType": "address",
          "name": "user",
          "type": "address"
        },
        {
          "indexed": true,
          "internalType": "address",
          "name": "collateralAsset",
          "type": "address"
        },
        {
          "indexed": false,
          "internalType": "uint256",
          "name": "amount",
          "type": "uint256"
        }
      ],
      "name": "CollateralWithdrawn",
      "type": "event"
    },
    {
      "anonymous": false,
      "inputs": [
        {
          "indexed": true,
          "internalType": "address",
          "name": "user",
          "type": "address"
        },
        {
          "indexed": false,
          "internalType": "uint256",
          "name": "newScore",
          "type": "uint256"
        }
      ],
      "name": "ESGScoreUpdated",
      "type": "event"
    },
    {
      "anonymous": false,
      "inputs": [
        {
          "indexed": true,
          "internalType": "address",
          "name": "user",
          "type": "address"
        },
        {
          "indexed": true,
          "internalType": "address",
          "name": "collateralAsset",
          "type": "address"
        },
        {
          "indexed": false,
          "internalType": "uint256",
          "name": "collateralLiquidated",
          "type": "uint256"
        },
        {
          "indexed": false,
          "internalType": "uint256",
          "name": "debtRepaid",
          "type": "uint256"
        }
      ],
      "name": "Liquidation",
      "type": "event"
    },
    {
      "anonymous": false,
      "inputs": [
        {
          "indexed": true,
          "internalType": "address",
          "name": "previousOwner",
          "type": "address"
        },
        {
          "indexed": true,
          "internalType": "address",
          "name": "newOwner",
          "type": "address"
        }
      ],
      "name": "OwnershipTransferred",
      "type": "event"
    },
    {
      "anonymous": false,
      "inputs": [
        {
          "indexed": false,
          "internalType": "address",
          "name": "account",
          "type": "address"
        }
      ],
      "name": "Paused",
      "type": "event"
    },
    {
      "anonymous": false,
      "inputs": [
        {
          "indexed": false,
          "internalType": "uint256",
          "name": "newPrice",
          "type": "uint256"
        },
        {
          "indexed": false,
          "internalType": "uint256",
          "name": "timestamp",
          "type": "uint256"
        }
      ],
      "name": "PriceUpdated",
      "type": "event"
    },
    {
      "anonymous": false,
      "inputs": [
        {
          "indexed": true,
          "internalType": "address",
          "name": "user",
          "type": "address"
        },
        {
          "indexed": false,
          "internalType": "uint256",
          "name": "feeAmount",
          "type": "uint256"
        }
      ],
      "name": "StabilityFeeCollected",
      "type": "event"
    },
    {
      "anonymous": false,
      "inputs": [
        {
          "indexed": true,
          "internalType": "address",
          "name": "user",
          "type": "address"
        },
        {
          "indexed": true,
          "internalType": "address",
          "name": "collateralAsset",
          "type": "address"
        },
        {
          "indexed": false,
          "internalType": "uint256",
          "name": "amount",
          "type": "uint256"
        }
      ],
      "name": "StablecoinBurned",
      "type": "event"
    },
    {
      "anonymous": false,
      "inputs": [
        {
          "indexed": true,
          "internalType": "address",
          "name": "user",
          "type": "address"
        },
        {
          "indexed": true,
          "internalType": "address",
          "name": "collateralAsset",
          "type": "address"
        },
        {
          "indexed": false,
          "internalType": "uint256",
          "name": "amount",
          "type": "uint256"
        }
      ],
      "name": "StablecoinMinted",
      "type": "event"
    },
    {
      "anonymous": false,
      "inputs": [
        {
          "indexed": true,
          "internalType": "address",
          "name": "from",
          "type": "address"
        },
        {
          "indexed": true,
          "internalType": "address",
          "name": "to",
          "type": "address"
        },
        {
          "indexed": false,
          "internalType": "uint256",
          "name": "value",
          "type": "uint256"
        }
      ],
      "name": "Transfer",
      "type": "event"
    },
    {
      "anonymous": false,
      "inputs": [
        {
          "indexed": false,
          "internalType": "address",
          "name": "account",
          "type": "address"
        }
      ],
      "name": "Unpaused",
      "type": "event"
    },
    {
      "inputs": [],
      "name": "ESG_SCORE_MULTIPLIER",
      "outputs": [
        {
          "internalType": "uint256",
          "name": "",
          "type": "uint256"
        }
      ],
      "stateMutability": "view",
      "type": "function"
    },
    {
      "inputs": [],
      "name": "TARGET_PRICE",
      "outputs": [
        {
          "internalType": "uint256",
          "name": "",
          "type": "uint256"
        }
      ],
      "stateMutability": "view",
      "type": "function"
    },
    {
      "inputs": [
        {
          "internalType": "address",
          "name": "asset",
          "type": "address"
        },
        {
          "internalType": "enum ESGStablecoin.CollateralType",
          "name": "collateralType",
          "type": "uint8"
        },
        {
          "internalType": "uint256",
          "name": "collateralRatio",
          "type": "uint256"
        },
        {
          "internalType": "uint256",
          "name": "liquidationThreshold",
          "type": "uint256"
        },
        {
          "internalType": "address",
          "name": "priceOracle",
          "type": "address"
        }
      ],
      "name": "addCollateral",
      "outputs": [],
      "stateMutability": "nonpayable",
      "type": "function"
    },
    {
      "inputs": [
        {
          "internalType": "address",
          "name": "owner",
          "type": "address"
        },
        {
          "internalType": "address",
          "name": "spender",
          "type": "address"
        }
      ],
      "name": "allowance",
      "outputs": [
        {
          "internalType": "uint256",
          "name": "",
          "type": "uint256"
        }
      ],
      "stateMutability": "view",
      "type": "function"
    },
    {
      "inputs": [
        {
          "internalType": "address",
          "name": "spender",
          "type": "address"
        },
        {
          "internalType": "uint256",
          "name": "value",
          "type": "uint256"
        }
      ],
      "name": "approve",
      "outputs": [
        {
          "internalType": "bool",
          "name": "",
          "type": "bool"
        }
      ],
      "stateMutability": "nonpayable",
      "type": "function"
    },
    {
      "inputs": [
        {
          "internalType": "address",
          "name": "account",
          "type": "address"
        }
      ],
      "name": "balanceOf",
      "outputs": [
        {
          "internalType": "uint256",
          "name": "",
          "type": "uint256"
        }
      ],
      "stateMutability": "view",
      "type": "function"
    },
    {
      "inputs": [
        {
          "internalType": "uint256",
          "name": "value",
          "type": "uint256"
        }
      ],
      "name": "burn",
      "outputs": [],
      "stateMutability": "nonpayable",
      "type": "function"
    },
    {
      "inputs": [
        {
          "internalType": "address",
          "name": "account",
          "type": "address"
        },
        {
          "internalType": "uint256",
          "name": "value",
          "type": "uint256"
        }
      ],
      "name": "burnFrom",
      "outputs": [],
      "stateMutability": "nonpayable",
      "type": "function"
    },
    {
      "inputs": [
        {
          "internalType": "uint256",
          "name": "",
          "type": "uint256"
        }
      ],
      "name": "collateralAssets",
      "outputs": [
        {
          "internalType": "address",
          "name": "",
          "type": "address"
        }
      ],
      "stateMutability": "view",
      "type": "function"
    },
    {
      "inputs": [
        {
          "internalType": "address",
          "name": "",
          "type": "address"
        }
      ],
      "name": "collaterals",
      "outputs": [
        {
          "internalType": "address",
          "name": "tokenAddress",
          "type": "address"
        },
        {
          "internalType": "enum ESGStablecoin.CollateralType",
          "name": "collateralType",
          "type": "uint8"
        },
        {
          "internalType": "uint256",
          "name": "collateralRatio",
          "type": "uint256"
        },
        {
          "internalType": "uint256",
          "name": "liquidationThreshold",
          "type": "uint256"
        },
        {
          "internalType": "uint256",
          "name": "totalDeposited",
          "type": "uint256"
        },
        {
          "internalType": "uint256",
          "name": "totalBorrowed",
          "type": "uint256"
        },
        {
          "internalType": "bool",
          "name": "isActive",
          "type": "bool"
        },
        {
          "internalType": "address",
          "name": "priceOracle",
          "type": "address"
        },
        {
          "internalType": "uint256",
          "name": "lastPriceUpdate",
          "type": "uint256"
        }
      ],
      "stateMutability": "view",
      "type": "function"
    },
    {
      "inputs": [],
      "name": "collectFees",
      "outputs": [],
      "stateMutability": "nonpayable",
      "type": "function"
    },
    {
      "inputs": [],
      "name": "currentPrice",
      "outputs": [
        {
          "internalType": "uint256",
          "name": "",
          "type": "uint256"
        }
      ],
      "stateMutability": "view",
      "type": "function"
    },
    {
      "inputs": [],
      "name": "decimals",
      "outputs": [
        {
          "internalType": "uint8",
          "name": "",
          "type": "uint8"
        }
      ],
      "stateMutability": "view",
      "type": "function"
    },
    {
      "inputs": [
        {
          "internalType": "address",
          "name": "collateralAsset",
          "type": "address"
        },
        {
          "internalType": "uint256",
          "name": "amount",
          "type": "uint256"
        }
      ],
      "name": "depositCollateral",
      "outputs": [],
      "stateMutability": "nonpayable",
      "type": "function"
    },
    {
      "inputs": [],
      "name": "emergencyOracle",
      "outputs": [
        {
          "internalType": "address",
          "name": "",
          "type": "address"
        }
      ],
      "stateMutability": "view",
      "type": "function"
    },
    {
      "inputs": [],
      "name": "getCollateralAssets",
      "outputs": [
        {
          "internalType": "address[]",
          "name": "",
          "type": "address[]"
        }
      ],
      "stateMutability": "view",
      "type": "function"
    },
    {
      "inputs": [
        {
          "internalType": "address",
          "name": "asset",
          "type": "address"
        }
      ],
      "name": "getCollateralInfo",
      "outputs": [
        {
          "components": [
            {
              "internalType": "address",
              "name": "tokenAddress",
              "type": "address"
            },
            {
              "internalType": "enum ESGStablecoin.CollateralType",
              "name": "collateralType",
              "type": "uint8"
            },
            {
              "internalType": "uint256",
              "name": "collateralRatio",
              "type": "uint256"
            },
            {
              "internalType": "uint256",
              "name": "liquidationThreshold",
              "type": "uint256"
            },
            {
              "internalType": "uint256",
              "name": "totalDeposited",
              "type": "uint256"
            },
            {
              "internalType": "uint256",
              "name": "totalBorrowed",
              "type": "uint256"
            },
            {
              "internalType": "bool",
              "name": "isActive",
              "type": "bool"
            },
            {
              "internalType": "address",
              "name": "priceOracle",
              "type": "address"
            },
            {
              "internalType": "uint256",
              "name": "lastPriceUpdate",
              "type": "uint256"
            }
          ],
          "internalType": "struct ESGStablecoin.CollateralAsset",
          "name": "",
          "type": "tuple"
        }
      ],
      "stateMutability": "view",
      "type": "function"
    },
    {
      "inputs": [
        {
          "internalType": "address",
          "name": "user",
          "type": "address"
        },
        {
          "internalType": "address",
          "name": "collateralAsset",
          "type": "address"
        }
      ],
      "name": "getCollateralRatio",
      "outputs": [
        {
          "internalType": "uint256",
          "name": "",
          "type": "uint256"
        }
      ],
      "stateMutability": "view",
      "type": "function"
    },
    {
      "inputs": [
        {
          "internalType": "uint256",
          "name": "index",
          "type": "uint256"
        }
      ],
      "name": "getLiquidationHistory",
      "outputs": [
        {
          "components": [
            {
              "internalType": "address",
              "name": "user",
              "type": "address"
            },
            {
              "internalType": "address",
              "name": "collateralAsset",
              "type": "address"
            },
            {
              "internalType": "uint256",
              "name": "collateralAmount",
              "type": "uint256"
            },
            {
              "internalType": "uint256",
              "name": "debtAmount",
              "type": "uint256"
            },
            {
              "internalType": "uint256",
              "name": "liquidationPrice",
              "type": "uint256"
            },
            {
              "internalType": "uint256",
              "name": "timestamp",
              "type": "uint256"
            }
          ],
          "internalType": "struct ESGStablecoin.LiquidationData",
          "name": "",
          "type": "tuple"
        }
      ],
      "stateMutability": "view",
      "type": "function"
    },
    {
      "inputs": [
        {
          "internalType": "address",
          "name": "user",
          "type": "address"
        },
        {
          "internalType": "address",
          "name": "collateralAsset",
          "type": "address"
        }
      ],
      "name": "getMaxMintable",
      "outputs": [
        {
          "internalType": "uint256",
          "name": "",
          "type": "uint256"
        }
      ],
      "stateMutability": "view",
      "type": "function"
    },
    {
      "inputs": [
        {
          "internalType": "address",
          "name": "user",
          "type": "address"
        }
      ],
      "name": "getUserESGScore",
      "outputs": [
        {
          "internalType": "uint256",
          "name": "",
          "type": "uint256"
        }
      ],
      "stateMutability": "view",
      "type": "function"
    },
    {
      "inputs": [
        {
          "internalType": "address",
          "name": "user",
          "type": "address"
        },
        {
          "internalType": "address",
          "name": "collateralAsset",
          "type": "address"
        }
      ],
      "name": "getUserPosition",
      "outputs": [
        {
          "components": [
            {
              "internalType": "uint256",
              "name": "collateralAmount",
              "type": "uint256"
            },
            {
              "internalType": "uint256",
              "name": "borrowedAmount",
              "type": "uint256"
            },
            {
              "internalType": "uint256",
              "name": "lastUpdate",
              "type": "uint256"
            },
            {
              "internalType": "bool",
              "name": "isActive",
              "type": "bool"
            }
          ],
          "internalType": "struct ESGStablecoin.Position",
          "name": "",
          "type": "tuple"
        }
      ],
      "stateMutability": "view",
      "type": "function"
    },
    {
      "inputs": [
        {
          "internalType": "address",
          "name": "user",
          "type": "address"
        },
        {
          "internalType": "address",
          "name": "collateralAsset",
          "type": "address"
        }
      ],
      "name": "isLiquidatable",
      "outputs": [
        {
          "internalType": "bool",
          "name": "",
          "type": "bool"
        }
      ],
      "stateMutability": "view",
      "type": "function"
    },
    {
      "inputs": [],
      "name": "lastFeeCollection",
      "outputs": [
        {
          "internalType": "uint256",
          "name": "",
          "type": "uint256"
        }
      ],
      "stateMutability": "view",
      "type": "function"
    },
    {
      "inputs": [],
      "name": "lastPriceUpdate",
      "outputs": [
        {
          "internalType": "uint256",
          "name": "",
          "type": "uint256"
        }
      ],
      "stateMutability": "view",
      "type": "function"
    },
    {
      "inputs": [
        {
          "internalType": "address",
          "name": "user",
          "type": "address"
        },
        {
          "internalType": "address",
          "name": "collateralAsset",
          "type": "address"
        },
        {
          "internalType": "uint256",
          "name": "debtAmount",
          "type": "uint256"
        }
      ],
      "name": "liquidate",
      "outputs": [],
      "stateMutability": "nonpayable",
      "type": "function"
    },
    {
      "inputs": [
        {
          "internalType": "uint256",
          "name": "",
          "type": "uint256"
        }
      ],
      "name": "liquidationHistory",
      "outputs": [
        {
          "internalType": "address",
          "name": "user",
          "type": "address"
        },
        {
          "internalType": "address",
          "name": "collateralAsset",
          "type": "address"
        },
        {
          "internalType": "uint256",
          "name": "collateralAmount",
          "type": "uint256"
        },
        {
          "internalType": "uint256",
          "name": "debtAmount",
          "type": "uint256"
        },
        {
          "internalType": "uint256",
          "name": "liquidationPrice",
          "type": "uint256"
        },
        {
          "internalType": "uint256",
          "name": "timestamp",
          "type": "uint256"
        }
      ],
      "stateMutability": "view",
      "type": "function"
    },
    {
      "inputs": [],
      "name": "liquidationPenalty",
      "outputs": [
        {
          "internalType": "uint256",
          "name": "",
          "type": "uint256"
        }
      ],
      "stateMutability": "view",
      "type": "function"
    },
    {
      "inputs": [],
      "name": "minimumCollateralRatio",
      "outputs": [
        {
          "internalType": "uint256",
          "name": "",
          "type": "uint256"
        }
      ],
      "stateMutability": "view",
      "type": "function"
    },
    {
      "inputs": [
        {
          "internalType": "address",
          "name": "collateralAsset",
          "type": "address"
        },
        {
          "internalType": "uint256",
          "name": "amount",
          "type": "uint256"
        }
      ],
      "name": "mintStablecoin",
      "outputs": [],
      "stateMutability": "nonpayable",
      "type": "function"
    },
    {
      "inputs": [],
      "name": "name",
      "outputs": [
        {
          "internalType": "string",
          "name": "",
          "type": "string"
        }
      ],
      "stateMutability": "view",
      "type": "function"
    },
    {
      "inputs": [],
      "name": "owner",
      "outputs": [
        {
          "internalType": "address",
          "name": "",
          "type": "address"
        }
      ],
      "stateMutability": "view",
      "type": "function"
    },
    {
      "inputs": [],
      "name": "pause",
      "outputs": [],
      "stateMutability": "nonpayable",
      "type": "function"
    },
    {
      "inputs": [],
      "name": "paused",
      "outputs": [
        {
          "internalType": "bool",
          "name": "",
          "type": "bool"
        }
      ],
      "stateMutability": "view",
      "type": "function"
    },
    {
      "inputs": [
        {
          "internalType": "address",
          "name": "",
          "type": "address"
        },
        {
          "internalType": "address",
          "name": "",
          "type": "address"
        }
      ],
      "name": "positions",
      "outputs": [
        {
          "internalType": "uint256",
          "name": "collateralAmount",
          "type": "uint256"
        },
        {
          "internalType": "uint256",
          "name": "borrowedAmount",
          "type": "uint256"
        },
        {
          "internalType": "uint256",
          "name": "lastUpdate",
          "type": "uint256"
        },
        {
          "internalType": "bool",
          "name": "isActive",
          "type": "bool"
        }
      ],
      "stateMutability": "view",
      "type": "function"
    },
    {
      "inputs": [],
      "name": "priceUpdateFrequency",
      "outputs": [
        {
          "internalType": "uint256",
          "name": "",
          "type": "uint256"
        }
      ],
      "stateMutability": "view",
      "type": "function"
    },
    {
      "inputs": [],
      "name": "renounceOwnership",
      "outputs": [],
      "stateMutability": "nonpayable",
      "type": "function"
    },
    {
      "inputs": [
        {
          "internalType": "address",
          "name": "collateralAsset",
          "type": "address"
        },
        {
          "internalType": "uint256",
          "name": "amount",
          "type": "uint256"
        }
      ],
      "name": "repayStablecoin",
      "outputs": [],
      "stateMutability": "nonpayable",
      "type": "function"
    },
    {
      "inputs": [],
      "name": "stabilityFeeRate",
      "outputs": [
        {
          "internalType": "uint256",
          "name": "",
          "type": "uint256"
        }
      ],
      "stateMutability": "view",
      "type": "function"
    },
    {
      "inputs": [],
      "name": "symbol",
      "outputs": [
        {
          "internalType": "string",
          "name": "",
          "type": "string"
        }
      ],
      "stateMutability": "view",
      "type": "function"
    },
    {
      "inputs": [],
      "name": "totalProtocolFees",
      "outputs": [
        {
          "internalType": "uint256",
          "name": "",
          "type": "uint256"
        }
      ],
      "stateMutability": "view",
      "type": "function"
    },
    {
      "inputs": [],
      "name": "totalSupply",
      "outputs": [
        {
          "internalType": "uint256",
          "name": "",
          "type": "uint256"
        }
      ],
      "stateMutability": "view",
      "type": "function"
    },
    {
      "inputs": [
        {
          "internalType": "address",
          "name": "",
          "type": "address"
        }
      ],
      "name": "totalUserDebt",
      "outputs": [
        {
          "internalType": "uint256",
          "name": "",
          "type": "uint256"
        }
      ],
      "stateMutability": "view",
      "type": "function"
    },
    {
      "inputs": [
        {
          "internalType": "address",
          "name": "to",
          "type": "address"
        },
        {
          "internalType": "uint256",
          "name": "value",
          "type": "uint256"
        }
      ],
      "name": "transfer",
      "outputs": [
        {
          "internalType": "bool",
          "name": "",
          "type": "bool"
        }
      ],
      "stateMutability": "nonpayable",
      "type": "function"
    },
    {
      "inputs": [
        {
          "internalType": "address",
          "name": "from",
          "type": "address"
        },
        {
          "internalType": "address",
          "name": "to",
          "type": "address"
        },
        {
          "internalType": "uint256",
          "name": "value",
          "type": "uint256"
        }
      ],
      "name": "transferFrom",
      "outputs": [
        {
          "internalType": "bool",
          "name": "",
          "type": "bool"
        }
      ],
      "stateMutability": "nonpayable",
      "type": "function"
    },
    {
      "inputs": [
        {
          "internalType": "address",
          "name": "newOwner",
          "type": "address"
        }
      ],
      "name": "transferOwnership",
      "outputs": [],
      "stateMutability": "nonpayable",
      "type": "function"
    },
    {
      "inputs": [],
      "name": "treasury",
      "outputs": [
        {
          "internalType": "address",
          "name": "",
          "type": "address"
        }
      ],
      "stateMutability": "view",
      "type": "function"
    },
    {
      "inputs": [
        {
          "internalType": "enum ESGStablecoin.CollateralType",
          "name": "",
          "type": "uint8"
        }
      ],
      "name": "typeESGWeight",
      "outputs": [
        {
          "internalType": "uint256",
          "name": "",
          "type": "uint256"
        }
      ],
      "stateMutability": "view",
      "type": "function"
    },
    {
      "inputs": [],
      "name": "unpause",
      "outputs": [],
      "stateMutability": "nonpayable",
      "type": "function"
    },
    {
      "inputs": [
        {
          "internalType": "address",
          "name": "user",
          "type": "address"
        },
        {
          "internalType": "uint256",
          "name": "newScore",
          "type": "uint256"
        }
      ],
      "name": "updateESGScore",
      "outputs": [],
      "stateMutability": "nonpayable",
      "type": "function"
    },
    {
      "inputs": [
        {
          "internalType": "uint256",
          "name": "newPrice",
          "type": "uint256"
        }
      ],
      "name": "updatePrice",
      "outputs": [],
      "stateMutability": "nonpayable",
      "type": "function"
    },
    {
      "inputs": [
        {
          "internalType": "address",
          "name": "",
          "type": "address"
        }
      ],
      "name": "userESGScore",
      "outputs": [
        {
          "internalType": "uint256",
          "name": "",
          "type": "uint256"
        }
      ],
      "stateMutability": "view",
      "type": "function"
    },
    {
      "inputs": [
        {
          "internalType": "address",
          "name": "",
          "type": "address"
        },
        {
          "internalType": "uint256",
          "name": "",
          "type": "uint256"
        }
      ],
      "name": "userLiquidations",
      "outputs": [
        {
          "internalType": "uint256",
          "name": "",
          "type": "uint256"
        }
      ],
      "stateMutability": "view",
      "type": "function"
    },
    {
      "inputs": [
        {
          "internalType": "address",
          "name": "collateralAsset",
          "type": "address"
        },
        {
          "internalType": "uint256",
          "name": "amount",
          "type": "uint256"
        }
      ],
      "name": "withdrawCollateral",
      "outputs": [],
      "stateMutability": "nonpayable",
      "type": "function"
    }
  ],
  "bytecode": "0x608060405261012c600755610514600855612af8600955670de0b6b3a7640000601455610e106016553480156200003557600080fd5b5060405162008b3f38038062008b3f83398181016040528101906200005b9190620008a1565b33848481600390816200006f919062000b9c565b50806004908162000081919062000b9c565b5050506001600581905550600073ffffffffffffffffffffffffffffffffffffffff168173ffffffffffffffffffffffffffffffffffffffff1603620001015760006040517f1e4fbdf7000000000000000000000000000000000000000000000000000000008152600401620000f8919062000c94565b60405180910390fd5b6200011281620005e060201b60201c565b506200012f67eab18094837e085b60c01b620006a660201b60201c565b6200014b674e0a19716d31ca1c60c01b620006a660201b60201c565b6200016767165d059a0d8d567460c01b620006a660201b60201c565b6200018367791bda6d6bbc23e860c01b620006a660201b60201c565b600073ffffffffffffffffffffffffffffffffffffffff168273ffffffffffffffffffffffffffffffffffffffff1603620001f5576040517f08c379a0000000000000000000000000000000000000000000000000000000008152600401620001ec9062000d12565b60405180910390fd5b6200021167cd6d4db0d6f5f2d560c01b620006a660201b60201c565b6200022d67f88bdee3e4dd756b60c01b620006a660201b60201c565b620002496759e3cb1ee93bcdf860c01b620006a660201b60201c565b620002656747bb3d026fcf1f0760c01b620006a660201b60201c565b600073ffffffffffffffffffffffffffffffffffffffff168173ffffffffffffffffffffffffffffffffffffffff1603620002d7576040517f08c379a0000000000000000000000000000000000000000000000000000000008152600401620002ce9062000daa565b60405180910390fd5b620002f367559bfe1213b9196260c01b620006a660201b60201c565b6200030f67dd0de4cea8d35e2b60c01b620006a660201b60201c565b81600c60006101000a81548173ffffffffffffffffffffffffffffffffffffffff021916908373ffffffffffffffffffffffffffffffffffffffff1602179055506200036c674b7f441feeb21dc560c01b620006a660201b60201c565b80600d60006101000a81548173ffffffffffffffffffffffffffffffffffffffff021916908373ffffffffffffffffffffffffffffffffffffffff160217905550620003c967922026bf7e2a67ee60c01b620006a660201b60201c565b42600f81905550620003ec67fbbfa18ce9e42c6460c01b620006a660201b60201c565b426015819055506200040f67c9573da12391eba760c01b620006a660201b60201c565b610bb8600b60008060048111156200042c576200042b62000dcc565b5b600481111562000441576200044062000dcc565b5b8152602001908152602001600020819055506200046f6772a53653b24cdaf060c01b620006a660201b60201c565b6109c4600b6000600160048111156200048d576200048c62000dcc565b5b6004811115620004a257620004a162000dcc565b5b815260200190815260200160002081905550620004d067c24d403a1963b4c460c01b620006a660201b60201c565b6107d0600b600060026004811115620004ee57620004ed62000dcc565b5b600481111562000503576200050262000dcc565b5b8152602001908152602001600020819055506200053167e9ae3eee919b242e60c01b620006a660201b60201c565b6105dc600b6000600360048111156200054f576200054e62000dcc565b5b600481111562000564576200056362000dcc565b5b8152602001908152602001600020819055506200059267c82b10dedd9e1e9a60c01b620006a660201b60201c565b6103e8600b6000600480811115620005af57620005ae62000dcc565b5b6004811115620005c457620005c362000dcc565b5b8152602001908152602001600020819055505050505062000dfb565b6000600660019054906101000a900473ffffffffffffffffffffffffffffffffffffffff16905081600660016101000a81548173ffffffffffffffffffffffffffffffffffffffff021916908373ffffffffffffffffffffffffffffffffffffffff1602179055508173ffffffffffffffffffffffffffffffffffffffff168173ffffffffffffffffffffffffffffffffffffffff167f8be0079c531659141344cd1fd0a4f28419497f9722a3daafe3b4186f6b6457e060405160405180910390a35050565b50565b6000604051905090565b600080fd5b600080fd5b600080fd5b600080fd5b6000601f19601f8301169050919050565b7f4e487b7100000000000000000000000000000000000000000000000000000000600052604160045260246000fd5b6200071282620006c7565b810181811067ffffffffffffffff82111715620007345762000733620006d8565b5b80604052505050565b600062000749620006a9565b905062000757828262000707565b919050565b600067ffffffffffffffff8211156200077a5762000779620006d8565b5b6200078582620006c7565b9050602081019050919050565b60005b83811015620007b257808201518184015260208101905062000795565b60008484015250505050565b6000620007d5620007cf846200075c565b6200073d565b905082815260208101848484011115620007f457620007f3620006c2565b5b6200080184828562000792565b509392505050565b600082601f830112620008215762000820620006bd565b5b815162000833848260208601620007be565b91505092915050565b600073ffffffffffffffffffffffffffffffffffffffff82169050919050565b600062000869826200083c565b9050919050565b6200087b816200085c565b81146200088757600080fd5b50565b6000815190506200089b8162000870565b92915050565b60008060008060808587031215620008be57620008bd620006b3565b5b600085015167ffffffffffffffff811115620008df57620008de620006b8565b5b620008ed8782880162000809565b945050602085015167ffffffffffffffff811115620009115762000910620006b8565b5b6200091f8782880162000809565b935050604062000932878288016200088a565b925050606062000945878288016200088a565b91505092959194509250565b600081519050919050565b7f4e487b7100000000000000000000000000000000000000000000000000000000600052602260045260246000fd5b60006002820490506001821680620009a457607f821691505b602082108103620009ba57620009b96200095c565b5b50919050565b60008190508160005260206000209050919050565b60006020601f8301049050919050565b600082821b905092915050565b60006008830262000a247fffffffffffffffffffffffffffffffffffffffffffffffffffffffffffffffff82620009e5565b62000a308683620009e5565b95508019841693508086168417925050509392505050565b6000819050919050565b6000819050919050565b600062000a7d62000a7762000a718462000a48565b62000a52565b62000a48565b9050919050565b6000819050919050565b62000a998362000a5c565b62000ab162000aa88262000a84565b848454620009f2565b825550505050565b600090565b62000ac862000ab9565b62000ad581848462000a8e565b505050565b5b8181101562000afd5762000af160008262000abe565b60018101905062000adb565b5050565b601f82111562000b4c5762000b1681620009c0565b62000b2184620009d5565b8101602085101562000b31578190505b62000b4962000b4085620009d5565b83018262000ada565b50505b505050565b600082821c905092915050565b600062000b716000198460080262000b51565b1980831691505092915050565b600062000b8c838362000b5e565b9150826002028217905092915050565b62000ba78262000951565b67ffffffffffffffff81111562000bc35762000bc2620006d8565b5b62000bcf82546200098b565b62000bdc82828562000b01565b600060209050601f83116001811462000c14576000841562000bff578287015190505b62000c0b858262000b7e565b86555062000c7b565b601f19841662000c2486620009c0565b60005b8281101562000c4e5784890151825560018201915060208501945060208101905062000c27565b8683101562000c6e578489015162000c6a601f89168262000b5e565b8355505b6001600288020188555050505b505050505050565b62000c8e816200085c565b82525050565b600060208201905062000cab600083018462000c83565b92915050565b600082825260208201905092915050565b7f455347537461626c65636f696e3a20496e76616c696420747265617375727900600082015250565b600062000cfa601f8362000cb1565b915062000d078262000cc2565b602082019050919050565b6000602082019050818103600083015262000d2d8162000ceb565b9050919050565b7f455347537461626c65636f696e3a20496e76616c696420656d657267656e637960008201527f206f7261636c6500000000000000000000000000000000000000000000000000602082015250565b600062000d9260278362000cb1565b915062000d9f8262000d34565b604082019050919050565b6000602082019050818103600083015262000dc58162000d83565b9050919050565b7f4e487b7100000000000000000000000000000000000000000000000000000000600052602160045260246000fd5b617d348062000e0b6000396000f3fe608060405234801561001057600080fd5b50600436106103425760003560e01c80637403ec97116101b8578063a5d5db0c11610104578063eeb97d3b116100a2578063f526e39a1161007c578063f526e39a146109fa578063f6be17ff14610a18578063f7165fee14610a48578063f9144f1314610a7857610342565b8063eeb97d3b1461098a578063f2fde38b146109c2578063f4e81c7f146109de57610342565b8063c8796572116100de578063c8796572146108f0578063cc947b18146108fa578063dd62ed3e1461092a578063e794276d1461095a57610342565b8063a5d5db0c14610888578063a7379086146108a4578063a9059cbb146108c057610342565b80638da5cb5b1161017157806395d89b411161014b57806395d89b41146108105780639d1b464a1461082e5780639f1837ce1461084c578063a1ff9bee1461086a57610342565b80638da5cb5b146107a6578063929f699f146107c457806392a576e6146107e057610342565b80637403ec97146106f857806379cc6790146107285780637d83cef3146107445780637e99ce59146107625780638456cb59146107805780638d6cc56d1461078a57610342565b8063350c35e9116102925780634bd21445116102305780636949faeb1161020a5780636949faeb146106705780636d35aef71461068e57806370a08231146106be578063715018a6146106ee57610342565b80634bd21445146106015780635c975abb1461063457806361d027b31461065257610342565b80633a357a271161026c5780633a357a271461058d5780633f4ba83a146105bd57806342966c68146105c75780634979e604146105e357610342565b8063350c35e9146105115780633966a28b1461052d57806339c73ae81461055d57610342565b806323b872dd116102ff57806326fe0e41116102d957806326fe0e41146104775780632afb4f43146104a7578063313ce567146104c357806333352210146104e157610342565b806323b872dd1461040d57806323f5589a1461043d57806326c013031461045b57610342565b806306fdde0314610347578063095ea7b31461036557806317a9e1981461039557806318160ddd146103b35780631ca9bf62146103d15780631d1d20c8146103ef575b600080fd5b61034f610aad565b60405161035c919061658e565b60405180910390f35b61037f600480360381019061037a9190616649565b610b3f565b60405161038c91906166a4565b60405180910390f35b61039d610b62565b6040516103aa91906166ce565b60405180910390f35b6103bb610b68565b6040516103c891906166ce565b60405180910390f35b6103d9610b72565b6040516103e691906166f8565b60405180910390f35b6103f7610b98565b60405161040491906166ce565b60405180910390f35b61042760048036038101906104229190616713565b610b9e565b60405161043491906166a4565b60405180910390f35b610445610bcd565b60405161045291906166ce565b60405180910390f35b61047560048036038101906104709190616713565b610bd3565b005b610491600480360381019061048c919061678b565b6117e9565b60405161049e91906166ce565b60405180910390f35b6104c160048036038101906104bc9190616649565b611801565b005b6104cb6119ac565b6040516104d891906167d4565b60405180910390f35b6104fb60048036038101906104f691906167ef565b6119b5565b6040516105089190616977565b60405180910390f35b61052b60048036038101906105269190616649565b611b7f565b005b61054760048036038101906105429190616993565b6123bf565b60405161055491906166a4565b60405180910390f35b61057760048036038101906105729190616649565b61240f565b60405161058491906166ce565b60405180910390f35b6105a760048036038101906105a29190616993565b612440565b6040516105b491906166ce565b60405180910390f35b6105c5612490565b005b6105e160048036038101906105dc91906169d3565b612506565b005b6105eb61251a565b6040516105f891906166ce565b60405180910390f35b61061b60048036038101906106169190616993565b612520565b60405161062b9493929190616a00565b60405180910390f35b61063c61256a565b60405161064991906166a4565b60405180910390f35b61065a612581565b60405161066791906166f8565b60405180910390f35b6106786125a7565b60405161068591906166ce565b60405180910390f35b6106a860048036038101906106a391906169d3565b6125ad565b6040516106b59190616ac0565b60405180910390f35b6106d860048036038101906106d391906167ef565b612790565b6040516106e591906166ce565b60405180910390f35b6106f66127d8565b005b610712600480360381019061070d91906167ef565b6127ec565b60405161071f91906166ce565b60405180910390f35b610742600480360381019061073d9190616649565b612804565b005b61074c612824565b60405161075991906166ce565b60405180910390f35b61076a61282a565b60405161077791906166ce565b60405180910390f35b610788612836565b005b6107a4600480360381019061079f91906169d3565b6128ac565b005b6107ae612b1d565b6040516107bb91906166f8565b60405180910390f35b6107de60048036038101906107d99190616adb565b612b47565b005b6107fa60048036038101906107f59190616993565b613204565b6040516108079190616bab565b60405180910390f35b610818613310565b604051610825919061658e565b60405180910390f35b6108366133a2565b60405161084391906166ce565b60405180910390f35b6108546133a8565b60405161086191906166ce565b60405180910390f35b6108726133ae565b60405161087f9190616c75565b60405180910390f35b6108a2600480360381019061089d9190616649565b613478565b005b6108be60048036038101906108b99190616649565b6139b9565b005b6108da60048036038101906108d59190616649565b614003565b6040516108e791906166a4565b60405180910390f35b6108f8614026565b005b610914600480360381019061090f91906167ef565b6141c4565b60405161092191906166ce565b60405180910390f35b610944600480360381019061093f9190616993565b614249565b60405161095191906166ce565b60405180910390f35b610974600480360381019061096f9190616993565b6142d0565b60405161098191906166ce565b60405180910390f35b6109a4600480360381019061099f91906167ef565b614320565b6040516109b999989796959493929190616ca6565b60405180910390f35b6109dc60048036038101906109d791906167ef565b6143c8565b005b6109f860048036038101906109f39190616649565b61444e565b005b610a02614bc5565b604051610a0f91906166ce565b60405180910390f35b610a326004803603810190610a2d91906167ef565b614bcb565b604051610a3f91906166ce565b60405180910390f35b610a626004803603810190610a5d91906169d3565b614be3565b604051610a6f91906166f8565b60405180910390f35b610a926004803603810190610a8d91906169d3565b614c22565b604051610aa496959493929190616d33565b60405180910390f35b606060038054610abc90616dc3565b80601f0160208091040260200160405190810160405280929190818152602001828054610ae890616dc3565b8015610b355780601f10610b0a57610100808354040283529160200191610b35565b820191906000526020600020905b815481529060010190602001808311610b1857829003601f168201915b5050505050905090565b600080610b4a614cae565b9050610b57818585614cb6565b600191505092915050565b600f5481565b6000600254905090565b600d60009054906101000a900473ffffffffffffffffffffffffffffffffffffffff1681565b60165481565b600080610ba9614cae565b9050610bb6858285614cc8565b610bc1858585614d5d565b60019150509392505050565b60085481565b610be7676ec5df18a04d39ff60c01b614e51565b81610bfc67e374563aefc7225c60c01b614e51565b610c10678f0b482ae522447260c01b614e51565b610c2467961b3ea7b23515e060c01b614e51565b610c3867e55e228b7eded17660c01b614e51565b601160008273ffffffffffffffffffffffffffffffffffffffff1673ffffffffffffffffffffffffffffffffffffffff16815260200190815260200160002060050160009054906101000a900460ff16610cc7576040517f08c379a0000000000000000000000000000000000000000000000000000000008152600401610cbe90616e66565b60405180910390fd5b610cdb67ebb29253c10c4b1760c01b614e51565b610cef6784050352e274cf3360c01b614e51565b610d0367be671b006e2b151760c01b614e51565b610d1767cf45929df53c150360c01b614e51565b610d1f614e54565b610d33676ddb87e2f4173d1e60c01b614e51565b610d476745b3029c19650a0660c01b614e51565b610d4f614e9a565b610d63675e5ef4cfa2402c0860c01b614e51565b610d77679ece22ebe8706f0460c01b614e51565b610d8b67c257edaf5b08674a60c01b614e51565b610d9f67503b724f6953c09260c01b614e51565b610db367d6f51e166eb26b9560c01b614e51565b600073ffffffffffffffffffffffffffffffffffffffff168473ffffffffffffffffffffffffffffffffffffffff1603610e22576040517f08c379a0000000000000000000000000000000000000000000000000000000008152600401610e1990616ef8565b60405180910390fd5b610e366751973f474344272060c01b614e51565b610e4a674a1f410653efd2d360c01b614e51565b610e5e6790576915c4c5afd260c01b614e51565b610e7267ee519c535ab46de360c01b614e51565b60008211610eb5576040517f08c379a0000000000000000000000000000000000000000000000000000000008152600401610eac90616f8a565b60405180910390fd5b610ec967e9b17f60a85d931360c01b614e51565b610edd67f60b918dbf29965560c01b614e51565b610ef1675f7ef104dd2d227d60c01b614e51565b6000601260008673ffffffffffffffffffffffffffffffffffffffff1673ffffffffffffffffffffffffffffffffffffffff16815260200190815260200160002060008573ffffffffffffffffffffffffffffffffffffffff1673ffffffffffffffffffffffffffffffffffffffff1681526020019081526020016000209050610f8567bbc6daa92141341860c01b614e51565b610f9967ac4ca40f8a46116a60c01b614e51565b610fad674b7cf0cfcbe03ff660c01b614e51565b8060030160009054906101000a900460ff16610ffe576040517f08c379a0000000000000000000000000000000000000000000000000000000008152600401610ff59061701c565b60405180910390fd5b6110126772414843a44a279160c01b614e51565b611026673742fb05a829316260c01b614e51565b61103a67ce93ee431b7c806b60c01b614e51565b61104e6704f65dd42525164560c01b614e51565b8281600101541015611095576040517f08c379a000000000000000000000000000000000000000000000000000000000815260040161108c90617088565b60405180910390fd5b6110a967d7464d80c88b52c060c01b614e51565b6110bd67f3c9e2c5d4e57a2660c01b614e51565b6110d167caac594ce2e9d60260c01b614e51565b6110e567ee59729c36a9afc560c01b614e51565b6110ef8585614edb565b61112e576040517f08c379a00000000000000000000000000000000000000000000000000000000081526004016111259061711a565b60405180910390fd5b61114267a312ec300365e0b960c01b614e51565b611156671bed16e143a51eb060c01b614e51565b61116a675b19d5d9f88157a760c01b614e51565b600061117585614fa9565b905061118b67db35c517e99dcc5260c01b614e51565b61119f673c898df328ae327d60c01b614e51565b6000612710826111af9190617169565b670de0b6b3a76400006008546127106111c891906171ab565b876111d39190617169565b6111dd9190617169565b6111e7919061720e565b90506111fd67c88623aa6f4af70760c01b614e51565b61121167bef4fd396185578760c01b614e51565b61122567c7aaf729142d30db60c01b614e51565b808360000154101561126c576040517f08c379a0000000000000000000000000000000000000000000000000000000008152600401611263906172b1565b60405180910390fd5b61128067a2ce19724ee3ff9a60c01b614e51565b61129467dfdf69a37542bc5560c01b614e51565b6112a86720af498c70aed88c60c01b614e51565b6112b23386614ff7565b6112c667287211fecb94b4b260c01b614e51565b808360000160008282546112da91906172d1565b925050819055506112f567cee0799665adf5d360c01b614e51565b8483600101600082825461130991906172d1565b9250508190555061132467c217c037188fbc7c60c01b614e51565b42836002018190555061134167b192059b620683ef60c01b614e51565b84601360008973ffffffffffffffffffffffffffffffffffffffff1673ffffffffffffffffffffffffffffffffffffffff168152602001908152602001600020600082825461139091906172d1565b925050819055506113ab67a051d36b8acea80560c01b614e51565b84601160008873ffffffffffffffffffffffffffffffffffffffff1673ffffffffffffffffffffffffffffffffffffffff16815260200190815260200160002060040160008282546113fd91906172d1565b925050819055506114186792327efc3f30ac9360c01b614e51565b80601160008873ffffffffffffffffffffffffffffffffffffffff1673ffffffffffffffffffffffffffffffffffffffff168152602001908152602001600020600301600082825461146a91906172d1565b92505081905550611485672d76e98e79969a8b60c01b614e51565b61149967fbd0ca52e29d8bf060c01b614e51565b8573ffffffffffffffffffffffffffffffffffffffff1663a9059cbb33836040518363ffffffff1660e01b81526004016114d4929190617305565b6020604051808303816000875af11580156114f3573d6000803e3d6000fd5b505050506040513d601f19601f82011682018060405250810190611517919061735a565b5061152c67679c523e6061dd2560c01b614e51565b61154067e1b3e9b94b87bcee60c01b614e51565b60006040518060c001604052808973ffffffffffffffffffffffffffffffffffffffff1681526020018873ffffffffffffffffffffffffffffffffffffffff1681526020018381526020018781526020018481526020014281525090506115b167e13abebe313fa94860c01b614e51565b6115c5671b17d276fdf9bf8660c01b614e51565b601781908060018154018082558091505060019003906000526020600020906006020160009091909190915060008201518160000160006101000a81548173ffffffffffffffffffffffffffffffffffffffff021916908373ffffffffffffffffffffffffffffffffffffffff16021790555060208201518160010160006101000a81548173ffffffffffffffffffffffffffffffffffffffff021916908373ffffffffffffffffffffffffffffffffffffffff16021790555060408201518160020155606082015181600301556080820151816004015560a0820151816005015550506116bd6777bcbe34b7cf1e4060c01b614e51565b6116d167caab70a42cc8c96460c01b614e51565b601860008973ffffffffffffffffffffffffffffffffffffffff1673ffffffffffffffffffffffffffffffffffffffff168152602001908152602001600020600160178054905061172291906172d1565b908060018154018082558091505060019003906000526020600020016000909190919091505561175c67dcdfb70b77e45bda60c01b614e51565b61177067ffdc4deae35b90f960c01b614e51565b8673ffffffffffffffffffffffffffffffffffffffff168873ffffffffffffffffffffffffffffffffffffffff167f4ecae3269f800df64b16cb9f6f8b0b507018888521d1cff0841823e44bc0b00d84896040516117cf929190617387565b60405180910390a3505050506117e3615079565b50505050565b600b6020528060005260406000206000915090505481565b611815674b897b281ddf100860c01b614e51565b61181d615083565b611831679a081e9497f1128d60c01b614e51565b611845676aaef99f50cf192060c01b614e51565b611859674fbedfdbd932080260c01b614e51565b61186d6716ecd59d3c150b7560c01b614e51565b61188167fc7f7161d514da6660c01b614e51565b6127108111156118c6576040517f08c379a00000000000000000000000000000000000000000000000000000000081526004016118bd906173fc565b60405180910390fd5b6118da67ff4a7d5bf61bbe9a60c01b614e51565b6118ee67a7672a44f361345460c01b614e51565b80600a60008473ffffffffffffffffffffffffffffffffffffffff1673ffffffffffffffffffffffffffffffffffffffff1681526020019081526020016000208190555061194667788e2b52725bf0a360c01b614e51565b61195a67e45874a65641a0e760c01b614e51565b8173ffffffffffffffffffffffffffffffffffffffff167f75138e728d6c53cf6d32eb2a97598a7dd02b168f5957f4bc611367b85b990a58826040516119a091906166ce565b60405180910390a25050565b60006012905090565b6119bd6163e6565b6119d1672851e6a6a0b1a30160c01b614e51565b6119e56752208fb2b8afd6f960c01b614e51565b6119f967e062d0fee2e8112a60c01b614e51565b601160008373ffffffffffffffffffffffffffffffffffffffff1673ffffffffffffffffffffffffffffffffffffffff168152602001908152602001600020604051806101200160405290816000820160009054906101000a900473ffffffffffffffffffffffffffffffffffffffff1673ffffffffffffffffffffffffffffffffffffffff1673ffffffffffffffffffffffffffffffffffffffff1681526020016000820160149054906101000a900460ff166004811115611abf57611abe61682b565b5b6004811115611ad157611ad061682b565b5b8152602001600182015481526020016002820154815260200160038201548152602001600482015481526020016005820160009054906101000a900460ff161515151581526020016005820160019054906101000a900473ffffffffffffffffffffffffffffffffffffffff1673ffffffffffffffffffffffffffffffffffffffff1673ffffffffffffffffffffffffffffffffffffffff1681526020016006820154815250509050919050565b611b936733af7d6b1ee60f1e60c01b614e51565b81611ba867e374563aefc7225c60c01b614e51565b611bbc678f0b482ae522447260c01b614e51565b611bd067961b3ea7b23515e060c01b614e51565b611be467e55e228b7eded17660c01b614e51565b601160008273ffffffffffffffffffffffffffffffffffffffff1673ffffffffffffffffffffffffffffffffffffffff16815260200190815260200160002060050160009054906101000a900460ff16611c73576040517f08c379a0000000000000000000000000000000000000000000000000000000008152600401611c6a90616e66565b60405180910390fd5b611c8767ebb29253c10c4b1760c01b614e51565b611c9b6784050352e274cf3360c01b614e51565b611caf674a19aef2479225e360c01b614e51565b611cc367df0e56781a387e3960c01b614e51565b611ccb614e54565b611cdf670ffc1581349f0a6e60c01b614e51565b611cf36757c9c5e10e53577860c01b614e51565b611cfb614e9a565b611d0f6779d074b5122a6ea960c01b614e51565b611d2367e4bf225a94b3d46d60c01b614e51565b611d37678d5e933ee1cbdc5b60c01b614e51565b611d4b673f3548b986e9481c60c01b614e51565b611d5f678263adc0419000b260c01b614e51565b60008211611da2576040517f08c379a0000000000000000000000000000000000000000000000000000000008152600401611d999061748e565b60405180910390fd5b611db667a17fb5e111786c0160c01b614e51565b611dca67293494ab5a807cec60c01b614e51565b611dde67c1ad45d4dc1ea61560c01b614e51565b6000601260003373ffffffffffffffffffffffffffffffffffffffff1673ffffffffffffffffffffffffffffffffffffffff16815260200190815260200160002060008573ffffffffffffffffffffffffffffffffffffffff1673ffffffffffffffffffffffffffffffffffffffff1681526020019081526020016000209050611e72677f35b09c91cc7b5560c01b614e51565b611e8667faa6429b5572419c60c01b614e51565b611e9a67f98e642b85a52dca60c01b614e51565b8281600001541015611ee1576040517f08c379a0000000000000000000000000000000000000000000000000000000008152600401611ed8906172b1565b60405180910390fd5b611ef567c2d790adeadf55a560c01b614e51565b611f09678754727f502a7a1b60c01b614e51565b611f1d675e0d31e529d7f84b60c01b614e51565b6000838260000154611f2f91906172d1565b9050611f4567eab5d945906e45de60c01b614e51565b611f5967a23cb214306a57ef60c01b614e51565b6000826001015411156120d557611f7a670afae201205c8c5460c01b614e51565b611f8e6779cf6fc3c03c0dae60c01b614e51565b611fa26792f28ecf4443552f60c01b614e51565b6000611fae868361510a565b9050611fc46731dcda72e368865d60c01b614e51565b611fd867be7eccb33a2de05360c01b614e51565b6000612710601160008973ffffffffffffffffffffffffffffffffffffffff1673ffffffffffffffffffffffffffffffffffffffff16815260200190815260200160002060010154856001015461202f9190617169565b612039919061720e565b905061204f67d14eadbf66e0851960c01b614e51565b61206367951b499636fddc8060c01b614e51565b612077671d0b94c9d65bd0d760c01b614e51565b808210156120ba576040517f08c379a00000000000000000000000000000000000000000000000000000000081526004016120b190617520565b60405180910390fd5b6120ce674a15f0fce59eee2b60c01b614e51565b50506120ea565b6120e967e35f4294c59851b260c01b614e51565b5b6120fe67b628ce8e630b84b860c01b614e51565b8382600001600082825461211291906172d1565b9250508190555061212d6752566d8aa61de80160c01b614e51565b42826002018190555061214a673fa137f9445c416e60c01b614e51565b61215e679c8d24eaea692e5f60c01b614e51565b60008260000154148015612176575060008260010154145b156121c55761218f67695ecf2baf37a2b160c01b614e51565b6121a367015316aa7e50620660c01b614e51565b60008260030160006101000a81548160ff0219169083151502179055506121da565b6121d96742b352496c1d5baa60c01b614e51565b5b6121ee67f87bac79c5a3efdc60c01b614e51565b83601160008773ffffffffffffffffffffffffffffffffffffffff1673ffffffffffffffffffffffffffffffffffffffff168152602001908152602001600020600301600082825461224091906172d1565b9250508190555061225b676274478da8e3a21760c01b614e51565b61226f6760206b5b1b46d1a760c01b614e51565b61227c33868660006151a5565b612290671fe5d03dd88b20c760c01b614e51565b6122a46784af162a8512683d60c01b614e51565b8473ffffffffffffffffffffffffffffffffffffffff1663a9059cbb33866040518363ffffffff1660e01b81526004016122df929190617305565b6020604051808303816000875af11580156122fe573d6000803e3d6000fd5b505050506040513d601f19601f82011682018060405250810190612322919061735a565b5061233767b6f400f995bd6a3a60c01b614e51565b61234b672ae03ea5e1d93a9060c01b614e51565b8473ffffffffffffffffffffffffffffffffffffffff163373ffffffffffffffffffffffffffffffffffffffff167f45892a46e6cef329bb642da6d69846d324db43d19008edc141ed82382eda1bee866040516123a891906166ce565b60405180910390a350506123ba615079565b505050565b60006123d567f4a86fc66c2b804f60c01b614e51565b6123e9673d16e38c547065ab60c01b614e51565b6123fd676d7488c1a51850d160c01b614e51565b6124078383614edb565b905092915050565b6018602052816000526040600020818154811061242b57600080fd5b90600052602060002001600091509150505481565b600061245667615255fbe24649e560c01b614e51565b61246a67df70ed865b7618db60c01b614e51565b61247e67a4a11270e6e241d260c01b614e51565b612488838361560b565b905092915050565b6124a4679a127f0dfa8a3f3d60c01b614e51565b6124ac615083565b6124c0679ad797ee04895e4f60c01b614e51565b6124d467c78e8de7c5ca0da560c01b614e51565b6124e86799a14fcebdd80f9660c01b614e51565b6124fc67860bc5dced8b62e760c01b614e51565b612504615800565b565b612517612511614cae565b82614ff7565b50565b61271081565b6012602052816000526040600020602052806000526040600020600091509150508060000154908060010154908060020154908060030160009054906101000a900460ff16905084565b6000600660009054906101000a900460ff16905090565b600c60009054906101000a900473ffffffffffffffffffffffffffffffffffffffff1681565b60155481565b6125b5616472565b6125c9674612c1bd82dd392260c01b614e51565b6125dd67643a714f6ae05d9960c01b614e51565b6125f1679bed16eeb513bd7f60c01b614e51565b6126056706c9a889784a8d2460c01b614e51565b601780549050821061264c576040517f08c379a00000000000000000000000000000000000000000000000000000000081526004016126439061758c565b60405180910390fd5b61266067bf25ec83ec65730260c01b614e51565b6126746743638c99c834256560c01b614e51565b61268867d3c20cd6c615977860c01b614e51565b6017828154811061269c5761269b6175ac565b5b90600052602060002090600602016040518060c00160405290816000820160009054906101000a900473ffffffffffffffffffffffffffffffffffffffff1673ffffffffffffffffffffffffffffffffffffffff1673ffffffffffffffffffffffffffffffffffffffff1681526020016001820160009054906101000a900473ffffffffffffffffffffffffffffffffffffffff1673ffffffffffffffffffffffffffffffffffffffff1673ffffffffffffffffffffffffffffffffffffffff1681526020016002820154815260200160038201548152602001600482015481526020016005820154815250509050919050565b60008060008373ffffffffffffffffffffffffffffffffffffffff1673ffffffffffffffffffffffffffffffffffffffff168152602001908152602001600020549050919050565b6127e0615083565b6127ea6000615863565b565b600a6020528060005260406000206000915090505481565b61281682612810614cae565b83614cc8565b6128208282614ff7565b5050565b60075481565b670de0b6b3a764000081565b61284a671ae4b1916f89ebb760c01b614e51565b612852615083565b6128666798db6612bad1fd1d60c01b614e51565b61287a67c553c33522ca1eb560c01b614e51565b61288e67758e38a68b830d1660c01b614e51565b6128a2677ffb7471c4b2775760c01b614e51565b6128aa615929565b565b6128c06724b7c5a3e2965ae460c01b614e51565b6128d467d2e7a35a85e70f2260c01b614e51565b6128e86759867f7a62bce0ed60c01b614e51565b6128fc6728c01a3f03ed4c6c60c01b614e51565b612910671743704f8c957e5b60c01b614e51565b600d60009054906101000a900473ffffffffffffffffffffffffffffffffffffffff1673ffffffffffffffffffffffffffffffffffffffff163373ffffffffffffffffffffffffffffffffffffffff16146129a0576040517f08c379a00000000000000000000000000000000000000000000000000000000081526004016129979061764d565b60405180910390fd5b6129b467bd1eedde5e31aa0e60c01b614e51565b6129c8676a315fbdedd522df60c01b614e51565b6129dc67c31329bee8eab33960c01b614e51565b6129f067cc2dde7a6120122f60c01b614e51565b612a0467189a21261a1a8b1b60c01b614e51565b612a1867ba31dd4be0f35d1860c01b614e51565b612a2c6725ea73c54a182a1c60c01b614e51565b60008111612a6f576040517f08c379a0000000000000000000000000000000000000000000000000000000008152600401612a66906176b9565b60405180910390fd5b612a8367ebec439f6c68555a60c01b614e51565b612a9767e0a57c3f8a70e27760c01b614e51565b80601481905550612ab267270c4e4465e4d58b60c01b614e51565b42601581905550612acd67641223c12b63569c60c01b614e51565b612ae1672db2997941ee213c60c01b614e51565b7f945c1c4e99aa89f648fbfe3df471b916f719e16d960fcec0737d4d56bd6968388142604051612b12929190617387565b60405180910390a150565b6000600660019054906101000a900473ffffffffffffffffffffffffffffffffffffffff16905090565b612b5b67f82c9ec24070e35160c01b614e51565b612b63615083565b612b7767678513d41c060b3c60c01b614e51565b612b8b672ccced051c63af8c60c01b614e51565b612b9f67c9153637eab9a04b60c01b614e51565b612bb367c72936e66e0a383a60c01b614e51565b612bc767949379ef40c692ff60c01b614e51565b600073ffffffffffffffffffffffffffffffffffffffff168573ffffffffffffffffffffffffffffffffffffffff1603612c36576040517f08c379a0000000000000000000000000000000000000000000000000000000008152600401612c2d9061774b565b60405180910390fd5b612c4a673dc780b8137220b160c01b614e51565b612c5e67fce34f281a40da2660c01b614e51565b612c72670daaf38aa587265e60c01b614e51565b612c8667174746edea94a44560c01b614e51565b600073ffffffffffffffffffffffffffffffffffffffff168173ffffffffffffffffffffffffffffffffffffffff1603612cf5576040517f08c379a0000000000000000000000000000000000000000000000000000000008152600401612cec906177dd565b60405180910390fd5b612d09677ed0f25444c6977860c01b614e51565b612d1d67eed14b824d41866a60c01b614e51565b612d31679467715258264a1960c01b614e51565b612d4567c62607b10b2140c060c01b614e51565b600954831015612d8a576040517f08c379a0000000000000000000000000000000000000000000000000000000008152600401612d8190617849565b60405180910390fd5b612d9e670f0247861186b83860c01b614e51565b612db267d571e20443d744e360c01b614e51565b612dc667687de5c97163afbf60c01b614e51565b612dda67ed3b7eb3c1006d5a60c01b614e51565b828210612e1c576040517f08c379a0000000000000000000000000000000000000000000000000000000008152600401612e13906178db565b60405180910390fd5b612e306728b58cb4a193ffe960c01b614e51565b612e44673e13ec900b06eca960c01b614e51565b612e58674b4768e62debbdf860c01b614e51565b612e6c67a3aca8e57367228860c01b614e51565b601160008673ffffffffffffffffffffffffffffffffffffffff1673ffffffffffffffffffffffffffffffffffffffff16815260200190815260200160002060050160009054906101000a900460ff1615612efc576040517f08c379a0000000000000000000000000000000000000000000000000000000008152600401612ef39061796d565b60405180910390fd5b612f10678ecfe197b9b87e5d60c01b614e51565b612f2467a707904ec9ceac2260c01b614e51565b6040518061012001604052808673ffffffffffffffffffffffffffffffffffffffff168152602001856004811115612f5f57612f5e61682b565b5b815260200184815260200183815260200160008152602001600081526020016001151581526020018273ffffffffffffffffffffffffffffffffffffffff16815260200142815250601160008773ffffffffffffffffffffffffffffffffffffffff1673ffffffffffffffffffffffffffffffffffffffff16815260200190815260200160002060008201518160000160006101000a81548173ffffffffffffffffffffffffffffffffffffffff021916908373ffffffffffffffffffffffffffffffffffffffff16021790555060208201518160000160146101000a81548160ff021916908360048111156130585761305761682b565b5b021790555060408201518160010155606082015181600201556080820151816003015560a0820151816004015560c08201518160050160006101000a81548160ff02191690831515021790555060e08201518160050160016101000a81548173ffffffffffffffffffffffffffffffffffffffff021916908373ffffffffffffffffffffffffffffffffffffffff160217905550610100820151816006015590505061310e67d620299c420abe3060c01b614e51565b61312267f2a40c462529655460c01b614e51565b6010859080600181540180825580915050600190039060005260206000200160009091909190916101000a81548173ffffffffffffffffffffffffffffffffffffffff021916908373ffffffffffffffffffffffffffffffffffffffff160217905550613199676b4ba01901ae276560c01b614e51565b6131ad677d31ca698927553460c01b614e51565b8473ffffffffffffffffffffffffffffffffffffffff167f979f60172f3dc22708fe819f6f53ef10768c8456ad233f96fa4b931823c3bda685856040516131f592919061798d565b60405180910390a25050505050565b61320c6164d4565b613220675cb193f52602b70460c01b614e51565b613234678d2dbeaee6dc05e260c01b614e51565b61324867933b68a9433d01fa60c01b614e51565b601260008473ffffffffffffffffffffffffffffffffffffffff1673ffffffffffffffffffffffffffffffffffffffff16815260200190815260200160002060008373ffffffffffffffffffffffffffffffffffffffff1673ffffffffffffffffffffffffffffffffffffffff1681526020019081526020016000206040518060800160405290816000820154815260200160018201548152602001600282015481526020016003820160009054906101000a900460ff161515151581525050905092915050565b60606004805461331f90616dc3565b80601f016020809104026020016040519081016040528092919081815260200182805461334b90616dc3565b80156133985780601f1061336d57610100808354040283529160200191613398565b820191906000526020600020905b81548152906001019060200180831161337b57829003601f168201915b5050505050905090565b60145481565b60095481565b60606133c4675675f1941c16f61260c01b614e51565b6133d867c786b62b111d2a8060c01b614e51565b6133ec67940b0f967d5ed35160c01b614e51565b601080548060200260200160405190810160405280929190818152602001828054801561346e57602002820191906000526020600020905b8160009054906101000a900473ffffffffffffffffffffffffffffffffffffffff1673ffffffffffffffffffffffffffffffffffffffff1681526020019060010190808311613424575b5050505050905090565b61348c677f1997c3c97dd34860c01b614e51565b816134a167e374563aefc7225c60c01b614e51565b6134b5678f0b482ae522447260c01b614e51565b6134c967961b3ea7b23515e060c01b614e51565b6134dd67e55e228b7eded17660c01b614e51565b601160008273ffffffffffffffffffffffffffffffffffffffff1673ffffffffffffffffffffffffffffffffffffffff16815260200190815260200160002060050160009054906101000a900460ff1661356c576040517f08c379a000000000000000000000000000000000000000000000000000000000815260040161356390616e66565b60405180910390fd5b61358067ebb29253c10c4b1760c01b614e51565b6135946784050352e274cf3360c01b614e51565b6135a7665de70dc08195f460c01b614e51565b6135bb67d0a37685591ff05960c01b614e51565b6135c3614e54565b6135d767e3da60c1a1e6f14360c01b614e51565b6135eb67c0609aaecbb041f660c01b614e51565b6135f3614e9a565b613607670dcb71c836a85a9b60c01b614e51565b61361b67f85ef536953e0dc160c01b614e51565b61362f67a2a4601e282d2e9660c01b614e51565b613643670a6ba2fc4348654a60c01b614e51565b613657679e3985b679d3891e60c01b614e51565b6000821161369a576040517f08c379a00000000000000000000000000000000000000000000000000000000081526004016136919061748e565b60405180910390fd5b6136ae67f4f18beb2f4269ee60c01b614e51565b6136c2677d96b1cd3dc5bbae60c01b614e51565b6136d667ad5056159916111a60c01b614e51565b8273ffffffffffffffffffffffffffffffffffffffff166323b872dd3330856040518463ffffffff1660e01b8152600401613713939291906179b6565b6020604051808303816000875af1158015613732573d6000803e3d6000fd5b505050506040513d601f19601f82011682018060405250810190613756919061735a565b5061376b67050b94fa355379cd60c01b614e51565b61377f67d76a59918ca7ae4460c01b614e51565b6000601260003373ffffffffffffffffffffffffffffffffffffffff1673ffffffffffffffffffffffffffffffffffffffff16815260200190815260200160002060008573ffffffffffffffffffffffffffffffffffffffff1673ffffffffffffffffffffffffffffffffffffffff168152602001908152602001600020905061381367458894a2e6983f9960c01b614e51565b8281600001600082825461382791906171ab565b92505081905550613842670b69512154cf9e4360c01b614e51565b42816002018190555061385f6792556180f24fab0a60c01b614e51565b60018160030160006101000a81548160ff02191690831515021790555061389067ef2413015a04c84060c01b614e51565b82601160008673ffffffffffffffffffffffffffffffffffffffff1673ffffffffffffffffffffffffffffffffffffffff16815260200190815260200160002060030160008282546138e291906171ab565b925050819055506138fd67d6e77a4c364c121160c01b614e51565b613911674bc5b7eaa8f0deb960c01b614e51565b61391e33858560016151a5565b613932673cb79fd594daba5760c01b614e51565b6139466743a0d27a78e6a5f160c01b614e51565b8373ffffffffffffffffffffffffffffffffffffffff163373ffffffffffffffffffffffffffffffffffffffff167ff1c0dd7e9b98bbff859029005ef89b127af049cd18df1a8d79f0b7e019911e56856040516139a391906166ce565b60405180910390a3506139b4615079565b505050565b6139cd67aa7303c65e6b874560c01b614e51565b816139e267e374563aefc7225c60c01b614e51565b6139f6678f0b482ae522447260c01b614e51565b613a0a67961b3ea7b23515e060c01b614e51565b613a1e67e55e228b7eded17660c01b614e51565b601160008273ffffffffffffffffffffffffffffffffffffffff1673ffffffffffffffffffffffffffffffffffffffff16815260200190815260200160002060050160009054906101000a900460ff16613aad576040517f08c379a0000000000000000000000000000000000000000000000000000000008152600401613aa490616e66565b60405180910390fd5b613ac167ebb29253c10c4b1760c01b614e51565b613ad56784050352e274cf3360c01b614e51565b613ae9671dc1f12e23edc9ff60c01b614e51565b613afd673a69b2590eaaf2ee60c01b614e51565b613b05614e54565b613b1967f546c4f3f2d8a3a060c01b614e51565b613b2d67b8456866287eb4e460c01b614e51565b613b35614e9a565b613b4967efdc801ce238801560c01b614e51565b613b5d676f47925cc11a014160c01b614e51565b613b7167b076ef2a1e2f3d7960c01b614e51565b613b8567dade8d5e088e8c9260c01b614e51565b613b9967c8ffc75ccda2acf360c01b614e51565b60008211613bdc576040517f08c379a0000000000000000000000000000000000000000000000000000000008152600401613bd39061748e565b60405180910390fd5b613bf067f206de9a8a4806a260c01b614e51565b613c0467477a01586cbb8d0a60c01b614e51565b613c1867c35a1963af10582360c01b614e51565b6000601260003373ffffffffffffffffffffffffffffffffffffffff1673ffffffffffffffffffffffffffffffffffffffff16815260200190815260200160002060008573ffffffffffffffffffffffffffffffffffffffff1673ffffffffffffffffffffffffffffffffffffffff1681526020019081526020016000209050613cac670335b573ef71d22760c01b614e51565b613cc067468dac764a67da2560c01b614e51565b613cd46716f9226047fb129f60c01b614e51565b8060030160009054906101000a900460ff168015613cf6575060008160000154115b613d35576040517f08c379a0000000000000000000000000000000000000000000000000000000008152600401613d2c90617a5f565b60405180910390fd5b613d4967b85b0a3d371801b860c01b614e51565b613d5d67525eb83e4c0b000d60c01b614e51565b613d7167dca08f0a8ac811fe60c01b614e51565b6000613d7d338661598c565b9050613d93679089ac410655d31f60c01b614e51565b613da767e8204a677add62f960c01b614e51565b613dbb677f526dc7ffe3f7d160c01b614e51565b80841115613dfe576040517f08c379a0000000000000000000000000000000000000000000000000000000008152600401613df590617af1565b60405180910390fd5b613e1267fcfe79b4d693143760c01b614e51565b613e26675667c35a9946843d60c01b614e51565b83826001016000828254613e3a91906171ab565b92505081905550613e55678bfe55b88b10bdff60c01b614e51565b428260020181905550613e7267d280a32c5e9b360760c01b614e51565b83601360003373ffffffffffffffffffffffffffffffffffffffff1673ffffffffffffffffffffffffffffffffffffffff1681526020019081526020016000206000828254613ec191906171ab565b92505081905550613edc675a70a57b9d2b142460c01b614e51565b83601160008773ffffffffffffffffffffffffffffffffffffffff1673ffffffffffffffffffffffffffffffffffffffff1681526020019081526020016000206004016000828254613f2e91906171ab565b92505081905550613f49676fac5275056d0b9b60c01b614e51565b613f5d6763979621fae44ad660c01b614e51565b613f673385615cbe565b613f7b679b9175efd4c4406060c01b614e51565b613f8f676c7e817ea506458860c01b614e51565b8473ffffffffffffffffffffffffffffffffffffffff163373ffffffffffffffffffffffffffffffffffffffff167fe72226551da87860ed06b4e609377a7f7fcda65ea9634bb9ada1d37f05cf52f586604051613fec91906166ce565b60405180910390a35050613ffe615079565b505050565b60008061400e614cae565b905061401b818585614d5d565b600191505092915050565b61403a67ed63e1abc070f32c60c01b614e51565b614042614e54565b61405667203e2455b3c6b66060c01b614e51565b61406a67e0cb01b67c103fb060c01b614e51565b61407e6731339896081ae44160c01b614e51565b61409267b19ee1c249b58d4660c01b614e51565b6140a6677aeb1b8d31521c5d60c01b614e51565b6000600e54116140eb576040517f08c379a00000000000000000000000000000000000000000000000000000000081526004016140e290617b83565b60405180910390fd5b6140ff671fe17d80e492a91d60c01b614e51565b6141136727e1a1da01838a3060c01b614e51565b6141276787650c55f2b0659260c01b614e51565b6000600e54905061414267427df4433dde2f6f60c01b614e51565b6000600e8190555061415e6786313f16093ec4e160c01b614e51565b42600f81905550614179671723f7887b194c6660c01b614e51565b61418d67a23d05d7b65603eb60c01b614e51565b6141b9600c60009054906101000a900473ffffffffffffffffffffffffffffffffffffffff1682615cbe565b506141c2615079565b565b60006141da676dd0ae051ff2e88c60c01b614e51565b6141ee677cd52673e98f9e7e60c01b614e51565b614202670b871bc15d3d4cb460c01b614e51565b600a60008373ffffffffffffffffffffffffffffffffffffffff1673ffffffffffffffffffffffffffffffffffffffff168152602001908152602001600020549050919050565b6000600160008473ffffffffffffffffffffffffffffffffffffffff1673ffffffffffffffffffffffffffffffffffffffff16815260200190815260200160002060008373ffffffffffffffffffffffffffffffffffffffff1673ffffffffffffffffffffffffffffffffffffffff16815260200190815260200160002054905092915050565b60006142e66779a746b7fae7a8e860c01b614e51565b6142fa674e1cc3e22a929e8360c01b614e51565b61430e67996b050ddab8ca7560c01b614e51565b614318838361598c565b905092915050565b60116020528060005260406000206000915090508060000160009054906101000a900473ffffffffffffffffffffffffffffffffffffffff16908060000160149054906101000a900460ff16908060010154908060020154908060030154908060040154908060050160009054906101000a900460ff16908060050160019054906101000a900473ffffffffffffffffffffffffffffffffffffffff16908060060154905089565b6143d0615083565b600073ffffffffffffffffffffffffffffffffffffffff168173ffffffffffffffffffffffffffffffffffffffff16036144425760006040517f1e4fbdf700000000000000000000000000000000000000000000000000000000815260040161443991906166f8565b60405180910390fd5b61444b81615863565b50565b614462671fcbcd29b66c2dbf60c01b614e51565b8161447767e374563aefc7225c60c01b614e51565b61448b678f0b482ae522447260c01b614e51565b61449f67961b3ea7b23515e060c01b614e51565b6144b367e55e228b7eded17660c01b614e51565b601160008273ffffffffffffffffffffffffffffffffffffffff1673ffffffffffffffffffffffffffffffffffffffff16815260200190815260200160002060050160009054906101000a900460ff16614542576040517f08c379a000000000000000000000000000000000000000000000000000000000815260040161453990616e66565b60405180910390fd5b61455667ebb29253c10c4b1760c01b614e51565b61456a6784050352e274cf3360c01b614e51565b61457e67f4fcb086ef1576ab60c01b614e51565b61459267ddb031cc91da801960c01b614e51565b61459a614e54565b6145ae6744c3b2990bd79ea560c01b614e51565b6145c2671294912dda56a1df60c01b614e51565b6145ca614e9a565b6145de67ce9be5407c5ffe4060c01b614e51565b6145f267f2f1fc11c681e9d960c01b614e51565b614606678d9ee292336acd5360c01b614e51565b61461a670ac1b9079d4bddc460c01b614e51565b61462e673fa6ec92d2fd392560c01b614e51565b60008211614671576040517f08c379a00000000000000000000000000000000000000000000000000000000081526004016146689061748e565b60405180910390fd5b614685672df2320a27f708e760c01b614e51565b6146996755591dc4137b026d60c01b614e51565b6146ad670bc3ed38c331ba5860c01b614e51565b6000601260003373ffffffffffffffffffffffffffffffffffffffff1673ffffffffffffffffffffffffffffffffffffffff16815260200190815260200160002060008573ffffffffffffffffffffffffffffffffffffffff1673ffffffffffffffffffffffffffffffffffffffff16815260200190815260200160002090506147416751485b50c3ad909560c01b614e51565b61475567a652a11643b8cef160c01b614e51565b614769678f48d19289943d8260c01b614e51565b82816001015410156147b0576040517f08c379a00000000000000000000000000000000000000000000000000000000081526004016147a790617c15565b60405180910390fd5b6147c4670461207592dec3fb60c01b614e51565b6147d86723e7ae3a36e9499260c01b614e51565b6147ec673f9598cf27c918c860c01b614e51565b60006147f83386615d40565b905061480e670cb5e2611101b7ce60c01b614e51565b61482267a149833a1d5682ab60c01b614e51565b60008111156149bf5761483f67387ef1b72c86771260c01b614e51565b61485367bfb7a0e294ace44d60c01b614e51565b61486767a94a24ba1d5a918d60c01b614e51565b61487b67e055e15323318c8860c01b614e51565b808461488791906171ab565b61489033612790565b10156148d1576040517f08c379a00000000000000000000000000000000000000000000000000000000081526004016148c890617ca7565b60405180910390fd5b6148e56754d366a4d576ec3260c01b614e51565b6148f967d4bdb71a5d85dd2460c01b614e51565b61490d67dcb777da10d5ab2960c01b614e51565b6149173382614ff7565b61492b6704e866840a3a0b5360c01b614e51565b80600e600082825461493d91906171ab565b92505081905550614958670d0410495fa2397860c01b614e51565b61496c679ec11fd4da3aa34060c01b614e51565b3373ffffffffffffffffffffffffffffffffffffffff167f7715a81b748486a3f58e304ccbbe8aec0e8f7bd9a79639d954b4ba044c816cfe826040516149b291906166ce565b60405180910390a26149d4565b6149d36726a4fa424e56f23660c01b614e51565b5b6149e867034cb65c2b5483cf60c01b614e51565b6149fc6733a702cb79cfc9a960c01b614e51565b614a063385614ff7565b614a1a678b02e6819c17ed5660c01b614e51565b83826001016000828254614a2e91906172d1565b92505081905550614a496725064da7639e1c4c60c01b614e51565b428260020181905550614a6667dafbafb5419aace560c01b614e51565b83601360003373ffffffffffffffffffffffffffffffffffffffff1673ffffffffffffffffffffffffffffffffffffffff1681526020019081526020016000206000828254614ab591906172d1565b92505081905550614ad0674af2a3257140b40860c01b614e51565b83601160008773ffffffffffffffffffffffffffffffffffffffff1673ffffffffffffffffffffffffffffffffffffffff1681526020019081526020016000206004016000828254614b2291906172d1565b92505081905550614b3d670145037e6cb7e8cb60c01b614e51565b614b516781b0aa0882b4796060c01b614e51565b8473ffffffffffffffffffffffffffffffffffffffff163373ffffffffffffffffffffffffffffffffffffffff167fd1379ae660d7b5efd88d16f25e447ccaf886e9060865a6f557c477140299b8a586604051614bae91906166ce565b60405180910390a35050614bc0615079565b505050565b600e5481565b60136020528060005260406000206000915090505481565b60108181548110614bf357600080fd5b906000526020600020016000915054906101000a900473ffffffffffffffffffffffffffffffffffffffff1681565b60178181548110614c3257600080fd5b90600052602060002090600602016000915090508060000160009054906101000a900473ffffffffffffffffffffffffffffffffffffffff16908060010160009054906101000a900473ffffffffffffffffffffffffffffffffffffffff16908060020154908060030154908060040154908060050154905086565b600033905090565b614cc38383836001615f62565b505050565b6000614cd48484614249565b90507fffffffffffffffffffffffffffffffffffffffffffffffffffffffffffffffff811015614d575781811015614d47578281836040517ffb8f41b2000000000000000000000000000000000000000000000000000000008152600401614d3e93929190617cc7565b60405180910390fd5b614d5684848484036000615f62565b5b50505050565b600073ffffffffffffffffffffffffffffffffffffffff168373ffffffffffffffffffffffffffffffffffffffff1603614dcf5760006040517f96c6fd1e000000000000000000000000000000000000000000000000000000008152600401614dc691906166f8565b60405180910390fd5b600073ffffffffffffffffffffffffffffffffffffffff168273ffffffffffffffffffffffffffffffffffffffff1603614e415760006040517fec442f05000000000000000000000000000000000000000000000000000000008152600401614e3891906166f8565b60405180910390fd5b614e4c838383616139565b505050565b50565b600260055403614e90576040517f3ee5aeb500000000000000000000000000000000000000000000000000000000815260040160405180910390fd5b6002600581905550565b614ea261256a565b15614ed9576040517fd93c066500000000000000000000000000000000000000000000000000000000815260040160405180910390fd5b565b6000614ef167f12195c9fac58e8260c01b614e51565b614f0567348f49372ad0b1ba60c01b614e51565b614f19679c7a7d62b491b3dc60c01b614e51565b6000614f25848461560b565b9050614f3b67461665fdacbcdb8560c01b614e51565b614f4f67d92f4978410c6e1a60c01b614e51565b600081118015614fa05750601160008473ffffffffffffffffffffffffffffffffffffffff1673ffffffffffffffffffffffffffffffffffffffff1681526020019081526020016000206002015481105b91505092915050565b6000614fbf67a43dd2c784f08a8560c01b614e51565b614fd367983c7b5d03189d2360c01b614e51565b614fe76779601bed0f7b201760c01b614e51565b670de0b6b3a76400009050919050565b600073ffffffffffffffffffffffffffffffffffffffff168273ffffffffffffffffffffffffffffffffffffffff16036150695760006040517f96c6fd1e00000000000000000000000000000000000000000000000000000000815260040161506091906166f8565b60405180910390fd5b61507582600083616139565b5050565b6001600581905550565b61508b614cae565b73ffffffffffffffffffffffffffffffffffffffff166150a9612b1d565b73ffffffffffffffffffffffffffffffffffffffff1614615108576150cc614cae565b6040517f118cdaa70000000000000000000000000000000000000000000000000000000081526004016150ff91906166f8565b60405180910390fd5b565b6000615120673a4898fb4aeedb2360c01b614e51565b61513467a3058526ccac417160c01b614e51565b61514867c5ee74251ecf5d0b60c01b614e51565b600061515384614fa9565b905061516967fdb8126e8cc8ebc760c01b614e51565b61517d6716421522ae5b515b60c01b614e51565b670de0b6b3a764000081846151929190617169565b61519c919061720e565b91505092915050565b6151b967c3ee65a41c679ea760c01b614e51565b6151cd67351c047d2d109a7e60c01b614e51565b6151e16764cb920c029a849f60c01b614e51565b6000601160008573ffffffffffffffffffffffffffffffffffffffff1673ffffffffffffffffffffffffffffffffffffffff16815260200190815260200160002060000160149054906101000a900460ff16905061524967ae5e68dd5a4dd43360c01b614e51565b61525d6728f2235fa9e2f17360c01b614e51565b6000600b60008360048111156152765761527561682b565b5b60048111156152885761528761682b565b5b81526020019081526020016000205490506152ad670c86b7d0b383701960c01b614e51565b6152c167f91df5d4eccf010060c01b614e51565b6000670de0b6b3a764000082866152d89190617169565b6152e2919061720e565b90506152f867e992a6059d4c191e60c01b614e51565b61530c67f1b0cf94d6df9e5560c01b614e51565b83156153d85761532667844dab9d488f4b6a60c01b614e51565b61533a67c26f064b03f217e260c01b614e51565b61539081600a60008a73ffffffffffffffffffffffffffffffffffffffff1673ffffffffffffffffffffffffffffffffffffffff1681526020019081526020016000205461538891906171ab565b61271061635e565b600a60008973ffffffffffffffffffffffffffffffffffffffff1673ffffffffffffffffffffffffffffffffffffffff1681526020019081526020016000208190555061554d565b6153ec672555a630bc18721960c01b614e51565b615400673652a80a6854891260c01b614e51565b615414676a7562ec6b65ddcc60c01b614e51565b80600a60008973ffffffffffffffffffffffffffffffffffffffff1673ffffffffffffffffffffffffffffffffffffffff1681526020019081526020016000205411156154de5761546f67119d2cff55761c6560c01b614e51565b61548367eb38eaefea98eebc60c01b614e51565b80600a60008973ffffffffffffffffffffffffffffffffffffffff1673ffffffffffffffffffffffffffffffffffffffff16815260200190815260200160002060008282546154d291906172d1565b9250508190555061554c565b6154f2671474fd0db7b3554960c01b614e51565b61550667fa7456157d9fc3fc60c01b614e51565b6000600a60008973ffffffffffffffffffffffffffffffffffffffff1673ffffffffffffffffffffffffffffffffffffffff168152602001908152602001600020819055505b5b6155616747a8d3a9831b387860c01b614e51565b6155756794d677f857d2efc960c01b614e51565b8673ffffffffffffffffffffffffffffffffffffffff167f75138e728d6c53cf6d32eb2a97598a7dd02b168f5957f4bc611367b85b990a58600a60008a73ffffffffffffffffffffffffffffffffffffffff1673ffffffffffffffffffffffffffffffffffffffff168152602001908152602001600020546040516155fa91906166ce565b60405180910390a250505050505050565b60006156216789634fc73e16ea9a60c01b614e51565b61563567fd832eb70a3540c760c01b614e51565b615649677a48e9b854c2cfd460c01b614e51565b6000601260008573ffffffffffffffffffffffffffffffffffffffff1673ffffffffffffffffffffffffffffffffffffffff16815260200190815260200160002060008473ffffffffffffffffffffffffffffffffffffffff1673ffffffffffffffffffffffffffffffffffffffff16815260200190815260200160002090506156dd679d5cb22d351125c160c01b614e51565b6156f167fde4156e265d741d60c01b614e51565b60008160010154036157625761571167c0f4cb494da8361e60c01b614e51565b615725678a0767f6c895fa9260c01b614e51565b615739679250fb8643faa6cd60c01b614e51565b7fffffffffffffffffffffffffffffffffffffffffffffffffffffffffffffffff9150506157fa565b6157766749d606942067e74760c01b614e51565b61578a67962f3aa8078d29e160c01b614e51565b61579e67dda73b973729ad5960c01b614e51565b60006157ae84836000015461510a565b90506157c4674e409340e2dda8a660c01b614e51565b6157d8670142e722203f1bce60c01b614e51565b8160010154612710826157eb9190617169565b6157f5919061720e565b925050505b92915050565b615808616375565b6000600660006101000a81548160ff0219169083151502179055507f5db9ee0a495bf2e6ff9c91a7834c1ba4fdd244a5e8aa4e537bd38aeae4b073aa61584c614cae565b60405161585991906166f8565b60405180910390a1565b6000600660019054906101000a900473ffffffffffffffffffffffffffffffffffffffff16905081600660016101000a81548173ffffffffffffffffffffffffffffffffffffffff021916908373ffffffffffffffffffffffffffffffffffffffff1602179055508173ffffffffffffffffffffffffffffffffffffffff168173ffffffffffffffffffffffffffffffffffffffff167f8be0079c531659141344cd1fd0a4f28419497f9722a3daafe3b4186f6b6457e060405160405180910390a35050565b615931614e9a565b6001600660006101000a81548160ff0219169083151502179055507f62e78cea01bee320cd4e420270b5ea74000d11b0c9f74754ebdbfc544b05a258615975614cae565b60405161598291906166f8565b60405180910390a1565b60006159a267f50f59847e16489360c01b614e51565b6159b6672bdbb5013d4a385260c01b614e51565b6159ca6711758ed460aadec560c01b614e51565b6000601260008573ffffffffffffffffffffffffffffffffffffffff1673ffffffffffffffffffffffffffffffffffffffff16815260200190815260200160002060008473ffffffffffffffffffffffffffffffffffffffff1673ffffffffffffffffffffffffffffffffffffffff1681526020019081526020016000209050615a5e674936c3397d289cff60c01b614e51565b615a7267c605e9c54b05e35560c01b614e51565b8060030160009054906101000a900460ff16158015615aa15750615aa0674c728cff03721dae60c01b6163b5565b5b80615acc575060008160000154148015615acb5750615aca67b2e29f326cf7719860c01b6163b5565b5b5b15615b1757615ae567c4dc11ce474b5de160c01b614e51565b615af96745e729c86d9cacab60c01b614e51565b615b0d67d589b9af791a41e160c01b614e51565b6000915050615cb8565b615b2b67d4fd7d9201d60f5f60c01b614e51565b615b3f67136869e68ac60d2960c01b614e51565b615b5367df18752fd4a0f13e60c01b614e51565b6000615b6384836000015461510a565b9050615b79679232240f92ced3ff60c01b614e51565b615b8d678d75ceaab3f0ccb360c01b614e51565b6000601160008673ffffffffffffffffffffffffffffffffffffffff1673ffffffffffffffffffffffffffffffffffffffff1681526020019081526020016000206001015461271083615be09190617169565b615bea919061720e565b9050615c0067dd47ca191308d0b760c01b614e51565b615c146792b828d1296c69b060c01b614e51565b82600101548111615c6757615c33672912faf849bf9f6060c01b614e51565b615c47679b63beb936d869d860c01b614e51565b615c5b674718e6d6b762dd7760c01b614e51565b60009350505050615cb8565b615c7a665a1a150744b28e60c01b614e51565b615c8e67d174cb4626dfe9c260c01b614e51565b615ca267ae799adbf5a018b460c01b614e51565b826001015481615cb291906172d1565b93505050505b92915050565b600073ffffffffffffffffffffffffffffffffffffffff168273ffffffffffffffffffffffffffffffffffffffff1603615d305760006040517fec442f05000000000000000000000000000000000000000000000000000000008152600401615d2791906166f8565b60405180910390fd5b615d3c60008383616139565b5050565b6000615d5667178cc08c1c9207bb60c01b614e51565b615d6a67d4de2f789f328b1460c01b614e51565b615d7e67fae5f82909cea04760c01b614e51565b6000601260008573ffffffffffffffffffffffffffffffffffffffff1673ffffffffffffffffffffffffffffffffffffffff16815260200190815260200160002060008473ffffffffffffffffffffffffffffffffffffffff1673ffffffffffffffffffffffffffffffffffffffff1681526020019081526020016000209050615e126721400c797e4e6bd560c01b614e51565b615e26670c4ba911aac3436e60c01b614e51565b6000816001015403615e7857615e466794bffecdaf65a52360c01b614e51565b615e5a67106a176cdff8788760c01b614e51565b615e6e6752981820848d87dd60c01b614e51565b6000915050615f5c565b615e8c675355ad23ccfaf8b060c01b614e51565b615ea067c896e1d283ee959960c01b614e51565b615eb467d4a1a129652a8e8d60c01b614e51565b6000816002015442615ec691906172d1565b9050615edc670f98d016c285e86060c01b614e51565b615ef067dfef6d9a34c13aee60c01b614e51565b60006127106007548460010154615f079190617169565b615f11919061720e565b9050615f2767a41f62aca4222bfc60c01b614e51565b615f3b6783cbb1f51a1fed1960c01b614e51565b6301e133808282615f4c9190617169565b615f56919061720e565b93505050505b92915050565b600073ffffffffffffffffffffffffffffffffffffffff168473ffffffffffffffffffffffffffffffffffffffff1603615fd45760006040517fe602df05000000000000000000000000000000000000000000000000000000008152600401615fcb91906166f8565b60405180910390fd5b600073ffffffffffffffffffffffffffffffffffffffff168373ffffffffffffffffffffffffffffffffffffffff16036160465760006040517f94280d6200000000000000000000000000000000000000000000000000000000815260040161603d91906166f8565b60405180910390fd5b81600160008673ffffffffffffffffffffffffffffffffffffffff1673ffffffffffffffffffffffffffffffffffffffff16815260200190815260200160002060008573ffffffffffffffffffffffffffffffffffffffff1673ffffffffffffffffffffffffffffffffffffffff168152602001908152602001600020819055508015616133578273ffffffffffffffffffffffffffffffffffffffff168473ffffffffffffffffffffffffffffffffffffffff167f8c5be1e5ebec7d5bd14f71427d1e84f3dd0314c0f7b2291e5b200ac8c7c3b9258460405161612a91906166ce565b60405180910390a35b50505050565b600073ffffffffffffffffffffffffffffffffffffffff168373ffffffffffffffffffffffffffffffffffffffff160361618b57806002600082825461617f91906171ab565b9250508190555061625e565b60008060008573ffffffffffffffffffffffffffffffffffffffff1673ffffffffffffffffffffffffffffffffffffffff16815260200190815260200160002054905081811015616217578381836040517fe450d38c00000000000000000000000000000000000000000000000000000000815260040161620e93929190617cc7565b60405180910390fd5b8181036000808673ffffffffffffffffffffffffffffffffffffffff1673ffffffffffffffffffffffffffffffffffffffff16815260200190815260200160002081905550505b600073ffffffffffffffffffffffffffffffffffffffff168273ffffffffffffffffffffffffffffffffffffffff16036162a757806002600082825403925050819055506162f4565b806000808473ffffffffffffffffffffffffffffffffffffffff1673ffffffffffffffffffffffffffffffffffffffff168152602001908152602001600020600082825401925050819055505b8173ffffffffffffffffffffffffffffffffffffffff168373ffffffffffffffffffffffffffffffffffffffff167fddf252ad1be2c89b69c2b068fc378daa952ba7f163c4a11628f55a4df523b3ef8360405161635191906166ce565b60405180910390a3505050565b600061636d82841084846163c0565b905092915050565b61637d61256a565b6163b3576040517f8dfc202b00000000000000000000000000000000000000000000000000000000815260040160405180910390fd5b565b600060019050919050565b60006163cb846163da565b82841802821890509392505050565b60008115159050919050565b604051806101200160405280600073ffffffffffffffffffffffffffffffffffffffff168152602001600060048111156164235761642261682b565b5b815260200160008152602001600081526020016000815260200160008152602001600015158152602001600073ffffffffffffffffffffffffffffffffffffffff168152602001600081525090565b6040518060c00160405280600073ffffffffffffffffffffffffffffffffffffffff168152602001600073ffffffffffffffffffffffffffffffffffffffff168152602001600081526020016000815260200160008152602001600081525090565b60405180608001604052806000815260200160008152602001600081526020016000151581525090565b600081519050919050565b600082825260208201905092915050565b60005b8381101561653857808201518184015260208101905061651d565b60008484015250505050565b6000601f19601f8301169050919050565b6000616560826164fe565b61656a8185616509565b935061657a81856020860161651a565b61658381616544565b840191505092915050565b600060208201905081810360008301526165a88184616555565b905092915050565b600080fd5b600073ffffffffffffffffffffffffffffffffffffffff82169050919050565b60006165e0826165b5565b9050919050565b6165f0816165d5565b81146165fb57600080fd5b50565b60008135905061660d816165e7565b92915050565b6000819050919050565b61662681616613565b811461663157600080fd5b50565b6000813590506166438161661d565b92915050565b600080604083850312156166605761665f6165b0565b5b600061666e858286016165fe565b925050602061667f85828601616634565b9150509250929050565b60008115159050919050565b61669e81616689565b82525050565b60006020820190506166b96000830184616695565b92915050565b6166c881616613565b82525050565b60006020820190506166e360008301846166bf565b92915050565b6166f2816165d5565b82525050565b600060208201905061670d60008301846166e9565b92915050565b60008060006060848603121561672c5761672b6165b0565b5b600061673a868287016165fe565b935050602061674b868287016165fe565b925050604061675c86828701616634565b9150509250925092565b6005811061677357600080fd5b50565b60008135905061678581616766565b92915050565b6000602082840312156167a1576167a06165b0565b5b60006167af84828501616776565b91505092915050565b600060ff82169050919050565b6167ce816167b8565b82525050565b60006020820190506167e960008301846167c5565b92915050565b600060208284031215616805576168046165b0565b5b6000616813848285016165fe565b91505092915050565b616825816165d5565b82525050565b7f4e487b7100000000000000000000000000000000000000000000000000000000600052602160045260246000fd5b6005811061686b5761686a61682b565b5b50565b600081905061687c8261685a565b919050565b600061688c8261686e565b9050919050565b61689c81616881565b82525050565b6168ab81616613565b82525050565b6168ba81616689565b82525050565b610120820160008201516168d7600085018261681c565b5060208201516168ea6020850182616893565b5060408201516168fd60408501826168a2565b50606082015161691060608501826168a2565b50608082015161692360808501826168a2565b5060a082015161693660a08501826168a2565b5060c082015161694960c08501826168b1565b5060e082015161695c60e085018261681c565b506101008201516169716101008501826168a2565b50505050565b60006101208201905061698d60008301846168c0565b92915050565b600080604083850312156169aa576169a96165b0565b5b60006169b8858286016165fe565b92505060206169c9858286016165fe565b9150509250929050565b6000602082840312156169e9576169e86165b0565b5b60006169f784828501616634565b91505092915050565b6000608082019050616a1560008301876166bf565b616a2260208301866166bf565b616a2f60408301856166bf565b616a3c6060830184616695565b95945050505050565b60c082016000820151616a5b600085018261681c565b506020820151616a6e602085018261681c565b506040820151616a8160408501826168a2565b506060820151616a9460608501826168a2565b506080820151616aa760808501826168a2565b5060a0820151616aba60a08501826168a2565b50505050565b600060c082019050616ad56000830184616a45565b92915050565b600080600080600060a08688031215616af757616af66165b0565b5b6000616b05888289016165fe565b9550506020616b1688828901616776565b9450506040616b2788828901616634565b9350506060616b3888828901616634565b9250506080616b49888289016165fe565b9150509295509295909350565b608082016000820151616b6c60008501826168a2565b506020820151616b7f60208501826168a2565b506040820151616b9260408501826168a2565b506060820151616ba560608501826168b1565b50505050565b6000608082019050616bc06000830184616b56565b92915050565b600081519050919050565b600082825260208201905092915050565b6000819050602082019050919050565b6000616bfe838361681c565b60208301905092915050565b6000602082019050919050565b6000616c2282616bc6565b616c2c8185616bd1565b9350616c3783616be2565b8060005b83811015616c68578151616c4f8882616bf2565b9750616c5a83616c0a565b925050600181019050616c3b565b5085935050505092915050565b60006020820190508181036000830152616c8f8184616c17565b905092915050565b616ca081616881565b82525050565b600061012082019050616cbc600083018c6166e9565b616cc9602083018b616c97565b616cd6604083018a6166bf565b616ce360608301896166bf565b616cf060808301886166bf565b616cfd60a08301876166bf565b616d0a60c0830186616695565b616d1760e08301856166e9565b616d256101008301846166bf565b9a9950505050505050505050565b600060c082019050616d4860008301896166e9565b616d5560208301886166e9565b616d6260408301876166bf565b616d6f60608301866166bf565b616d7c60808301856166bf565b616d8960a08301846166bf565b979650505050505050565b7f4e487b7100000000000000000000000000000000000000000000000000000000600052602260045260246000fd5b60006002820490506001821680616ddb57607f821691505b602082108103616dee57616ded616d94565b5b50919050565b7f455347537461626c65636f696e3a20496e76616c6964206f7220696e6163746960008201527f766520636f6c6c61746572616c00000000000000000000000000000000000000602082015250565b6000616e50602d83616509565b9150616e5b82616df4565b604082019050919050565b60006020820190508181036000830152616e7f81616e43565b9050919050565b7f455347537461626c65636f696e3a20496e76616c69642075736572206164647260008201527f6573730000000000000000000000000000000000000000000000000000000000602082015250565b6000616ee2602383616509565b9150616eed82616e86565b604082019050919050565b60006020820190508181036000830152616f1181616ed5565b9050919050565b7f455347537461626c65636f696e3a20496e76616c6964206465627420616d6f7560008201527f6e74000000000000000000000000000000000000000000000000000000000000602082015250565b6000616f74602283616509565b9150616f7f82616f18565b604082019050919050565b60006020820190508181036000830152616fa381616f67565b9050919050565b7f455347537461626c65636f696e3a204e6f2061637469766520706f736974696f60008201527f6e00000000000000000000000000000000000000000000000000000000000000602082015250565b6000617006602183616509565b915061701182616faa565b604082019050919050565b6000602082019050818103600083015261703581616ff9565b9050919050565b7f455347537461626c65636f696e3a204578636565647320757365722064656274600082015250565b6000617072602083616509565b915061707d8261703c565b602082019050919050565b600060208201905081810360008301526170a181617065565b9050919050565b7f455347537461626c65636f696e3a20506f736974696f6e206973206865616c7460008201527f6879000000000000000000000000000000000000000000000000000000000000602082015250565b6000617104602283616509565b915061710f826170a8565b604082019050919050565b60006020820190508181036000830152617133816170f7565b9050919050565b7f4e487b7100000000000000000000000000000000000000000000000000000000600052601160045260246000fd5b600061717482616613565b915061717f83616613565b925082820261718d81616613565b915082820484148315176171a4576171a361713a565b5b5092915050565b60006171b682616613565b91506171c183616613565b92508282019050808211156171d9576171d861713a565b5b92915050565b7f4e487b7100000000000000000000000000000000000000000000000000000000600052601260045260246000fd5b600061721982616613565b915061722483616613565b925082617234576172336171df565b5b828204905092915050565b7f455347537461626c65636f696e3a20496e73756666696369656e7420636f6c6c60008201527f61746572616c0000000000000000000000000000000000000000000000000000602082015250565b600061729b602683616509565b91506172a68261723f565b604082019050919050565b600060208201905081810360008301526172ca8161728e565b9050919050565b60006172dc82616613565b91506172e783616613565b92508282039050818111156172ff576172fe61713a565b5b92915050565b600060408201905061731a60008301856166e9565b61732760208301846166bf565b9392505050565b61733781616689565b811461734257600080fd5b50565b6000815190506173548161732e565b92915050565b6000602082840312156173705761736f6165b0565b5b600061737e84828501617345565b91505092915050565b600060408201905061739c60008301856166bf565b6173a960208301846166bf565b9392505050565b7f455347537461626c65636f696e3a20496e76616c6964204553472073636f7265600082015250565b60006173e6602083616509565b91506173f1826173b0565b602082019050919050565b60006020820190508181036000830152617415816173d9565b9050919050565b7f455347537461626c65636f696e3a20416d6f756e74206d75737420626520706f60008201527f7369746976650000000000000000000000000000000000000000000000000000602082015250565b6000617478602683616509565b91506174838261741c565b604082019050919050565b600060208201905081810360008301526174a78161746b565b9050919050565b7f455347537461626c65636f696e3a20576f756c642062726561636820636f6c6c60008201527f61746572616c20726174696f0000000000000000000000000000000000000000602082015250565b600061750a602c83616509565b9150617515826174ae565b604082019050919050565b60006020820190508181036000830152617539816174fd565b9050919050565b7f455347537461626c65636f696e3a20496e76616c696420696e64657800000000600082015250565b6000617576601c83616509565b915061758182617540565b602082019050919050565b600060208201905081810360008301526175a581617569565b9050919050565b7f4e487b7100000000000000000000000000000000000000000000000000000000600052603260045260246000fd5b7f455347537461626c65636f696e3a204f6e6c7920656d657267656e6379206f7260008201527f61636c6500000000000000000000000000000000000000000000000000000000602082015250565b6000617637602483616509565b9150617642826175db565b604082019050919050565b600060208201905081810360008301526176668161762a565b9050919050565b7f455347537461626c65636f696e3a20496e76616c696420707269636500000000600082015250565b60006176a3601c83616509565b91506176ae8261766d565b602082019050919050565b600060208201905081810360008301526176d281617696565b9050919050565b7f455347537461626c65636f696e3a20496e76616c69642061737365742061646460008201527f7265737300000000000000000000000000000000000000000000000000000000602082015250565b6000617735602483616509565b9150617740826176d9565b604082019050919050565b6000602082019050818103600083015261776481617728565b9050919050565b7f455347537461626c65636f696e3a20496e76616c6964206f7261636c6520616460008201527f6472657373000000000000000000000000000000000000000000000000000000602082015250565b60006177c7602583616509565b91506177d28261776b565b604082019050919050565b600060208201905081810360008301526177f6816177ba565b9050919050565b7f455347537461626c65636f696e3a20526174696f20746f6f206c6f7700000000600082015250565b6000617833601c83616509565b915061783e826177fd565b602082019050919050565b6000602082019050818103600083015261786281617826565b9050919050565b7f455347537461626c65636f696e3a20496e76616c6964206c697175696461746960008201527f6f6e207468726573686f6c640000000000000000000000000000000000000000602082015250565b60006178c5602c83616509565b91506178d082617869565b604082019050919050565b600060208201905081810360008301526178f4816178b8565b9050919050565b7f455347537461626c65636f696e3a20436f6c6c61746572616c20616c7265616460008201527f7920657869737473000000000000000000000000000000000000000000000000602082015250565b6000617957602883616509565b9150617962826178fb565b604082019050919050565b600060208201905081810360008301526179868161794a565b9050919050565b60006040820190506179a26000830185616c97565b6179af60208301846166bf565b9392505050565b60006060820190506179cb60008301866166e9565b6179d860208301856166e9565b6179e560408301846166bf565b949350505050565b7f455347537461626c65636f696e3a204e6f20636f6c6c61746572616c2064657060008201527f6f73697465640000000000000000000000000000000000000000000000000000602082015250565b6000617a49602683616509565b9150617a54826179ed565b604082019050919050565b60006020820190508181036000830152617a7881617a3c565b9050919050565b7f455347537461626c65636f696e3a204578636565647320636f6c6c617465726160008201527f6c20726174696f00000000000000000000000000000000000000000000000000602082015250565b6000617adb602783616509565b9150617ae682617a7f565b604082019050919050565b60006020820190508181036000830152617b0a81617ace565b9050919050565b7f455347537461626c65636f696e3a204e6f206665657320746f20636f6c6c656360008201527f7400000000000000000000000000000000000000000000000000000000000000602082015250565b6000617b6d602183616509565b9150617b7882617b11565b604082019050919050565b60006020820190508181036000830152617b9c81617b60565b9050919050565b7f455347537461626c65636f696e3a2045786365656473206465627420616d6f7560008201527f6e74000000000000000000000000000000000000000000000000000000000000602082015250565b6000617bff602283616509565b9150617c0a82617ba3565b604082019050919050565b60006020820190508181036000830152617c2e81617bf2565b9050919050565b7f455347537461626c65636f696e3a20496e73756666696369656e742062616c6160008201527f6e636520666f7220666565000000000000000000000000000000000000000000602082015250565b6000617c91602b83616509565b9150617c9c82617c35565b604082019050919050565b60006020820190508181036000830152617cc081617c84565b9050919050565b6000606082019050617cdc60008301866166e9565b617ce960208301856166bf565b617cf660408301846166bf565b94935050505056fea2646970667358221220c0fea948592ce08ba5392efeee774f0ca059a93746cc56513362032b92cb1cb964736f6c63430008180033",
  "linkReferences": {},
  "deployedLinkReferences": {}
}