{
  "_format": "hh-sol-artifact-1",
  "contractName": "NFTMarketplace",
  "sourceName": "contracts/NFTMarketplace.sol",
  "abi": [
    {
      "inputs": [
        {
          "internalType": "address",
          "name": "_nftContract",
          "type": "address"
        },
        {
          "internalType": "address",
          "name": "_feeRecipient",
          "type": "address"
        }
      ],
      "stateMutability": "nonpayable",
      "type": "constructor"
    },
    {
      "inputs": [],
      "name": "ReentrancyGuardReentrantCall",
      "type": "error"
    },
    {
      "inputs": [
        {
          "internalType": "uint256",
          "name": "tokenId",
          "type": "uint256"
        }
      ],
      "name": "cancelListing",
      "outputs": [],
      "stateMutability": "nonpayable",
      "type": "function"
    },
    {
      "inputs": [],
      "name": "feePercentage",
      "outputs": [
        {
          "internalType": "uint256",
          "name": "",
          "type": "uint256"
        }
      ],
      "stateMutability": "view",
      "type": "function"
    },
    {
      "inputs": [],
      "name": "feeRecipient",
      "outputs": [
        {
          "internalType": "address",
          "name": "",
          "type": "address"
        }
      ],
      "stateMutability": "view",
      "type": "function"
    },
    {
      "inputs": [
        {
          "internalType": "uint256",
          "name": "tokenId",
          "type": "uint256"
        },
        {
          "internalType": "uint256",
          "name": "price",
          "type": "uint256"
        }
      ],
      "name": "list",
      "outputs": [],
      "stateMutability": "nonpayable",
      "type": "function"
    },
    {
      "inputs": [
        {
          "internalType": "uint256",
          "name": "",
          "type": "uint256"
        }
      ],
      "name": "listings",
      "outputs": [
        {
          "internalType": "uint256",
          "name": "price",
          "type": "uint256"
        },
        {
          "internalType": "address",
          "name": "seller",
          "type": "address"
        }
      ],
      "stateMutability": "view",
      "type": "function"
    },
    {
      "inputs": [],
      "name": "nftContract",
      "outputs": [
        {
          "internalType": "contract IERC721",
          "name": "",
          "type": "address"
        }
      ],
      "stateMutability": "view",
      "type": "function"
    },
    {
      "inputs": [
        {
          "internalType": "uint256",
          "name": "tokenId",
          "type": "uint256"
        }
      ],
      "name": "purchase",
      "outputs": [],
      "stateMutability": "payable",
      "type": "function"
    }
  ],
  "bytecode": "0x60a060405260056001553480156200001657600080fd5b506040516200147a3803806200147a83398181016040528101906200003c919062000182565b600160008190555062000060679ac5d85ac5ae3d5660c01b6200011560201b60201c565b6200007c67e9cc7fc0ff34c07d60c01b6200011560201b60201c565b8173ffffffffffffffffffffffffffffffffffffffff1660808173ffffffffffffffffffffffffffffffffffffffff1681525050620000cc67df37a7215c9dfa8460c01b6200011560201b60201c565b80600260006101000a81548173ffffffffffffffffffffffffffffffffffffffff021916908373ffffffffffffffffffffffffffffffffffffffff1602179055505050620001c9565b50565b600080fd5b600073ffffffffffffffffffffffffffffffffffffffff82169050919050565b60006200014a826200011d565b9050919050565b6200015c816200013d565b81146200016857600080fd5b50565b6000815190506200017c8162000151565b92915050565b600080604083850312156200019c576200019b62000118565b5b6000620001ac858286016200016b565b9250506020620001bf858286016200016b565b9150509250929050565b608051611279620002016000396000818161037c0152818161052c015281816106580152818161079f0152610ad101526112796000f3fe6080604052600436106100705760003560e01c8063a001ecdd1161004e578063a001ecdd146100f2578063d56d229d1461011d578063de74e57b14610148578063efef39a11461018657610070565b8063305a67a814610075578063469048401461009e57806350fd7367146100c9575b600080fd5b34801561008157600080fd5b5061009c60048036038101906100979190610d57565b6101a2565b005b3480156100aa57600080fd5b506100b361046e565b6040516100c09190610dc5565b60405180910390f35b3480156100d557600080fd5b506100f060048036038101906100eb9190610de0565b610494565b005b3480156100fe57600080fd5b50610107610797565b6040516101149190610e2f565b60405180910390f35b34801561012957600080fd5b5061013261079d565b60405161013f9190610ea9565b60405180910390f35b34801561015457600080fd5b5061016f600480360381019061016a9190610d57565b6107c1565b60405161017d929190610ec4565b60405180910390f35b6101a0600480360381019061019b9190610d57565b610805565b005b6101b667eb9d8a6e8c0378c560c01b610cc9565b6101be610ccc565b6101d267e7bc9a21cdbb97d360c01b610cc9565b6101e667fba209f4b736c4dc60c01b610cc9565b6101fa67cc5b094e25d598bc60c01b610cc9565b61020e67bbf3dd87fb12632c60c01b610cc9565b600060036000838152602001908152602001600020604051806040016040529081600082015481526020016001820160009054906101000a900473ffffffffffffffffffffffffffffffffffffffff1673ffffffffffffffffffffffffffffffffffffffff1673ffffffffffffffffffffffffffffffffffffffff168152505090506102a467b28425fef70e4c6060c01b610cc9565b6102b867e94422602ef7808860c01b610cc9565b6102cc67fd4c4e09b036e97860c01b610cc9565b3373ffffffffffffffffffffffffffffffffffffffff16816020015173ffffffffffffffffffffffffffffffffffffffff161461033e576040517f08c379a000000000000000000000000000000000000000000000000000000000815260040161033590610f4a565b60405180910390fd5b6103526707db9debb224ad0160c01b610cc9565b61036667c843f637a92b21ee60c01b610cc9565b61037a67a045f43015a417d360c01b610cc9565b7f000000000000000000000000000000000000000000000000000000000000000073ffffffffffffffffffffffffffffffffffffffff166323b872dd3033856040518463ffffffff1660e01b81526004016103d793929190610f6a565b600060405180830381600087803b1580156103f157600080fd5b505af1158015610405573d6000803e3d6000fd5b5050505061041d67e774ad42159a1bd560c01b610cc9565b600360008381526020019081526020016000206000808201600090556001820160006101000a81549073ffffffffffffffffffffffffffffffffffffffff021916905550505061046b610d12565b50565b600260009054906101000a900473ffffffffffffffffffffffffffffffffffffffff1681565b6104a867e0085678aefda7a760c01b610cc9565b6104b0610ccc565b6104c46795508767d9f7efdf60c01b610cc9565b6104d867b3fec4b3517926c860c01b610cc9565b6104ec67b44af0ec01f0d3e360c01b610cc9565b6104ff6670ea7cd95e417e60c01b610cc9565b61051367deef75444b2180b360c01b610cc9565b3373ffffffffffffffffffffffffffffffffffffffff167f000000000000000000000000000000000000000000000000000000000000000073ffffffffffffffffffffffffffffffffffffffff16636352211e846040518263ffffffff1660e01b81526004016105839190610e2f565b602060405180830381865afa1580156105a0573d6000803e3d6000fd5b505050506040513d601f19601f820116820180604052508101906105c49190610fcd565b73ffffffffffffffffffffffffffffffffffffffff161461061a576040517f08c379a000000000000000000000000000000000000000000000000000000000815260040161061190611046565b60405180910390fd5b61062e67247bce6c142f6f8160c01b610cc9565b61064267e8cf97fdbdce165c60c01b610cc9565b61065667bfb57392e4f6bd1660c01b610cc9565b7f000000000000000000000000000000000000000000000000000000000000000073ffffffffffffffffffffffffffffffffffffffff166323b872dd3330856040518463ffffffff1660e01b81526004016106b393929190610f6a565b600060405180830381600087803b1580156106cd57600080fd5b505af11580156106e1573d6000803e3d6000fd5b505050506106f967b932adc127ea8d9860c01b610cc9565b60405180604001604052808281526020013373ffffffffffffffffffffffffffffffffffffffff16815250600360008481526020019081526020016000206000820151816000015560208201518160010160006101000a81548173ffffffffffffffffffffffffffffffffffffffff021916908373ffffffffffffffffffffffffffffffffffffffff160217905550905050610793610d12565b5050565b60015481565b7f000000000000000000000000000000000000000000000000000000000000000081565b60036020528060005260406000206000915090508060000154908060010160009054906101000a900473ffffffffffffffffffffffffffffffffffffffff16905082565b610819673ff34db64982038f60c01b610cc9565b610821610ccc565b610835674e7a4ed07cd0504460c01b610cc9565b61084967a64391464167085a60c01b610cc9565b61085d67373ed4cb40a1c02160c01b610cc9565b610871678e3df5ef0d3b05fb60c01b610cc9565b600060036000838152602001908152602001600020604051806040016040529081600082015481526020016001820160009054906101000a900473ffffffffffffffffffffffffffffffffffffffff1673ffffffffffffffffffffffffffffffffffffffff1673ffffffffffffffffffffffffffffffffffffffff16815250509050610907679c25991a5a6f957e60c01b610cc9565b61091b67a3efa923a841139460c01b610cc9565b61092f673df7d8e0fd0c9fe060c01b610cc9565b6000816000015111610976576040517f08c379a000000000000000000000000000000000000000000000000000000000815260040161096d906110b2565b60405180910390fd5b61098a67f90f3f7baa4ddefd60c01b610cc9565b61099e67029d95e24cb4be3c60c01b610cc9565b6109b26778fc9d713f6535dd60c01b610cc9565b6109c66732ab34637a22c00660c01b610cc9565b8060000151341015610a0d576040517f08c379a0000000000000000000000000000000000000000000000000000000008152600401610a049061111e565b60405180910390fd5b610a216767e0936d1899b7ce60c01b610cc9565b610a35675c92bf3d39340aee60c01b610cc9565b610a4967353c2585e762d2a360c01b610cc9565b600060646001548360000151610a5f919061116d565b610a6991906111de565b9050610a7f6795f9ea61aa86efcb60c01b610cc9565b610a9367d708bd0f87e1f8fa60c01b610cc9565b6000818360000151610aa5919061120f565b9050610abb676ef603182181b09160c01b610cc9565b610acf67b6d5cf1d0392464460c01b610cc9565b7f000000000000000000000000000000000000000000000000000000000000000073ffffffffffffffffffffffffffffffffffffffff166323b872dd3033876040518463ffffffff1660e01b8152600401610b2c93929190610f6a565b600060405180830381600087803b158015610b4657600080fd5b505af1158015610b5a573d6000803e3d6000fd5b50505050610b7267cc19b6429add7b5660c01b610cc9565b610b866772912797cb8f55e860c01b610cc9565b826020015173ffffffffffffffffffffffffffffffffffffffff166108fc829081150290604051600060405180830381858888f19350505050158015610bd0573d6000803e3d6000fd5b50610be567b369802a1aaae83260c01b610cc9565b610bf96732c61499555e858860c01b610cc9565b600260009054906101000a900473ffffffffffffffffffffffffffffffffffffffff1673ffffffffffffffffffffffffffffffffffffffff166108fc839081150290604051600060405180830381858888f19350505050158015610c61573d6000803e3d6000fd5b50610c766765f672e88bd005bd60c01b610cc9565b600360008581526020019081526020016000206000808201600090556001820160006101000a81549073ffffffffffffffffffffffffffffffffffffffff02191690555050505050610cc6610d12565b50565b50565b600260005403610d08576040517f3ee5aeb500000000000000000000000000000000000000000000000000000000815260040160405180910390fd5b6002600081905550565b6001600081905550565b600080fd5b6000819050919050565b610d3481610d21565b8114610d3f57600080fd5b50565b600081359050610d5181610d2b565b92915050565b600060208284031215610d6d57610d6c610d1c565b5b6000610d7b84828501610d42565b91505092915050565b600073ffffffffffffffffffffffffffffffffffffffff82169050919050565b6000610daf82610d84565b9050919050565b610dbf81610da4565b82525050565b6000602082019050610dda6000830184610db6565b92915050565b60008060408385031215610df757610df6610d1c565b5b6000610e0585828601610d42565b9250506020610e1685828601610d42565b9150509250929050565b610e2981610d21565b82525050565b6000602082019050610e446000830184610e20565b92915050565b6000819050919050565b6000610e6f610e6a610e6584610d84565b610e4a565b610d84565b9050919050565b6000610e8182610e54565b9050919050565b6000610e9382610e76565b9050919050565b610ea381610e88565b82525050565b6000602082019050610ebe6000830184610e9a565b92915050565b6000604082019050610ed96000830185610e20565b610ee66020830184610db6565b9392505050565b600082825260208201905092915050565b7f4e6f742073656c6c657200000000000000000000000000000000000000000000600082015250565b6000610f34600a83610eed565b9150610f3f82610efe565b602082019050919050565b60006020820190508181036000830152610f6381610f27565b9050919050565b6000606082019050610f7f6000830186610db6565b610f8c6020830185610db6565b610f996040830184610e20565b949350505050565b610faa81610da4565b8114610fb557600080fd5b50565b600081519050610fc781610fa1565b92915050565b600060208284031215610fe357610fe2610d1c565b5b6000610ff184828501610fb8565b91505092915050565b7f4f6e6c79206f776e65722063616e206c69737400000000000000000000000000600082015250565b6000611030601383610eed565b915061103b82610ffa565b602082019050919050565b6000602082019050818103600083015261105f81611023565b9050919050565b7f4e6f7420666f722073616c650000000000000000000000000000000000000000600082015250565b600061109c600c83610eed565b91506110a782611066565b602082019050919050565b600060208201905081810360008301526110cb8161108f565b9050919050565b7f496e73756666696369656e7420616d6f756e7400000000000000000000000000600082015250565b6000611108601383610eed565b9150611113826110d2565b602082019050919050565b60006020820190508181036000830152611137816110fb565b9050919050565b7f4e487b7100000000000000000000000000000000000000000000000000000000600052601160045260246000fd5b600061117882610d21565b915061118383610d21565b925082820261119181610d21565b915082820484148315176111a8576111a761113e565b5b5092915050565b7f4e487b7100000000000000000000000000000000000000000000000000000000600052601260045260246000fd5b60006111e982610d21565b91506111f483610d21565b925082611204576112036111af565b5b828204905092915050565b600061121a82610d21565b915061122583610d21565b925082820390508181111561123d5761123c61113e565b5b9291505056fea264697066735822122001b5ea87fdd5665a33d8a96842466e1d76dbfea1f321d03a96be63079fd1941964736f6c63430008180033",
  "linkReferences": {},
  "deployedLinkReferences": {}
}